{
	"contracts/Shop9fy.sol": {
		"SeulAot": {
			"abi": [
				{
					"inputs": [
						{
							"internalType": "address",
							"name": "",
							"type": "address"
						}
					],
					"name": "addressToNum",
					"outputs": [
						{
							"internalType": "uint256",
							"name": "",
							"type": "uint256"
						}
					],
					"stateMutability": "view",
					"type": "function"
				},
				{
					"inputs": [],
					"name": "getCurse",
					"outputs": [
						{
							"internalType": "enum SeulAot.bNCurse",
							"name": "",
							"type": "uint8"
						}
					],
					"stateMutability": "view",
					"type": "function"
				},
				{
					"inputs": [
						{
							"internalType": "uint256",
							"name": "_num",
							"type": "uint256"
						}
					],
					"name": "getUNBA",
					"outputs": [
						{
							"internalType": "uint256",
							"name": "",
							"type": "uint256"
						}
					],
					"stateMutability": "nonpayable",
					"type": "function"
				},
				{
					"inputs": [],
					"name": "set1",
					"outputs": [],
					"stateMutability": "nonpayable",
					"type": "function"
				}
			],
			"devdoc": {
				"kind": "dev",
				"methods": {},
				"version": 1
			},
			"evm": {
				"assembly": "    /* \"contracts/Shop9fy.sol\":57:1307  contract SeulAot{... */\n  mstore(0x40, 0x80)\n  callvalue\n  dup1\n  iszero\n  tag_1\n  jumpi\n  0x00\n  dup1\n  revert\ntag_1:\n  pop\n  dataSize(sub_0)\n  dup1\n  dataOffset(sub_0)\n  0x00\n  codecopy\n  0x00\n  return\nstop\n\nsub_0: assembly {\n        /* \"contracts/Shop9fy.sol\":57:1307  contract SeulAot{... */\n      mstore(0x40, 0x80)\n      callvalue\n      dup1\n      iszero\n      tag_1\n      jumpi\n      0x00\n      dup1\n      revert\n    tag_1:\n      pop\n      jumpi(tag_2, lt(calldatasize, 0x04))\n      shr(0xe0, calldataload(0x00))\n      dup1\n      0x549ceeaa\n      eq\n      tag_3\n      jumpi\n      dup1\n      0x75912369\n      eq\n      tag_4\n      jumpi\n      dup1\n      0xba294767\n      eq\n      tag_5\n      jumpi\n      dup1\n      0xe011d145\n      eq\n      tag_6\n      jumpi\n    tag_2:\n      0x00\n      dup1\n      revert\n        /* \"contracts/Shop9fy.sol\":568:662  function getCurse() public view returns(bNCurse){... */\n    tag_3:\n      tag_7\n      tag_8\n      jump\t// in\n    tag_7:\n      mload(0x40)\n      tag_9\n      swap2\n      swap1\n      tag_10\n      jump\t// in\n    tag_9:\n      mload(0x40)\n      dup1\n      swap2\n      sub\n      swap1\n      return\n        /* \"contracts/Shop9fy.sol\":496:563  function set1() public {... */\n    tag_4:\n      tag_11\n      tag_12\n      jump\t// in\n    tag_11:\n      stop\n        /* \"contracts/Shop9fy.sol\":839:1080  function getUNBA(uint256 _num) public  returns(uint){... */\n    tag_5:\n      tag_13\n      0x04\n      dup1\n      calldatasize\n      sub\n      dup2\n      add\n      swap1\n      tag_14\n      swap2\n      swap1\n      tag_15\n      jump\t// in\n    tag_14:\n      tag_16\n      jump\t// in\n    tag_13:\n      mload(0x40)\n      tag_17\n      swap2\n      swap1\n      tag_18\n      jump\t// in\n    tag_17:\n      mload(0x40)\n      dup1\n      swap2\n      sub\n      swap1\n      return\n        /* \"contracts/Shop9fy.sol\":156:203  mapping(address => uint256) public addressToNum */\n    tag_6:\n      tag_19\n      0x04\n      dup1\n      calldatasize\n      sub\n      dup2\n      add\n      swap1\n      tag_20\n      swap2\n      swap1\n      tag_21\n      jump\t// in\n    tag_20:\n      tag_22\n      jump\t// in\n    tag_19:\n      mload(0x40)\n      tag_23\n      swap2\n      swap1\n      tag_18\n      jump\t// in\n    tag_23:\n      mload(0x40)\n      dup1\n      swap2\n      sub\n      swap1\n      return\n        /* \"contracts/Shop9fy.sol\":568:662  function getCurse() public view returns(bNCurse){... */\n    tag_8:\n        /* \"contracts/Shop9fy.sol\":608:615  bNCurse */\n      0x00\n        /* \"contracts/Shop9fy.sol\":633:646  currentChoice */\n      0x02\n      0x00\n      swap1\n      sload\n      swap1\n      0x0100\n      exp\n      swap1\n      div\n      0xff\n      and\n        /* \"contracts/Shop9fy.sol\":626:646  return currentChoice */\n      swap1\n      pop\n        /* \"contracts/Shop9fy.sol\":568:662  function getCurse() public view returns(bNCurse){... */\n      swap1\n      jump\t// out\n        /* \"contracts/Shop9fy.sol\":496:563  function set1() public {... */\n    tag_12:\n        /* \"contracts/Shop9fy.sol\":545:556  bNCurse.bn2 */\n      0x01\n        /* \"contracts/Shop9fy.sol\":529:542  currentChoice */\n      0x02\n      0x00\n        /* \"contracts/Shop9fy.sol\":529:556  currentChoice = bNCurse.bn2 */\n      0x0100\n      exp\n      dup2\n      sload\n      dup2\n      0xff\n      mul\n      not\n      and\n      swap1\n      dup4\n      0x02\n      dup2\n      gt\n      iszero\n      tag_26\n      jumpi\n      tag_27\n      tag_28\n      jump\t// in\n    tag_27:\n    tag_26:\n      mul\n      or\n      swap1\n      sstore\n      pop\n        /* \"contracts/Shop9fy.sol\":496:563  function set1() public {... */\n      jump\t// out\n        /* \"contracts/Shop9fy.sol\":839:1080  function getUNBA(uint256 _num) public  returns(uint){... */\n    tag_16:\n        /* \"contracts/Shop9fy.sol\":886:890  uint */\n      0x00\n        /* \"contracts/Shop9fy.sol\":929:933  _num */\n      dup2\n        /* \"contracts/Shop9fy.sol\":902:914  addressToNum */\n      0x01\n        /* \"contracts/Shop9fy.sol\":902:926  addressToNum[msg.sender] */\n      0x00\n        /* \"contracts/Shop9fy.sol\":915:925  msg.sender */\n      caller\n        /* \"contracts/Shop9fy.sol\":902:926  addressToNum[msg.sender] */\n      0xffffffffffffffffffffffffffffffffffffffff\n      and\n      0xffffffffffffffffffffffffffffffffffffffff\n      and\n      dup2\n      mstore\n      0x20\n      add\n      swap1\n      dup2\n      mstore\n      0x20\n      add\n      0x00\n      keccak256\n        /* \"contracts/Shop9fy.sol\":902:933  addressToNum[msg.sender] = _num */\n      dup2\n      swap1\n      sstore\n      pop\n        /* \"contracts/Shop9fy.sol\":997:1009  addressToNum */\n      0x01\n        /* \"contracts/Shop9fy.sol\":997:1021  addressToNum[msg.sender] */\n      0x00\n        /* \"contracts/Shop9fy.sol\":1010:1020  msg.sender */\n      caller\n        /* \"contracts/Shop9fy.sol\":997:1021  addressToNum[msg.sender] */\n      0xffffffffffffffffffffffffffffffffffffffff\n      and\n      0xffffffffffffffffffffffffffffffffffffffff\n      and\n      dup2\n      mstore\n      0x20\n      add\n      swap1\n      dup2\n      mstore\n      0x20\n      add\n      0x00\n      keccak256\n      sload\n        /* \"contracts/Shop9fy.sol\":990:1022  return(addressToNum[msg.sender]) */\n      swap1\n      pop\n        /* \"contracts/Shop9fy.sol\":839:1080  function getUNBA(uint256 _num) public  returns(uint){... */\n      swap2\n      swap1\n      pop\n      jump\t// out\n        /* \"contracts/Shop9fy.sol\":156:203  mapping(address => uint256) public addressToNum */\n    tag_22:\n      mstore(0x20, 0x01)\n      dup1\n      0x00\n      mstore\n      keccak256(0x00, 0x40)\n      0x00\n      swap2\n      pop\n      swap1\n      pop\n      sload\n      dup2\n      jump\t// out\n        /* \"#utility.yul\":7:187   */\n    tag_28:\n        /* \"#utility.yul\":55:132   */\n      0x4e487b7100000000000000000000000000000000000000000000000000000000\n        /* \"#utility.yul\":52:53   */\n      0x00\n        /* \"#utility.yul\":45:133   */\n      mstore\n        /* \"#utility.yul\":152:156   */\n      0x21\n        /* \"#utility.yul\":149:150   */\n      0x04\n        /* \"#utility.yul\":142:157   */\n      mstore\n        /* \"#utility.yul\":176:180   */\n      0x24\n        /* \"#utility.yul\":173:174   */\n      0x00\n        /* \"#utility.yul\":166:181   */\n      revert\n        /* \"#utility.yul\":193:308   */\n    tag_30:\n        /* \"#utility.yul\":276:277   */\n      0x03\n        /* \"#utility.yul\":269:274   */\n      dup2\n        /* \"#utility.yul\":266:278   */\n      lt\n        /* \"#utility.yul\":256:302   */\n      tag_48\n      jumpi\n        /* \"#utility.yul\":282:300   */\n      tag_49\n      tag_28\n      jump\t// in\n    tag_49:\n        /* \"#utility.yul\":256:302   */\n    tag_48:\n        /* \"#utility.yul\":193:308   */\n      pop\n      jump\t// out\n        /* \"#utility.yul\":314:445   */\n    tag_31:\n        /* \"#utility.yul\":361:368   */\n      0x00\n        /* \"#utility.yul\":390:395   */\n      dup2\n        /* \"#utility.yul\":379:395   */\n      swap1\n      pop\n        /* \"#utility.yul\":396:439   */\n      tag_51\n        /* \"#utility.yul\":433:438   */\n      dup3\n        /* \"#utility.yul\":396:439   */\n      tag_30\n      jump\t// in\n    tag_51:\n        /* \"#utility.yul\":314:445   */\n      swap2\n      swap1\n      pop\n      jump\t// out\n        /* \"#utility.yul\":451:582   */\n    tag_32:\n        /* \"#utility.yul\":509:518   */\n      0x00\n        /* \"#utility.yul\":542:576   */\n      tag_53\n        /* \"#utility.yul\":570:575   */\n      dup3\n        /* \"#utility.yul\":542:576   */\n      tag_31\n      jump\t// in\n    tag_53:\n        /* \"#utility.yul\":529:576   */\n      swap1\n      pop\n        /* \"#utility.yul\":451:582   */\n      swap2\n      swap1\n      pop\n      jump\t// out\n        /* \"#utility.yul\":588:735   */\n    tag_33:\n        /* \"#utility.yul\":683:728   */\n      tag_55\n        /* \"#utility.yul\":722:727   */\n      dup2\n        /* \"#utility.yul\":683:728   */\n      tag_32\n      jump\t// in\n    tag_55:\n        /* \"#utility.yul\":678:681   */\n      dup3\n        /* \"#utility.yul\":671:729   */\n      mstore\n        /* \"#utility.yul\":588:735   */\n      pop\n      pop\n      jump\t// out\n        /* \"#utility.yul\":741:979   */\n    tag_10:\n        /* \"#utility.yul\":842:846   */\n      0x00\n        /* \"#utility.yul\":880:882   */\n      0x20\n        /* \"#utility.yul\":869:878   */\n      dup3\n        /* \"#utility.yul\":865:883   */\n      add\n        /* \"#utility.yul\":857:883   */\n      swap1\n      pop\n        /* \"#utility.yul\":893:972   */\n      tag_57\n        /* \"#utility.yul\":969:970   */\n      0x00\n        /* \"#utility.yul\":958:967   */\n      dup4\n        /* \"#utility.yul\":954:971   */\n      add\n        /* \"#utility.yul\":945:951   */\n      dup5\n        /* \"#utility.yul\":893:972   */\n      tag_33\n      jump\t// in\n    tag_57:\n        /* \"#utility.yul\":741:979   */\n      swap3\n      swap2\n      pop\n      pop\n      jump\t// out\n        /* \"#utility.yul\":1066:1183   */\n    tag_35:\n        /* \"#utility.yul\":1175:1176   */\n      0x00\n        /* \"#utility.yul\":1172:1173   */\n      dup1\n        /* \"#utility.yul\":1165:1177   */\n      revert\n        /* \"#utility.yul\":1312:1389   */\n    tag_37:\n        /* \"#utility.yul\":1349:1356   */\n      0x00\n        /* \"#utility.yul\":1378:1383   */\n      dup2\n        /* \"#utility.yul\":1367:1383   */\n      swap1\n      pop\n        /* \"#utility.yul\":1312:1389   */\n      swap2\n      swap1\n      pop\n      jump\t// out\n        /* \"#utility.yul\":1395:1517   */\n    tag_38:\n        /* \"#utility.yul\":1468:1492   */\n      tag_63\n        /* \"#utility.yul\":1486:1491   */\n      dup2\n        /* \"#utility.yul\":1468:1492   */\n      tag_37\n      jump\t// in\n    tag_63:\n        /* \"#utility.yul\":1461:1466   */\n      dup2\n        /* \"#utility.yul\":1458:1493   */\n      eq\n        /* \"#utility.yul\":1448:1511   */\n      tag_64\n      jumpi\n        /* \"#utility.yul\":1507:1508   */\n      0x00\n        /* \"#utility.yul\":1504:1505   */\n      dup1\n        /* \"#utility.yul\":1497:1509   */\n      revert\n        /* \"#utility.yul\":1448:1511   */\n    tag_64:\n        /* \"#utility.yul\":1395:1517   */\n      pop\n      jump\t// out\n        /* \"#utility.yul\":1523:1662   */\n    tag_39:\n        /* \"#utility.yul\":1569:1574   */\n      0x00\n        /* \"#utility.yul\":1607:1613   */\n      dup2\n        /* \"#utility.yul\":1594:1614   */\n      calldataload\n        /* \"#utility.yul\":1585:1614   */\n      swap1\n      pop\n        /* \"#utility.yul\":1623:1656   */\n      tag_66\n        /* \"#utility.yul\":1650:1655   */\n      dup2\n        /* \"#utility.yul\":1623:1656   */\n      tag_38\n      jump\t// in\n    tag_66:\n        /* \"#utility.yul\":1523:1662   */\n      swap3\n      swap2\n      pop\n      pop\n      jump\t// out\n        /* \"#utility.yul\":1668:1997   */\n    tag_15:\n        /* \"#utility.yul\":1727:1733   */\n      0x00\n        /* \"#utility.yul\":1776:1778   */\n      0x20\n        /* \"#utility.yul\":1764:1773   */\n      dup3\n        /* \"#utility.yul\":1755:1762   */\n      dup5\n        /* \"#utility.yul\":1751:1774   */\n      sub\n        /* \"#utility.yul\":1747:1779   */\n      slt\n        /* \"#utility.yul\":1744:1863   */\n      iszero\n      tag_68\n      jumpi\n        /* \"#utility.yul\":1782:1861   */\n      tag_69\n      tag_35\n      jump\t// in\n    tag_69:\n        /* \"#utility.yul\":1744:1863   */\n    tag_68:\n        /* \"#utility.yul\":1902:1903   */\n      0x00\n        /* \"#utility.yul\":1927:1980   */\n      tag_70\n        /* \"#utility.yul\":1972:1979   */\n      dup5\n        /* \"#utility.yul\":1963:1969   */\n      dup3\n        /* \"#utility.yul\":1952:1961   */\n      dup6\n        /* \"#utility.yul\":1948:1970   */\n      add\n        /* \"#utility.yul\":1927:1980   */\n      tag_39\n      jump\t// in\n    tag_70:\n        /* \"#utility.yul\":1917:1980   */\n      swap2\n      pop\n        /* \"#utility.yul\":1873:1990   */\n      pop\n        /* \"#utility.yul\":1668:1997   */\n      swap3\n      swap2\n      pop\n      pop\n      jump\t// out\n        /* \"#utility.yul\":2003:2121   */\n    tag_40:\n        /* \"#utility.yul\":2090:2114   */\n      tag_72\n        /* \"#utility.yul\":2108:2113   */\n      dup2\n        /* \"#utility.yul\":2090:2114   */\n      tag_37\n      jump\t// in\n    tag_72:\n        /* \"#utility.yul\":2085:2088   */\n      dup3\n        /* \"#utility.yul\":2078:2115   */\n      mstore\n        /* \"#utility.yul\":2003:2121   */\n      pop\n      pop\n      jump\t// out\n        /* \"#utility.yul\":2127:2349   */\n    tag_18:\n        /* \"#utility.yul\":2220:2224   */\n      0x00\n        /* \"#utility.yul\":2258:2260   */\n      0x20\n        /* \"#utility.yul\":2247:2256   */\n      dup3\n        /* \"#utility.yul\":2243:2261   */\n      add\n        /* \"#utility.yul\":2235:2261   */\n      swap1\n      pop\n        /* \"#utility.yul\":2271:2342   */\n      tag_74\n        /* \"#utility.yul\":2339:2340   */\n      0x00\n        /* \"#utility.yul\":2328:2337   */\n      dup4\n        /* \"#utility.yul\":2324:2341   */\n      add\n        /* \"#utility.yul\":2315:2321   */\n      dup5\n        /* \"#utility.yul\":2271:2342   */\n      tag_40\n      jump\t// in\n    tag_74:\n        /* \"#utility.yul\":2127:2349   */\n      swap3\n      swap2\n      pop\n      pop\n      jump\t// out\n        /* \"#utility.yul\":2355:2481   */\n    tag_41:\n        /* \"#utility.yul\":2392:2399   */\n      0x00\n        /* \"#utility.yul\":2432:2474   */\n      0xffffffffffffffffffffffffffffffffffffffff\n        /* \"#utility.yul\":2425:2430   */\n      dup3\n        /* \"#utility.yul\":2421:2475   */\n      and\n        /* \"#utility.yul\":2410:2475   */\n      swap1\n      pop\n        /* \"#utility.yul\":2355:2481   */\n      swap2\n      swap1\n      pop\n      jump\t// out\n        /* \"#utility.yul\":2487:2583   */\n    tag_42:\n        /* \"#utility.yul\":2524:2531   */\n      0x00\n        /* \"#utility.yul\":2553:2577   */\n      tag_77\n        /* \"#utility.yul\":2571:2576   */\n      dup3\n        /* \"#utility.yul\":2553:2577   */\n      tag_41\n      jump\t// in\n    tag_77:\n        /* \"#utility.yul\":2542:2577   */\n      swap1\n      pop\n        /* \"#utility.yul\":2487:2583   */\n      swap2\n      swap1\n      pop\n      jump\t// out\n        /* \"#utility.yul\":2589:2711   */\n    tag_43:\n        /* \"#utility.yul\":2662:2686   */\n      tag_79\n        /* \"#utility.yul\":2680:2685   */\n      dup2\n        /* \"#utility.yul\":2662:2686   */\n      tag_42\n      jump\t// in\n    tag_79:\n        /* \"#utility.yul\":2655:2660   */\n      dup2\n        /* \"#utility.yul\":2652:2687   */\n      eq\n        /* \"#utility.yul\":2642:2705   */\n      tag_80\n      jumpi\n        /* \"#utility.yul\":2701:2702   */\n      0x00\n        /* \"#utility.yul\":2698:2699   */\n      dup1\n        /* \"#utility.yul\":2691:2703   */\n      revert\n        /* \"#utility.yul\":2642:2705   */\n    tag_80:\n        /* \"#utility.yul\":2589:2711   */\n      pop\n      jump\t// out\n        /* \"#utility.yul\":2717:2856   */\n    tag_44:\n        /* \"#utility.yul\":2763:2768   */\n      0x00\n        /* \"#utility.yul\":2801:2807   */\n      dup2\n        /* \"#utility.yul\":2788:2808   */\n      calldataload\n        /* \"#utility.yul\":2779:2808   */\n      swap1\n      pop\n        /* \"#utility.yul\":2817:2850   */\n      tag_82\n        /* \"#utility.yul\":2844:2849   */\n      dup2\n        /* \"#utility.yul\":2817:2850   */\n      tag_43\n      jump\t// in\n    tag_82:\n        /* \"#utility.yul\":2717:2856   */\n      swap3\n      swap2\n      pop\n      pop\n      jump\t// out\n        /* \"#utility.yul\":2862:3191   */\n    tag_21:\n        /* \"#utility.yul\":2921:2927   */\n      0x00\n        /* \"#utility.yul\":2970:2972   */\n      0x20\n        /* \"#utility.yul\":2958:2967   */\n      dup3\n        /* \"#utility.yul\":2949:2956   */\n      dup5\n        /* \"#utility.yul\":2945:2968   */\n      sub\n        /* \"#utility.yul\":2941:2973   */\n      slt\n        /* \"#utility.yul\":2938:3057   */\n      iszero\n      tag_84\n      jumpi\n        /* \"#utility.yul\":2976:3055   */\n      tag_85\n      tag_35\n      jump\t// in\n    tag_85:\n        /* \"#utility.yul\":2938:3057   */\n    tag_84:\n        /* \"#utility.yul\":3096:3097   */\n      0x00\n        /* \"#utility.yul\":3121:3174   */\n      tag_86\n        /* \"#utility.yul\":3166:3173   */\n      dup5\n        /* \"#utility.yul\":3157:3163   */\n      dup3\n        /* \"#utility.yul\":3146:3155   */\n      dup6\n        /* \"#utility.yul\":3142:3164   */\n      add\n        /* \"#utility.yul\":3121:3174   */\n      tag_44\n      jump\t// in\n    tag_86:\n        /* \"#utility.yul\":3111:3174   */\n      swap2\n      pop\n        /* \"#utility.yul\":3067:3184   */\n      pop\n        /* \"#utility.yul\":2862:3191   */\n      swap3\n      swap2\n      pop\n      pop\n      jump\t// out\n\n    auxdata: 0xa26469706673582212205fabb67b7b211871b75043734dc51900c4f518aa94989493a9d20adb794fadcc64736f6c63430008080033\n}\n",
				"bytecode": {
					"linkReferences": {},
					"object": "608060405234801561001057600080fd5b506103a7806100206000396000f3fe608060405234801561001057600080fd5b506004361061004c5760003560e01c8063549ceeaa14610051578063759123691461006f578063ba29476714610079578063e011d145146100a9575b600080fd5b6100596100d9565b6040516100669190610239565b60405180910390f35b6100776100f0565b005b610093600480360381019061008e919061028f565b61011d565b6040516100a091906102cb565b60405180910390f35b6100c360048036038101906100be9190610344565b6101aa565b6040516100d091906102cb565b60405180910390f35b6000600260009054906101000a900460ff16905090565b6001600260006101000a81548160ff02191690836002811115610116576101156101c2565b5b0217905550565b600081600160003373ffffffffffffffffffffffffffffffffffffffff1673ffffffffffffffffffffffffffffffffffffffff16815260200190815260200160002081905550600160003373ffffffffffffffffffffffffffffffffffffffff1673ffffffffffffffffffffffffffffffffffffffff168152602001908152602001600020549050919050565b60016020528060005260406000206000915090505481565b7f4e487b7100000000000000000000000000000000000000000000000000000000600052602160045260246000fd5b60038110610202576102016101c2565b5b50565b6000819050610213826101f1565b919050565b600061022382610205565b9050919050565b61023381610218565b82525050565b600060208201905061024e600083018461022a565b92915050565b600080fd5b6000819050919050565b61026c81610259565b811461027757600080fd5b50565b60008135905061028981610263565b92915050565b6000602082840312156102a5576102a4610254565b5b60006102b38482850161027a565b91505092915050565b6102c581610259565b82525050565b60006020820190506102e060008301846102bc565b92915050565b600073ffffffffffffffffffffffffffffffffffffffff82169050919050565b6000610311826102e6565b9050919050565b61032181610306565b811461032c57600080fd5b50565b60008135905061033e81610318565b92915050565b60006020828403121561035a57610359610254565b5b60006103688482850161032f565b9150509291505056fea26469706673582212205fabb67b7b211871b75043734dc51900c4f518aa94989493a9d20adb794fadcc64736f6c63430008080033",
					"opcodes": "PUSH1 0x80 PUSH1 0x40 MSTORE CALLVALUE DUP1 ISZERO PUSH2 0x10 JUMPI PUSH1 0x0 DUP1 REVERT JUMPDEST POP PUSH2 0x3A7 DUP1 PUSH2 0x20 PUSH1 0x0 CODECOPY PUSH1 0x0 RETURN INVALID PUSH1 0x80 PUSH1 0x40 MSTORE CALLVALUE DUP1 ISZERO PUSH2 0x10 JUMPI PUSH1 0x0 DUP1 REVERT JUMPDEST POP PUSH1 0x4 CALLDATASIZE LT PUSH2 0x4C JUMPI PUSH1 0x0 CALLDATALOAD PUSH1 0xE0 SHR DUP1 PUSH4 0x549CEEAA EQ PUSH2 0x51 JUMPI DUP1 PUSH4 0x75912369 EQ PUSH2 0x6F JUMPI DUP1 PUSH4 0xBA294767 EQ PUSH2 0x79 JUMPI DUP1 PUSH4 0xE011D145 EQ PUSH2 0xA9 JUMPI JUMPDEST PUSH1 0x0 DUP1 REVERT JUMPDEST PUSH2 0x59 PUSH2 0xD9 JUMP JUMPDEST PUSH1 0x40 MLOAD PUSH2 0x66 SWAP2 SWAP1 PUSH2 0x239 JUMP JUMPDEST PUSH1 0x40 MLOAD DUP1 SWAP2 SUB SWAP1 RETURN JUMPDEST PUSH2 0x77 PUSH2 0xF0 JUMP JUMPDEST STOP JUMPDEST PUSH2 0x93 PUSH1 0x4 DUP1 CALLDATASIZE SUB DUP2 ADD SWAP1 PUSH2 0x8E SWAP2 SWAP1 PUSH2 0x28F JUMP JUMPDEST PUSH2 0x11D JUMP JUMPDEST PUSH1 0x40 MLOAD PUSH2 0xA0 SWAP2 SWAP1 PUSH2 0x2CB JUMP JUMPDEST PUSH1 0x40 MLOAD DUP1 SWAP2 SUB SWAP1 RETURN JUMPDEST PUSH2 0xC3 PUSH1 0x4 DUP1 CALLDATASIZE SUB DUP2 ADD SWAP1 PUSH2 0xBE SWAP2 SWAP1 PUSH2 0x344 JUMP JUMPDEST PUSH2 0x1AA JUMP JUMPDEST PUSH1 0x40 MLOAD PUSH2 0xD0 SWAP2 SWAP1 PUSH2 0x2CB JUMP JUMPDEST PUSH1 0x40 MLOAD DUP1 SWAP2 SUB SWAP1 RETURN JUMPDEST PUSH1 0x0 PUSH1 0x2 PUSH1 0x0 SWAP1 SLOAD SWAP1 PUSH2 0x100 EXP SWAP1 DIV PUSH1 0xFF AND SWAP1 POP SWAP1 JUMP JUMPDEST PUSH1 0x1 PUSH1 0x2 PUSH1 0x0 PUSH2 0x100 EXP DUP2 SLOAD DUP2 PUSH1 0xFF MUL NOT AND SWAP1 DUP4 PUSH1 0x2 DUP2 GT ISZERO PUSH2 0x116 JUMPI PUSH2 0x115 PUSH2 0x1C2 JUMP JUMPDEST JUMPDEST MUL OR SWAP1 SSTORE POP JUMP JUMPDEST PUSH1 0x0 DUP2 PUSH1 0x1 PUSH1 0x0 CALLER PUSH20 0xFFFFFFFFFFFFFFFFFFFFFFFFFFFFFFFFFFFFFFFF AND PUSH20 0xFFFFFFFFFFFFFFFFFFFFFFFFFFFFFFFFFFFFFFFF AND DUP2 MSTORE PUSH1 0x20 ADD SWAP1 DUP2 MSTORE PUSH1 0x20 ADD PUSH1 0x0 KECCAK256 DUP2 SWAP1 SSTORE POP PUSH1 0x1 PUSH1 0x0 CALLER PUSH20 0xFFFFFFFFFFFFFFFFFFFFFFFFFFFFFFFFFFFFFFFF AND PUSH20 0xFFFFFFFFFFFFFFFFFFFFFFFFFFFFFFFFFFFFFFFF AND DUP2 MSTORE PUSH1 0x20 ADD SWAP1 DUP2 MSTORE PUSH1 0x20 ADD PUSH1 0x0 KECCAK256 SLOAD SWAP1 POP SWAP2 SWAP1 POP JUMP JUMPDEST PUSH1 0x1 PUSH1 0x20 MSTORE DUP1 PUSH1 0x0 MSTORE PUSH1 0x40 PUSH1 0x0 KECCAK256 PUSH1 0x0 SWAP2 POP SWAP1 POP SLOAD DUP2 JUMP JUMPDEST PUSH32 0x4E487B7100000000000000000000000000000000000000000000000000000000 PUSH1 0x0 MSTORE PUSH1 0x21 PUSH1 0x4 MSTORE PUSH1 0x24 PUSH1 0x0 REVERT JUMPDEST PUSH1 0x3 DUP2 LT PUSH2 0x202 JUMPI PUSH2 0x201 PUSH2 0x1C2 JUMP JUMPDEST JUMPDEST POP JUMP JUMPDEST PUSH1 0x0 DUP2 SWAP1 POP PUSH2 0x213 DUP3 PUSH2 0x1F1 JUMP JUMPDEST SWAP2 SWAP1 POP JUMP JUMPDEST PUSH1 0x0 PUSH2 0x223 DUP3 PUSH2 0x205 JUMP JUMPDEST SWAP1 POP SWAP2 SWAP1 POP JUMP JUMPDEST PUSH2 0x233 DUP2 PUSH2 0x218 JUMP JUMPDEST DUP3 MSTORE POP POP JUMP JUMPDEST PUSH1 0x0 PUSH1 0x20 DUP3 ADD SWAP1 POP PUSH2 0x24E PUSH1 0x0 DUP4 ADD DUP5 PUSH2 0x22A JUMP JUMPDEST SWAP3 SWAP2 POP POP JUMP JUMPDEST PUSH1 0x0 DUP1 REVERT JUMPDEST PUSH1 0x0 DUP2 SWAP1 POP SWAP2 SWAP1 POP JUMP JUMPDEST PUSH2 0x26C DUP2 PUSH2 0x259 JUMP JUMPDEST DUP2 EQ PUSH2 0x277 JUMPI PUSH1 0x0 DUP1 REVERT JUMPDEST POP JUMP JUMPDEST PUSH1 0x0 DUP2 CALLDATALOAD SWAP1 POP PUSH2 0x289 DUP2 PUSH2 0x263 JUMP JUMPDEST SWAP3 SWAP2 POP POP JUMP JUMPDEST PUSH1 0x0 PUSH1 0x20 DUP3 DUP5 SUB SLT ISZERO PUSH2 0x2A5 JUMPI PUSH2 0x2A4 PUSH2 0x254 JUMP JUMPDEST JUMPDEST PUSH1 0x0 PUSH2 0x2B3 DUP5 DUP3 DUP6 ADD PUSH2 0x27A JUMP JUMPDEST SWAP2 POP POP SWAP3 SWAP2 POP POP JUMP JUMPDEST PUSH2 0x2C5 DUP2 PUSH2 0x259 JUMP JUMPDEST DUP3 MSTORE POP POP JUMP JUMPDEST PUSH1 0x0 PUSH1 0x20 DUP3 ADD SWAP1 POP PUSH2 0x2E0 PUSH1 0x0 DUP4 ADD DUP5 PUSH2 0x2BC JUMP JUMPDEST SWAP3 SWAP2 POP POP JUMP JUMPDEST PUSH1 0x0 PUSH20 0xFFFFFFFFFFFFFFFFFFFFFFFFFFFFFFFFFFFFFFFF DUP3 AND SWAP1 POP SWAP2 SWAP1 POP JUMP JUMPDEST PUSH1 0x0 PUSH2 0x311 DUP3 PUSH2 0x2E6 JUMP JUMPDEST SWAP1 POP SWAP2 SWAP1 POP JUMP JUMPDEST PUSH2 0x321 DUP2 PUSH2 0x306 JUMP JUMPDEST DUP2 EQ PUSH2 0x32C JUMPI PUSH1 0x0 DUP1 REVERT JUMPDEST POP JUMP JUMPDEST PUSH1 0x0 DUP2 CALLDATALOAD SWAP1 POP PUSH2 0x33E DUP2 PUSH2 0x318 JUMP JUMPDEST SWAP3 SWAP2 POP POP JUMP JUMPDEST PUSH1 0x0 PUSH1 0x20 DUP3 DUP5 SUB SLT ISZERO PUSH2 0x35A JUMPI PUSH2 0x359 PUSH2 0x254 JUMP JUMPDEST JUMPDEST PUSH1 0x0 PUSH2 0x368 DUP5 DUP3 DUP6 ADD PUSH2 0x32F JUMP JUMPDEST SWAP2 POP POP SWAP3 SWAP2 POP POP JUMP INVALID LOG2 PUSH5 0x6970667358 0x22 SLT KECCAK256 0x5F 0xAB 0xB6 PUSH28 0x7B211871B75043734DC51900C4F518AA94989493A9D20ADB794FADCC PUSH5 0x736F6C6343 STOP ADDMOD ADDMOD STOP CALLER "
				},
				"gasEstimates": {
					"creation": {
						"codeDepositCost": "187000",
						"executionCost": "232",
						"totalCost": "187232"
					},
					"external": {
						"addressToNum(address)": "2858",
						"getCurse()": "2546",
						"getUNBA(uint256)": "infinite",
						"set1()": "24431"
					}
				},
				"methodIdentifiers": {
					"addressToNum(address)": "e011d145",
					"getCurse()": "549ceeaa",
					"getUNBA(uint256)": "ba294767",
					"set1()": "75912369"
				}
			},
			"storageLayout": {
				"storage": [
					{
						"astId": 3,
						"contract": "contracts/Shop9fy.sol:SeulAot",
						"label": "monNumero",
						"offset": 0,
						"slot": "0",
						"type": "t_uint256"
					},
					{
						"astId": 7,
						"contract": "contracts/Shop9fy.sol:SeulAot",
						"label": "addressToNum",
						"offset": 0,
						"slot": "1",
						"type": "t_mapping(t_address,t_uint256)"
					},
					{
						"astId": 14,
						"contract": "contracts/Shop9fy.sol:SeulAot",
						"label": "currentChoice",
						"offset": 0,
						"slot": "2",
						"type": "t_enum(bNCurse)11"
					}
				],
				"types": {
					"t_address": {
						"encoding": "inplace",
						"label": "address",
						"numberOfBytes": "20"
					},
					"t_enum(bNCurse)11": {
						"encoding": "inplace",
						"label": "enum SeulAot.bNCurse",
						"numberOfBytes": "1"
					},
					"t_mapping(t_address,t_uint256)": {
						"encoding": "mapping",
						"key": "t_address",
						"label": "mapping(address => uint256)",
						"numberOfBytes": "32",
						"value": "t_uint256"
					},
					"t_uint256": {
						"encoding": "inplace",
						"label": "uint256",
						"numberOfBytes": "32"
					}
				}
			},
			"userdoc": {
				"kind": "user",
				"methods": {},
				"version": 1
			}
		}
	}
}