{
	"contracts/FundMe.sol": {
		"FundMe": {
			"abi": [
				{
					"inputs": [],
					"stateMutability": "nonpayable",
					"type": "constructor"
				},
				{
					"inputs": [],
					"name": "NotOwner",
					"type": "error"
				},
				{
					"stateMutability": "payable",
					"type": "fallback"
				},
				{
					"inputs": [],
					"name": "MINIMUM_USD",
					"outputs": [
						{
							"internalType": "uint256",
							"name": "",
							"type": "uint256"
						}
					],
					"stateMutability": "view",
					"type": "function"
				},
				{
					"inputs": [
						{
							"internalType": "address",
							"name": "",
							"type": "address"
						}
					],
					"name": "adressToAmountFunded",
					"outputs": [
						{
							"internalType": "uint256",
							"name": "",
							"type": "uint256"
						}
					],
					"stateMutability": "view",
					"type": "function"
				},
				{
					"inputs": [],
					"name": "fund",
					"outputs": [],
					"stateMutability": "payable",
					"type": "function"
				},
				{
					"inputs": [
						{
							"internalType": "uint256",
							"name": "",
							"type": "uint256"
						}
					],
					"name": "funders",
					"outputs": [
						{
							"internalType": "address",
							"name": "",
							"type": "address"
						}
					],
					"stateMutability": "view",
					"type": "function"
				},
				{
					"inputs": [],
					"name": "getVersion",
					"outputs": [
						{
							"internalType": "uint256",
							"name": "",
							"type": "uint256"
						}
					],
					"stateMutability": "view",
					"type": "function"
				},
				{
					"inputs": [],
					"name": "i_owner",
					"outputs": [
						{
							"internalType": "address",
							"name": "",
							"type": "address"
						}
					],
					"stateMutability": "view",
					"type": "function"
				},
				{
					"inputs": [],
					"name": "withdraw",
					"outputs": [],
					"stateMutability": "payable",
					"type": "function"
				},
				{
					"stateMutability": "payable",
					"type": "receive"
				}
			],
			"devdoc": {
				"kind": "dev",
				"methods": {},
				"version": 1
			},
			"evm": {
				"assembly": "    /* \"contracts/FundMe.sol\":187:1444  contract FundMe {... */\n  mstore(0x40, 0x80)\n    /* \"contracts/FundMe.sol\":505:555  constructor(){... */\n  callvalue\n  dup1\n  iszero\n  tag_1\n  jumpi\n  0x00\n  dup1\n  revert\ntag_1:\n  pop\n    /* \"contracts/FundMe.sol\":538:548  msg.sender */\n  caller\n    /* \"contracts/FundMe.sol\":528:535  i_owner */\n  0x02\n  0x00\n    /* \"contracts/FundMe.sol\":528:548  i_owner = msg.sender */\n  0x0100\n  exp\n  dup2\n  sload\n  dup2\n  0xffffffffffffffffffffffffffffffffffffffff\n  mul\n  not\n  and\n  swap1\n  dup4\n  0xffffffffffffffffffffffffffffffffffffffff\n  and\n  mul\n  or\n  swap1\n  sstore\n  pop\n    /* \"contracts/FundMe.sol\":187:1444  contract FundMe {... */\n  dataSize(sub_0)\n  dup1\n  dataOffset(sub_0)\n  0x00\n  codecopy\n  0x00\n  return\nstop\n\nsub_0: assembly {\n        /* \"contracts/FundMe.sol\":187:1444  contract FundMe {... */\n      mstore(0x40, 0x80)\n      jumpi(tag_1, lt(calldatasize, 0x04))\n      shr(0xe0, calldataload(0x00))\n      dup1\n      0x6b69a592\n      gt\n      tag_10\n      jumpi\n      dup1\n      0x6b69a592\n      eq\n      tag_6\n      jumpi\n      dup1\n      0xb60d4288\n      eq\n      tag_7\n      jumpi\n      dup1\n      0xdba6335f\n      eq\n      tag_8\n      jumpi\n      dup1\n      0xdc0d3dff\n      eq\n      tag_9\n      jumpi\n      jump(tag_2)\n    tag_10:\n      dup1\n      0x0d8e6e2c\n      eq\n      tag_3\n      jumpi\n      dup1\n      0x3ccfd60b\n      eq\n      tag_4\n      jumpi\n      dup1\n      0x55f2a7d5\n      eq\n      tag_5\n      jumpi\n      jump(tag_2)\n    tag_1:\n      jumpi(tag_2, calldatasize)\n        /* \"contracts/FundMe.sol\":1428:1434  fund() */\n      tag_13\n        /* \"contracts/FundMe.sol\":1428:1432  fund */\n      tag_14\n        /* \"contracts/FundMe.sol\":1428:1434  fund() */\n      jump\t// in\n    tag_13:\n        /* \"contracts/FundMe.sol\":187:1444  contract FundMe {... */\n      stop\n    tag_2:\n        /* \"contracts/FundMe.sol\":1372:1378  fund() */\n      tag_17\n        /* \"contracts/FundMe.sol\":1372:1376  fund */\n      tag_14\n        /* \"contracts/FundMe.sol\":1372:1378  fund() */\n      jump\t// in\n    tag_17:\n        /* \"contracts/FundMe.sol\":187:1444  contract FundMe {... */\n      stop\n        /* \"contracts/FundMe.sol\":784:987  function getVersion() public view returns (uint256){... */\n    tag_3:\n      callvalue\n      dup1\n      iszero\n      tag_18\n      jumpi\n      0x00\n      dup1\n      revert\n    tag_18:\n      pop\n      tag_19\n      tag_20\n      jump\t// in\n    tag_19:\n      mload(0x40)\n      tag_21\n      swap2\n      swap1\n      tag_22\n      jump\t// in\n    tag_21:\n      mload(0x40)\n      dup1\n      swap2\n      sub\n      swap1\n      return\n        /* \"contracts/FundMe.sol\":1088:1328  function withdraw() payable onlyOwner public{... */\n    tag_4:\n      tag_23\n      tag_24\n      jump\t// in\n    tag_23:\n      stop\n        /* \"contracts/FundMe.sol\":248:303  mapping(address => uint256) public adressToAmountFunded */\n    tag_5:\n      callvalue\n      dup1\n      iszero\n      tag_25\n      jumpi\n      0x00\n      dup1\n      revert\n    tag_25:\n      pop\n      tag_26\n      0x04\n      dup1\n      calldatasize\n      sub\n      dup2\n      add\n      swap1\n      tag_27\n      swap2\n      swap1\n      tag_28\n      jump\t// in\n    tag_27:\n      tag_29\n      jump\t// in\n    tag_26:\n      mload(0x40)\n      tag_30\n      swap2\n      swap1\n      tag_22\n      jump\t// in\n    tag_30:\n      mload(0x40)\n      dup1\n      swap2\n      sub\n      swap1\n      return\n        /* \"contracts/FundMe.sol\":452:494  uint256 public constant MINIMUM_USD = 5e18 */\n    tag_6:\n      callvalue\n      dup1\n      iszero\n      tag_31\n      jumpi\n      0x00\n      dup1\n      revert\n    tag_31:\n      pop\n      tag_32\n      tag_33\n      jump\t// in\n    tag_32:\n      mload(0x40)\n      tag_34\n      swap2\n      swap1\n      tag_22\n      jump\t// in\n    tag_34:\n      mload(0x40)\n      dup1\n      swap2\n      sub\n      swap1\n      return\n        /* \"contracts/FundMe.sol\":561:774  function fund()public payable{... */\n    tag_7:\n      tag_35\n      tag_14\n      jump\t// in\n    tag_35:\n      stop\n        /* \"contracts/FundMe.sol\":349:387  address public /* immutable */ i_owner */\n    tag_8:\n      callvalue\n      dup1\n      iszero\n      tag_36\n      jumpi\n      0x00\n      dup1\n      revert\n    tag_36:\n      pop\n      tag_37\n      tag_38\n      jump\t// in\n    tag_37:\n      mload(0x40)\n      tag_39\n      swap2\n      swap1\n      tag_40\n      jump\t// in\n    tag_39:\n      mload(0x40)\n      dup1\n      swap2\n      sub\n      swap1\n      return\n        /* \"contracts/FundMe.sol\":314:338  address[] public funders */\n    tag_9:\n      callvalue\n      dup1\n      iszero\n      tag_41\n      jumpi\n      0x00\n      dup1\n      revert\n    tag_41:\n      pop\n      tag_42\n      0x04\n      dup1\n      calldatasize\n      sub\n      dup2\n      add\n      swap1\n      tag_43\n      swap2\n      swap1\n      tag_44\n      jump\t// in\n    tag_43:\n      tag_45\n      jump\t// in\n    tag_42:\n      mload(0x40)\n      tag_46\n      swap2\n      swap1\n      tag_40\n      jump\t// in\n    tag_46:\n      mload(0x40)\n      dup1\n      swap2\n      sub\n      swap1\n      return\n        /* \"contracts/FundMe.sol\":561:774  function fund()public payable{... */\n    tag_14:\n        /* \"contracts/FundMe.sol\":490:494  5e18 */\n      0x4563918244f40000\n        /* \"contracts/FundMe.sol\":608:637  msg.value.getConversionRate() */\n      tag_48\n        /* \"contracts/FundMe.sol\":608:617  msg.value */\n      callvalue\n        /* \"contracts/FundMe.sol\":608:635  msg.value.getConversionRate */\n      tag_49\n        /* \"contracts/FundMe.sol\":608:637  msg.value.getConversionRate() */\n      jump\t// in\n    tag_48:\n        /* \"contracts/FundMe.sol\":608:652  msg.value.getConversionRate() >= MINIMUM_USD */\n      lt\n      iszero\n        /* \"contracts/FundMe.sol\":600:676  require(msg.value.getConversionRate() >= MINIMUM_USD,\"NOT ENOUGH ETH SPENT\") */\n      tag_50\n      jumpi\n      mload(0x40)\n      0x08c379a000000000000000000000000000000000000000000000000000000000\n      dup2\n      mstore\n      0x04\n      add\n      tag_51\n      swap1\n      tag_52\n      jump\t// in\n    tag_51:\n      mload(0x40)\n      dup1\n      swap2\n      sub\n      swap1\n      revert\n    tag_50:\n        /* \"contracts/FundMe.sol\":723:732  msg.value */\n      callvalue\n        /* \"contracts/FundMe.sol\":687:707  adressToAmountFunded */\n      0x00\n        /* \"contracts/FundMe.sol\":687:719  adressToAmountFunded[msg.sender] */\n      dup1\n        /* \"contracts/FundMe.sol\":708:718  msg.sender */\n      caller\n        /* \"contracts/FundMe.sol\":687:719  adressToAmountFunded[msg.sender] */\n      0xffffffffffffffffffffffffffffffffffffffff\n      and\n      0xffffffffffffffffffffffffffffffffffffffff\n      and\n      dup2\n      mstore\n      0x20\n      add\n      swap1\n      dup2\n      mstore\n      0x20\n      add\n      0x00\n      keccak256\n      0x00\n        /* \"contracts/FundMe.sol\":687:732  adressToAmountFunded[msg.sender] += msg.value */\n      dup3\n      dup3\n      sload\n      tag_53\n      swap2\n      swap1\n      tag_54\n      jump\t// in\n    tag_53:\n      swap3\n      pop\n      pop\n      dup2\n      swap1\n      sstore\n      pop\n        /* \"contracts/FundMe.sol\":742:749  funders */\n      0x01\n        /* \"contracts/FundMe.sol\":755:765  msg.sender */\n      caller\n        /* \"contracts/FundMe.sol\":742:766  funders.push(msg.sender) */\n      swap1\n      dup1\n      0x01\n      dup2\n      sload\n      add\n      dup1\n      dup3\n      sstore\n      dup1\n      swap2\n      pop\n      pop\n      0x01\n      swap1\n      sub\n      swap1\n      0x00\n      mstore\n      keccak256(0x00, 0x20)\n      add\n      0x00\n      swap1\n      swap2\n      swap1\n      swap2\n      swap1\n      swap2\n      0x0100\n      exp\n      dup2\n      sload\n      dup2\n      0xffffffffffffffffffffffffffffffffffffffff\n      mul\n      not\n      and\n      swap1\n      dup4\n      0xffffffffffffffffffffffffffffffffffffffff\n      and\n      mul\n      or\n      swap1\n      sstore\n      pop\n        /* \"contracts/FundMe.sol\":561:774  function fund()public payable{... */\n      jump\t// out\n        /* \"contracts/FundMe.sol\":784:987  function getVersion() public view returns (uint256){... */\n    tag_20:\n        /* \"contracts/FundMe.sol\":827:834  uint256 */\n      0x00\n        /* \"contracts/FundMe.sol\":845:876  AggregatorV3Interface priceFeed */\n      dup1\n        /* \"contracts/FundMe.sol\":901:943  0x8A753747A1Fa494EC906cE90E9f37563A8AF630e */\n      0x8a753747a1fa494ec906ce90e9f37563a8af630e\n        /* \"contracts/FundMe.sol\":845:944  AggregatorV3Interface priceFeed = AggregatorV3Interface(0x8A753747A1Fa494EC906cE90E9f37563A8AF630e) */\n      swap1\n      pop\n        /* \"contracts/FundMe.sol\":961:970  priceFeed */\n      dup1\n        /* \"contracts/FundMe.sol\":961:978  priceFeed.version */\n      0xffffffffffffffffffffffffffffffffffffffff\n      and\n      0x54fd4d50\n        /* \"contracts/FundMe.sol\":961:980  priceFeed.version() */\n      mload(0x40)\n      dup2\n      0xffffffff\n      and\n      0xe0\n      shl\n      dup2\n      mstore\n      0x04\n      add\n      0x20\n      mload(0x40)\n      dup1\n      dup4\n      sub\n      dup2\n      dup7\n      dup1\n      extcodesize\n      iszero\n      dup1\n      iszero\n      tag_57\n      jumpi\n      0x00\n      dup1\n      revert\n    tag_57:\n      pop\n      gas\n      staticcall\n      iszero\n      dup1\n      iszero\n      tag_59\n      jumpi\n      returndatasize\n      0x00\n      dup1\n      returndatacopy\n      revert(0x00, returndatasize)\n    tag_59:\n      pop\n      pop\n      pop\n      pop\n      mload(0x40)\n      returndatasize\n      not(0x1f)\n      0x1f\n      dup3\n      add\n      and\n      dup3\n      add\n      dup1\n      0x40\n      mstore\n      pop\n      dup2\n      add\n      swap1\n      tag_60\n      swap2\n      swap1\n      tag_61\n      jump\t// in\n    tag_60:\n        /* \"contracts/FundMe.sol\":954:980  return priceFeed.version() */\n      swap2\n      pop\n      pop\n        /* \"contracts/FundMe.sol\":784:987  function getVersion() public view returns (uint256){... */\n      swap1\n      jump\t// out\n        /* \"contracts/FundMe.sol\":1088:1328  function withdraw() payable onlyOwner public{... */\n    tag_24:\n        /* \"contracts/FundMe.sol\":1038:1045  i_owner */\n      0x02\n      0x00\n      swap1\n      sload\n      swap1\n      0x0100\n      exp\n      swap1\n      div\n      0xffffffffffffffffffffffffffffffffffffffff\n      and\n        /* \"contracts/FundMe.sol\":1024:1045  msg.sender != i_owner */\n      0xffffffffffffffffffffffffffffffffffffffff\n      and\n        /* \"contracts/FundMe.sol\":1024:1034  msg.sender */\n      caller\n        /* \"contracts/FundMe.sol\":1024:1045  msg.sender != i_owner */\n      0xffffffffffffffffffffffffffffffffffffffff\n      and\n      eq\n        /* \"contracts/FundMe.sol\":1021:1064  if(msg.sender != i_owner) revert NotOwner() */\n      tag_63\n      jumpi\n        /* \"contracts/FundMe.sol\":1054:1064  NotOwner() */\n      mload(0x40)\n      0x30cd747100000000000000000000000000000000000000000000000000000000\n      dup2\n      mstore\n      0x04\n      add\n      mload(0x40)\n      dup1\n      swap2\n      sub\n      swap1\n      revert\n        /* \"contracts/FundMe.sol\":1021:1064  if(msg.sender != i_owner) revert NotOwner() */\n    tag_63:\n        /* \"contracts/FundMe.sol\":1147:1166  uint256 funderIndex */\n      0x00\n        /* \"contracts/FundMe.sol\":1142:1322  for (uint256 funderIndex=0; funderIndex < funders.length; funderIndex++){... */\n    tag_65:\n        /* \"contracts/FundMe.sol\":1184:1191  funders */\n      0x01\n        /* \"contracts/FundMe.sol\":1184:1198  funders.length */\n      dup1\n      sload\n      swap1\n      pop\n        /* \"contracts/FundMe.sol\":1170:1181  funderIndex */\n      dup2\n        /* \"contracts/FundMe.sol\":1170:1198  funderIndex < funders.length */\n      lt\n        /* \"contracts/FundMe.sol\":1142:1322  for (uint256 funderIndex=0; funderIndex < funders.length; funderIndex++){... */\n      iszero\n      tag_66\n      jumpi\n        /* \"contracts/FundMe.sol\":1228:1242  address funder */\n      0x00\n        /* \"contracts/FundMe.sol\":1245:1252  funders */\n      0x01\n        /* \"contracts/FundMe.sol\":1253:1264  funderIndex */\n      dup3\n        /* \"contracts/FundMe.sol\":1245:1265  funders[funderIndex] */\n      dup2\n      sload\n      dup2\n      lt\n      tag_68\n      jumpi\n      tag_69\n      tag_70\n      jump\t// in\n    tag_69:\n    tag_68:\n      swap1\n      0x00\n      mstore\n      keccak256(0x00, 0x20)\n      add\n      0x00\n      swap1\n      sload\n      swap1\n      0x0100\n      exp\n      swap1\n      div\n      0xffffffffffffffffffffffffffffffffffffffff\n      and\n        /* \"contracts/FundMe.sol\":1228:1265  address funder = funders[funderIndex] */\n      swap1\n      pop\n        /* \"contracts/FundMe.sol\":1310:1311  0 */\n      0x00\n        /* \"contracts/FundMe.sol\":1279:1299  adressToAmountFunded */\n      dup1\n        /* \"contracts/FundMe.sol\":1279:1307  adressToAmountFunded[funder] */\n      0x00\n        /* \"contracts/FundMe.sol\":1300:1306  funder */\n      dup4\n        /* \"contracts/FundMe.sol\":1279:1307  adressToAmountFunded[funder] */\n      0xffffffffffffffffffffffffffffffffffffffff\n      and\n      0xffffffffffffffffffffffffffffffffffffffff\n      and\n      dup2\n      mstore\n      0x20\n      add\n      swap1\n      dup2\n      mstore\n      0x20\n      add\n      0x00\n      keccak256\n        /* \"contracts/FundMe.sol\":1279:1311  adressToAmountFunded[funder] = 0 */\n      dup2\n      swap1\n      sstore\n      pop\n        /* \"contracts/FundMe.sol\":1214:1322  {... */\n      pop\n        /* \"contracts/FundMe.sol\":1200:1213  funderIndex++ */\n      dup1\n      dup1\n      tag_72\n      swap1\n      tag_73\n      jump\t// in\n    tag_72:\n      swap2\n      pop\n      pop\n        /* \"contracts/FundMe.sol\":1142:1322  for (uint256 funderIndex=0; funderIndex < funders.length; funderIndex++){... */\n      jump(tag_65)\n    tag_66:\n      pop\n        /* \"contracts/FundMe.sol\":1088:1328  function withdraw() payable onlyOwner public{... */\n      jump\t// out\n        /* \"contracts/FundMe.sol\":248:303  mapping(address => uint256) public adressToAmountFunded */\n    tag_29:\n      mstore(0x20, 0x00)\n      dup1\n      0x00\n      mstore\n      keccak256(0x00, 0x40)\n      0x00\n      swap2\n      pop\n      swap1\n      pop\n      sload\n      dup2\n      jump\t// out\n        /* \"contracts/FundMe.sol\":452:494  uint256 public constant MINIMUM_USD = 5e18 */\n    tag_33:\n        /* \"contracts/FundMe.sol\":490:494  5e18 */\n      0x4563918244f40000\n        /* \"contracts/FundMe.sol\":452:494  uint256 public constant MINIMUM_USD = 5e18 */\n      dup2\n      jump\t// out\n        /* \"contracts/FundMe.sol\":349:387  address public /* immutable */ i_owner */\n    tag_38:\n      0x02\n      0x00\n      swap1\n      sload\n      swap1\n      0x0100\n      exp\n      swap1\n      div\n      0xffffffffffffffffffffffffffffffffffffffff\n      and\n      dup2\n      jump\t// out\n        /* \"contracts/FundMe.sol\":314:338  address[] public funders */\n    tag_45:\n      0x01\n      dup2\n      dup2\n      sload\n      dup2\n      lt\n      tag_74\n      jumpi\n      0x00\n      dup1\n      revert\n    tag_74:\n      swap1\n      0x00\n      mstore\n      keccak256(0x00, 0x20)\n      add\n      0x00\n      swap2\n      pop\n      sload\n      swap1\n      0x0100\n      exp\n      swap1\n      div\n      0xffffffffffffffffffffffffffffffffffffffff\n      and\n      dup2\n      jump\t// out\n        /* \"contracts/PriceConventer.sol\":754:1093  function getConversionRate(uint256 ethAmount)... */\n    tag_49:\n        /* \"contracts/PriceConventer.sol\":847:854  uint256 */\n      0x00\n        /* \"contracts/PriceConventer.sol\":870:886  uint256 ethPrice */\n      dup1\n        /* \"contracts/PriceConventer.sol\":889:899  getPrice() */\n      tag_77\n        /* \"contracts/PriceConventer.sol\":889:897  getPrice */\n      tag_78\n        /* \"contracts/PriceConventer.sol\":889:899  getPrice() */\n      jump\t// in\n    tag_77:\n        /* \"contracts/PriceConventer.sol\":870:899  uint256 ethPrice = getPrice() */\n      swap1\n      pop\n        /* \"contracts/PriceConventer.sol\":909:931  uint256 ethAmountInUsd */\n      0x00\n        /* \"contracts/PriceConventer.sol\":959:978  1000000000000000000 */\n      0x0de0b6b3a7640000\n        /* \"contracts/PriceConventer.sol\":946:955  ethAmount */\n      dup5\n        /* \"contracts/PriceConventer.sol\":935:943  ethPrice */\n      dup4\n        /* \"contracts/PriceConventer.sol\":935:955  ethPrice * ethAmount */\n      tag_79\n      swap2\n      swap1\n      tag_80\n      jump\t// in\n    tag_79:\n        /* \"contracts/PriceConventer.sol\":934:978  (ethPrice * ethAmount) / 1000000000000000000 */\n      tag_81\n      swap2\n      swap1\n      tag_82\n      jump\t// in\n    tag_81:\n        /* \"contracts/PriceConventer.sol\":909:978  uint256 ethAmountInUsd = (ethPrice * ethAmount) / 1000000000000000000 */\n      swap1\n      pop\n        /* \"contracts/PriceConventer.sol\":1072:1086  ethAmountInUsd */\n      dup1\n        /* \"contracts/PriceConventer.sol\":1065:1086  return ethAmountInUsd */\n      swap3\n      pop\n      pop\n      pop\n        /* \"contracts/PriceConventer.sol\":754:1093  function getConversionRate(uint256 ethAmount)... */\n      swap2\n      swap1\n      pop\n      jump\t// out\n        /* \"contracts/PriceConventer.sol\":298:730  function getPrice() internal view returns (uint256) {... */\n    tag_78:\n        /* \"contracts/PriceConventer.sol\":341:348  uint256 */\n      0x00\n        /* \"contracts/PriceConventer.sol\":457:488  AggregatorV3Interface priceFeed */\n      dup1\n        /* \"contracts/PriceConventer.sol\":526:568  0x8A753747A1Fa494EC906cE90E9f37563A8AF630e */\n      0x8a753747a1fa494ec906ce90e9f37563a8af630e\n        /* \"contracts/PriceConventer.sol\":457:578  AggregatorV3Interface priceFeed = AggregatorV3Interface(... */\n      swap1\n      pop\n        /* \"contracts/PriceConventer.sol\":591:604  int256 answer */\n      0x00\n        /* \"contracts/PriceConventer.sol\":614:623  priceFeed */\n      dup2\n        /* \"contracts/PriceConventer.sol\":614:639  priceFeed.latestRoundData */\n      0xffffffffffffffffffffffffffffffffffffffff\n      and\n      0xfeaf968c\n        /* \"contracts/PriceConventer.sol\":614:641  priceFeed.latestRoundData() */\n      mload(0x40)\n      dup2\n      0xffffffff\n      and\n      0xe0\n      shl\n      dup2\n      mstore\n      0x04\n      add\n      0xa0\n      mload(0x40)\n      dup1\n      dup4\n      sub\n      dup2\n      dup7\n      dup1\n      extcodesize\n      iszero\n      dup1\n      iszero\n      tag_84\n      jumpi\n      0x00\n      dup1\n      revert\n    tag_84:\n      pop\n      gas\n      staticcall\n      iszero\n      dup1\n      iszero\n      tag_86\n      jumpi\n      returndatasize\n      0x00\n      dup1\n      returndatacopy\n      revert(0x00, returndatasize)\n    tag_86:\n      pop\n      pop\n      pop\n      pop\n      mload(0x40)\n      returndatasize\n      not(0x1f)\n      0x1f\n      dup3\n      add\n      and\n      dup3\n      add\n      dup1\n      0x40\n      mstore\n      pop\n      dup2\n      add\n      swap1\n      tag_87\n      swap2\n      swap1\n      tag_88\n      jump\t// in\n    tag_87:\n        /* \"contracts/PriceConventer.sol\":588:641  (, int256 answer, , , ) = priceFeed.latestRoundData() */\n      pop\n      pop\n      pop\n      swap2\n      pop\n      pop\n        /* \"contracts/PriceConventer.sol\":711:722  10000000000 */\n      0x02540be400\n        /* \"contracts/PriceConventer.sol\":702:708  answer */\n      dup2\n        /* \"contracts/PriceConventer.sol\":702:722  answer * 10000000000 */\n      tag_89\n      swap2\n      swap1\n      tag_90\n      jump\t// in\n    tag_89:\n        /* \"contracts/PriceConventer.sol\":687:723  return uint256(answer * 10000000000) */\n      swap3\n      pop\n      pop\n      pop\n        /* \"contracts/PriceConventer.sol\":298:730  function getPrice() internal view returns (uint256) {... */\n      swap1\n      jump\t// out\n        /* \"#utility.yul\":7:84   */\n    tag_91:\n        /* \"#utility.yul\":44:51   */\n      0x00\n        /* \"#utility.yul\":73:78   */\n      dup2\n        /* \"#utility.yul\":62:78   */\n      swap1\n      pop\n        /* \"#utility.yul\":7:84   */\n      swap2\n      swap1\n      pop\n      jump\t// out\n        /* \"#utility.yul\":90:208   */\n    tag_92:\n        /* \"#utility.yul\":177:201   */\n      tag_118\n        /* \"#utility.yul\":195:200   */\n      dup2\n        /* \"#utility.yul\":177:201   */\n      tag_91\n      jump\t// in\n    tag_118:\n        /* \"#utility.yul\":172:175   */\n      dup3\n        /* \"#utility.yul\":165:202   */\n      mstore\n        /* \"#utility.yul\":90:208   */\n      pop\n      pop\n      jump\t// out\n        /* \"#utility.yul\":214:436   */\n    tag_22:\n        /* \"#utility.yul\":307:311   */\n      0x00\n        /* \"#utility.yul\":345:347   */\n      0x20\n        /* \"#utility.yul\":334:343   */\n      dup3\n        /* \"#utility.yul\":330:348   */\n      add\n        /* \"#utility.yul\":322:348   */\n      swap1\n      pop\n        /* \"#utility.yul\":358:429   */\n      tag_120\n        /* \"#utility.yul\":426:427   */\n      0x00\n        /* \"#utility.yul\":415:424   */\n      dup4\n        /* \"#utility.yul\":411:428   */\n      add\n        /* \"#utility.yul\":402:408   */\n      dup5\n        /* \"#utility.yul\":358:429   */\n      tag_92\n      jump\t// in\n    tag_120:\n        /* \"#utility.yul\":214:436   */\n      swap3\n      swap2\n      pop\n      pop\n      jump\t// out\n        /* \"#utility.yul\":523:640   */\n    tag_94:\n        /* \"#utility.yul\":632:633   */\n      0x00\n        /* \"#utility.yul\":629:630   */\n      dup1\n        /* \"#utility.yul\":622:634   */\n      revert\n        /* \"#utility.yul\":769:895   */\n    tag_96:\n        /* \"#utility.yul\":806:813   */\n      0x00\n        /* \"#utility.yul\":846:888   */\n      0xffffffffffffffffffffffffffffffffffffffff\n        /* \"#utility.yul\":839:844   */\n      dup3\n        /* \"#utility.yul\":835:889   */\n      and\n        /* \"#utility.yul\":824:889   */\n      swap1\n      pop\n        /* \"#utility.yul\":769:895   */\n      swap2\n      swap1\n      pop\n      jump\t// out\n        /* \"#utility.yul\":901:997   */\n    tag_97:\n        /* \"#utility.yul\":938:945   */\n      0x00\n        /* \"#utility.yul\":967:991   */\n      tag_126\n        /* \"#utility.yul\":985:990   */\n      dup3\n        /* \"#utility.yul\":967:991   */\n      tag_96\n      jump\t// in\n    tag_126:\n        /* \"#utility.yul\":956:991   */\n      swap1\n      pop\n        /* \"#utility.yul\":901:997   */\n      swap2\n      swap1\n      pop\n      jump\t// out\n        /* \"#utility.yul\":1003:1125   */\n    tag_98:\n        /* \"#utility.yul\":1076:1100   */\n      tag_128\n        /* \"#utility.yul\":1094:1099   */\n      dup2\n        /* \"#utility.yul\":1076:1100   */\n      tag_97\n      jump\t// in\n    tag_128:\n        /* \"#utility.yul\":1069:1074   */\n      dup2\n        /* \"#utility.yul\":1066:1101   */\n      eq\n        /* \"#utility.yul\":1056:1119   */\n      tag_129\n      jumpi\n        /* \"#utility.yul\":1115:1116   */\n      0x00\n        /* \"#utility.yul\":1112:1113   */\n      dup1\n        /* \"#utility.yul\":1105:1117   */\n      revert\n        /* \"#utility.yul\":1056:1119   */\n    tag_129:\n        /* \"#utility.yul\":1003:1125   */\n      pop\n      jump\t// out\n        /* \"#utility.yul\":1131:1270   */\n    tag_99:\n        /* \"#utility.yul\":1177:1182   */\n      0x00\n        /* \"#utility.yul\":1215:1221   */\n      dup2\n        /* \"#utility.yul\":1202:1222   */\n      calldataload\n        /* \"#utility.yul\":1193:1222   */\n      swap1\n      pop\n        /* \"#utility.yul\":1231:1264   */\n      tag_131\n        /* \"#utility.yul\":1258:1263   */\n      dup2\n        /* \"#utility.yul\":1231:1264   */\n      tag_98\n      jump\t// in\n    tag_131:\n        /* \"#utility.yul\":1131:1270   */\n      swap3\n      swap2\n      pop\n      pop\n      jump\t// out\n        /* \"#utility.yul\":1276:1605   */\n    tag_28:\n        /* \"#utility.yul\":1335:1341   */\n      0x00\n        /* \"#utility.yul\":1384:1386   */\n      0x20\n        /* \"#utility.yul\":1372:1381   */\n      dup3\n        /* \"#utility.yul\":1363:1370   */\n      dup5\n        /* \"#utility.yul\":1359:1382   */\n      sub\n        /* \"#utility.yul\":1355:1387   */\n      slt\n        /* \"#utility.yul\":1352:1471   */\n      iszero\n      tag_133\n      jumpi\n        /* \"#utility.yul\":1390:1469   */\n      tag_134\n      tag_94\n      jump\t// in\n    tag_134:\n        /* \"#utility.yul\":1352:1471   */\n    tag_133:\n        /* \"#utility.yul\":1510:1511   */\n      0x00\n        /* \"#utility.yul\":1535:1588   */\n      tag_135\n        /* \"#utility.yul\":1580:1587   */\n      dup5\n        /* \"#utility.yul\":1571:1577   */\n      dup3\n        /* \"#utility.yul\":1560:1569   */\n      dup6\n        /* \"#utility.yul\":1556:1578   */\n      add\n        /* \"#utility.yul\":1535:1588   */\n      tag_99\n      jump\t// in\n    tag_135:\n        /* \"#utility.yul\":1525:1588   */\n      swap2\n      pop\n        /* \"#utility.yul\":1481:1598   */\n      pop\n        /* \"#utility.yul\":1276:1605   */\n      swap3\n      swap2\n      pop\n      pop\n      jump\t// out\n        /* \"#utility.yul\":1611:1729   */\n    tag_100:\n        /* \"#utility.yul\":1698:1722   */\n      tag_137\n        /* \"#utility.yul\":1716:1721   */\n      dup2\n        /* \"#utility.yul\":1698:1722   */\n      tag_97\n      jump\t// in\n    tag_137:\n        /* \"#utility.yul\":1693:1696   */\n      dup3\n        /* \"#utility.yul\":1686:1723   */\n      mstore\n        /* \"#utility.yul\":1611:1729   */\n      pop\n      pop\n      jump\t// out\n        /* \"#utility.yul\":1735:1957   */\n    tag_40:\n        /* \"#utility.yul\":1828:1832   */\n      0x00\n        /* \"#utility.yul\":1866:1868   */\n      0x20\n        /* \"#utility.yul\":1855:1864   */\n      dup3\n        /* \"#utility.yul\":1851:1869   */\n      add\n        /* \"#utility.yul\":1843:1869   */\n      swap1\n      pop\n        /* \"#utility.yul\":1879:1950   */\n      tag_139\n        /* \"#utility.yul\":1947:1948   */\n      0x00\n        /* \"#utility.yul\":1936:1945   */\n      dup4\n        /* \"#utility.yul\":1932:1949   */\n      add\n        /* \"#utility.yul\":1923:1929   */\n      dup5\n        /* \"#utility.yul\":1879:1950   */\n      tag_100\n      jump\t// in\n    tag_139:\n        /* \"#utility.yul\":1735:1957   */\n      swap3\n      swap2\n      pop\n      pop\n      jump\t// out\n        /* \"#utility.yul\":1963:2085   */\n    tag_101:\n        /* \"#utility.yul\":2036:2060   */\n      tag_141\n        /* \"#utility.yul\":2054:2059   */\n      dup2\n        /* \"#utility.yul\":2036:2060   */\n      tag_91\n      jump\t// in\n    tag_141:\n        /* \"#utility.yul\":2029:2034   */\n      dup2\n        /* \"#utility.yul\":2026:2061   */\n      eq\n        /* \"#utility.yul\":2016:2079   */\n      tag_142\n      jumpi\n        /* \"#utility.yul\":2075:2076   */\n      0x00\n        /* \"#utility.yul\":2072:2073   */\n      dup1\n        /* \"#utility.yul\":2065:2077   */\n      revert\n        /* \"#utility.yul\":2016:2079   */\n    tag_142:\n        /* \"#utility.yul\":1963:2085   */\n      pop\n      jump\t// out\n        /* \"#utility.yul\":2091:2230   */\n    tag_102:\n        /* \"#utility.yul\":2137:2142   */\n      0x00\n        /* \"#utility.yul\":2175:2181   */\n      dup2\n        /* \"#utility.yul\":2162:2182   */\n      calldataload\n        /* \"#utility.yul\":2153:2182   */\n      swap1\n      pop\n        /* \"#utility.yul\":2191:2224   */\n      tag_144\n        /* \"#utility.yul\":2218:2223   */\n      dup2\n        /* \"#utility.yul\":2191:2224   */\n      tag_101\n      jump\t// in\n    tag_144:\n        /* \"#utility.yul\":2091:2230   */\n      swap3\n      swap2\n      pop\n      pop\n      jump\t// out\n        /* \"#utility.yul\":2236:2565   */\n    tag_44:\n        /* \"#utility.yul\":2295:2301   */\n      0x00\n        /* \"#utility.yul\":2344:2346   */\n      0x20\n        /* \"#utility.yul\":2332:2341   */\n      dup3\n        /* \"#utility.yul\":2323:2330   */\n      dup5\n        /* \"#utility.yul\":2319:2342   */\n      sub\n        /* \"#utility.yul\":2315:2347   */\n      slt\n        /* \"#utility.yul\":2312:2431   */\n      iszero\n      tag_146\n      jumpi\n        /* \"#utility.yul\":2350:2429   */\n      tag_147\n      tag_94\n      jump\t// in\n    tag_147:\n        /* \"#utility.yul\":2312:2431   */\n    tag_146:\n        /* \"#utility.yul\":2470:2471   */\n      0x00\n        /* \"#utility.yul\":2495:2548   */\n      tag_148\n        /* \"#utility.yul\":2540:2547   */\n      dup5\n        /* \"#utility.yul\":2531:2537   */\n      dup3\n        /* \"#utility.yul\":2520:2529   */\n      dup6\n        /* \"#utility.yul\":2516:2538   */\n      add\n        /* \"#utility.yul\":2495:2548   */\n      tag_102\n      jump\t// in\n    tag_148:\n        /* \"#utility.yul\":2485:2548   */\n      swap2\n      pop\n        /* \"#utility.yul\":2441:2558   */\n      pop\n        /* \"#utility.yul\":2236:2565   */\n      swap3\n      swap2\n      pop\n      pop\n      jump\t// out\n        /* \"#utility.yul\":2571:2740   */\n    tag_103:\n        /* \"#utility.yul\":2655:2666   */\n      0x00\n        /* \"#utility.yul\":2689:2695   */\n      dup3\n        /* \"#utility.yul\":2684:2687   */\n      dup3\n        /* \"#utility.yul\":2677:2696   */\n      mstore\n        /* \"#utility.yul\":2729:2733   */\n      0x20\n        /* \"#utility.yul\":2724:2727   */\n      dup3\n        /* \"#utility.yul\":2720:2734   */\n      add\n        /* \"#utility.yul\":2705:2734   */\n      swap1\n      pop\n        /* \"#utility.yul\":2571:2740   */\n      swap3\n      swap2\n      pop\n      pop\n      jump\t// out\n        /* \"#utility.yul\":2746:2916   */\n    tag_104:\n        /* \"#utility.yul\":2886:2908   */\n      0x4e4f5420454e4f55474820455448205350454e54000000000000000000000000\n        /* \"#utility.yul\":2882:2883   */\n      0x00\n        /* \"#utility.yul\":2874:2880   */\n      dup3\n        /* \"#utility.yul\":2870:2884   */\n      add\n        /* \"#utility.yul\":2863:2909   */\n      mstore\n        /* \"#utility.yul\":2746:2916   */\n      pop\n      jump\t// out\n        /* \"#utility.yul\":2922:3288   */\n    tag_105:\n        /* \"#utility.yul\":3064:3067   */\n      0x00\n        /* \"#utility.yul\":3085:3152   */\n      tag_152\n        /* \"#utility.yul\":3149:3151   */\n      0x14\n        /* \"#utility.yul\":3144:3147   */\n      dup4\n        /* \"#utility.yul\":3085:3152   */\n      tag_103\n      jump\t// in\n    tag_152:\n        /* \"#utility.yul\":3078:3152   */\n      swap2\n      pop\n        /* \"#utility.yul\":3161:3254   */\n      tag_153\n        /* \"#utility.yul\":3250:3253   */\n      dup3\n        /* \"#utility.yul\":3161:3254   */\n      tag_104\n      jump\t// in\n    tag_153:\n        /* \"#utility.yul\":3279:3281   */\n      0x20\n        /* \"#utility.yul\":3274:3277   */\n      dup3\n        /* \"#utility.yul\":3270:3282   */\n      add\n        /* \"#utility.yul\":3263:3282   */\n      swap1\n      pop\n        /* \"#utility.yul\":2922:3288   */\n      swap2\n      swap1\n      pop\n      jump\t// out\n        /* \"#utility.yul\":3294:3713   */\n    tag_52:\n        /* \"#utility.yul\":3460:3464   */\n      0x00\n        /* \"#utility.yul\":3498:3500   */\n      0x20\n        /* \"#utility.yul\":3487:3496   */\n      dup3\n        /* \"#utility.yul\":3483:3501   */\n      add\n        /* \"#utility.yul\":3475:3501   */\n      swap1\n      pop\n        /* \"#utility.yul\":3547:3556   */\n      dup2\n        /* \"#utility.yul\":3541:3545   */\n      dup2\n        /* \"#utility.yul\":3537:3557   */\n      sub\n        /* \"#utility.yul\":3533:3534   */\n      0x00\n        /* \"#utility.yul\":3522:3531   */\n      dup4\n        /* \"#utility.yul\":3518:3535   */\n      add\n        /* \"#utility.yul\":3511:3558   */\n      mstore\n        /* \"#utility.yul\":3575:3706   */\n      tag_155\n        /* \"#utility.yul\":3701:3705   */\n      dup2\n        /* \"#utility.yul\":3575:3706   */\n      tag_105\n      jump\t// in\n    tag_155:\n        /* \"#utility.yul\":3567:3706   */\n      swap1\n      pop\n        /* \"#utility.yul\":3294:3713   */\n      swap2\n      swap1\n      pop\n      jump\t// out\n        /* \"#utility.yul\":3719:3899   */\n    tag_106:\n        /* \"#utility.yul\":3767:3844   */\n      0x4e487b7100000000000000000000000000000000000000000000000000000000\n        /* \"#utility.yul\":3764:3765   */\n      0x00\n        /* \"#utility.yul\":3757:3845   */\n      mstore\n        /* \"#utility.yul\":3864:3868   */\n      0x11\n        /* \"#utility.yul\":3861:3862   */\n      0x04\n        /* \"#utility.yul\":3854:3869   */\n      mstore\n        /* \"#utility.yul\":3888:3892   */\n      0x24\n        /* \"#utility.yul\":3885:3886   */\n      0x00\n        /* \"#utility.yul\":3878:3893   */\n      revert\n        /* \"#utility.yul\":3905:4210   */\n    tag_54:\n        /* \"#utility.yul\":3945:3948   */\n      0x00\n        /* \"#utility.yul\":3964:3984   */\n      tag_158\n        /* \"#utility.yul\":3982:3983   */\n      dup3\n        /* \"#utility.yul\":3964:3984   */\n      tag_91\n      jump\t// in\n    tag_158:\n        /* \"#utility.yul\":3959:3984   */\n      swap2\n      pop\n        /* \"#utility.yul\":3998:4018   */\n      tag_159\n        /* \"#utility.yul\":4016:4017   */\n      dup4\n        /* \"#utility.yul\":3998:4018   */\n      tag_91\n      jump\t// in\n    tag_159:\n        /* \"#utility.yul\":3993:4018   */\n      swap3\n      pop\n        /* \"#utility.yul\":4152:4153   */\n      dup3\n        /* \"#utility.yul\":4084:4150   */\n      0xffffffffffffffffffffffffffffffffffffffffffffffffffffffffffffffff\n        /* \"#utility.yul\":4080:4154   */\n      sub\n        /* \"#utility.yul\":4077:4078   */\n      dup3\n        /* \"#utility.yul\":4074:4155   */\n      gt\n        /* \"#utility.yul\":4071:4178   */\n      iszero\n      tag_160\n      jumpi\n        /* \"#utility.yul\":4158:4176   */\n      tag_161\n      tag_106\n      jump\t// in\n    tag_161:\n        /* \"#utility.yul\":4071:4178   */\n    tag_160:\n        /* \"#utility.yul\":4202:4203   */\n      dup3\n        /* \"#utility.yul\":4199:4200   */\n      dup3\n        /* \"#utility.yul\":4195:4204   */\n      add\n        /* \"#utility.yul\":4188:4204   */\n      swap1\n      pop\n        /* \"#utility.yul\":3905:4210   */\n      swap3\n      swap2\n      pop\n      pop\n      jump\t// out\n        /* \"#utility.yul\":4216:4359   */\n    tag_107:\n        /* \"#utility.yul\":4273:4278   */\n      0x00\n        /* \"#utility.yul\":4304:4310   */\n      dup2\n        /* \"#utility.yul\":4298:4311   */\n      mload\n        /* \"#utility.yul\":4289:4311   */\n      swap1\n      pop\n        /* \"#utility.yul\":4320:4353   */\n      tag_163\n        /* \"#utility.yul\":4347:4352   */\n      dup2\n        /* \"#utility.yul\":4320:4353   */\n      tag_101\n      jump\t// in\n    tag_163:\n        /* \"#utility.yul\":4216:4359   */\n      swap3\n      swap2\n      pop\n      pop\n      jump\t// out\n        /* \"#utility.yul\":4365:4716   */\n    tag_61:\n        /* \"#utility.yul\":4435:4441   */\n      0x00\n        /* \"#utility.yul\":4484:4486   */\n      0x20\n        /* \"#utility.yul\":4472:4481   */\n      dup3\n        /* \"#utility.yul\":4463:4470   */\n      dup5\n        /* \"#utility.yul\":4459:4482   */\n      sub\n        /* \"#utility.yul\":4455:4487   */\n      slt\n        /* \"#utility.yul\":4452:4571   */\n      iszero\n      tag_165\n      jumpi\n        /* \"#utility.yul\":4490:4569   */\n      tag_166\n      tag_94\n      jump\t// in\n    tag_166:\n        /* \"#utility.yul\":4452:4571   */\n    tag_165:\n        /* \"#utility.yul\":4610:4611   */\n      0x00\n        /* \"#utility.yul\":4635:4699   */\n      tag_167\n        /* \"#utility.yul\":4691:4698   */\n      dup5\n        /* \"#utility.yul\":4682:4688   */\n      dup3\n        /* \"#utility.yul\":4671:4680   */\n      dup6\n        /* \"#utility.yul\":4667:4689   */\n      add\n        /* \"#utility.yul\":4635:4699   */\n      tag_107\n      jump\t// in\n    tag_167:\n        /* \"#utility.yul\":4625:4699   */\n      swap2\n      pop\n        /* \"#utility.yul\":4581:4709   */\n      pop\n        /* \"#utility.yul\":4365:4716   */\n      swap3\n      swap2\n      pop\n      pop\n      jump\t// out\n        /* \"#utility.yul\":4722:4902   */\n    tag_70:\n        /* \"#utility.yul\":4770:4847   */\n      0x4e487b7100000000000000000000000000000000000000000000000000000000\n        /* \"#utility.yul\":4767:4768   */\n      0x00\n        /* \"#utility.yul\":4760:4848   */\n      mstore\n        /* \"#utility.yul\":4867:4871   */\n      0x32\n        /* \"#utility.yul\":4864:4865   */\n      0x04\n        /* \"#utility.yul\":4857:4872   */\n      mstore\n        /* \"#utility.yul\":4891:4895   */\n      0x24\n        /* \"#utility.yul\":4888:4889   */\n      0x00\n        /* \"#utility.yul\":4881:4896   */\n      revert\n        /* \"#utility.yul\":4908:5141   */\n    tag_73:\n        /* \"#utility.yul\":4947:4950   */\n      0x00\n        /* \"#utility.yul\":4970:4994   */\n      tag_170\n        /* \"#utility.yul\":4988:4993   */\n      dup3\n        /* \"#utility.yul\":4970:4994   */\n      tag_91\n      jump\t// in\n    tag_170:\n        /* \"#utility.yul\":4961:4994   */\n      swap2\n      pop\n        /* \"#utility.yul\":5016:5082   */\n      0xffffffffffffffffffffffffffffffffffffffffffffffffffffffffffffffff\n        /* \"#utility.yul\":5009:5014   */\n      dup3\n        /* \"#utility.yul\":5006:5083   */\n      eq\n        /* \"#utility.yul\":5003:5106   */\n      iszero\n      tag_171\n      jumpi\n        /* \"#utility.yul\":5086:5104   */\n      tag_172\n      tag_106\n      jump\t// in\n    tag_172:\n        /* \"#utility.yul\":5003:5106   */\n    tag_171:\n        /* \"#utility.yul\":5133:5134   */\n      0x01\n        /* \"#utility.yul\":5126:5131   */\n      dup3\n        /* \"#utility.yul\":5122:5135   */\n      add\n        /* \"#utility.yul\":5115:5135   */\n      swap1\n      pop\n        /* \"#utility.yul\":4908:5141   */\n      swap2\n      swap1\n      pop\n      jump\t// out\n        /* \"#utility.yul\":5147:5495   */\n    tag_80:\n        /* \"#utility.yul\":5187:5194   */\n      0x00\n        /* \"#utility.yul\":5210:5230   */\n      tag_174\n        /* \"#utility.yul\":5228:5229   */\n      dup3\n        /* \"#utility.yul\":5210:5230   */\n      tag_91\n      jump\t// in\n    tag_174:\n        /* \"#utility.yul\":5205:5230   */\n      swap2\n      pop\n        /* \"#utility.yul\":5244:5264   */\n      tag_175\n        /* \"#utility.yul\":5262:5263   */\n      dup4\n        /* \"#utility.yul\":5244:5264   */\n      tag_91\n      jump\t// in\n    tag_175:\n        /* \"#utility.yul\":5239:5264   */\n      swap3\n      pop\n        /* \"#utility.yul\":5432:5433   */\n      dup2\n        /* \"#utility.yul\":5364:5430   */\n      0xffffffffffffffffffffffffffffffffffffffffffffffffffffffffffffffff\n        /* \"#utility.yul\":5360:5434   */\n      div\n        /* \"#utility.yul\":5357:5358   */\n      dup4\n        /* \"#utility.yul\":5354:5435   */\n      gt\n        /* \"#utility.yul\":5349:5350   */\n      dup3\n        /* \"#utility.yul\":5342:5351   */\n      iszero\n        /* \"#utility.yul\":5335:5352   */\n      iszero\n        /* \"#utility.yul\":5331:5436   */\n      and\n        /* \"#utility.yul\":5328:5459   */\n      iszero\n      tag_176\n      jumpi\n        /* \"#utility.yul\":5439:5457   */\n      tag_177\n      tag_106\n      jump\t// in\n    tag_177:\n        /* \"#utility.yul\":5328:5459   */\n    tag_176:\n        /* \"#utility.yul\":5487:5488   */\n      dup3\n        /* \"#utility.yul\":5484:5485   */\n      dup3\n        /* \"#utility.yul\":5480:5489   */\n      mul\n        /* \"#utility.yul\":5469:5489   */\n      swap1\n      pop\n        /* \"#utility.yul\":5147:5495   */\n      swap3\n      swap2\n      pop\n      pop\n      jump\t// out\n        /* \"#utility.yul\":5501:5681   */\n    tag_108:\n        /* \"#utility.yul\":5549:5626   */\n      0x4e487b7100000000000000000000000000000000000000000000000000000000\n        /* \"#utility.yul\":5546:5547   */\n      0x00\n        /* \"#utility.yul\":5539:5627   */\n      mstore\n        /* \"#utility.yul\":5646:5650   */\n      0x12\n        /* \"#utility.yul\":5643:5644   */\n      0x04\n        /* \"#utility.yul\":5636:5651   */\n      mstore\n        /* \"#utility.yul\":5670:5674   */\n      0x24\n        /* \"#utility.yul\":5667:5668   */\n      0x00\n        /* \"#utility.yul\":5660:5675   */\n      revert\n        /* \"#utility.yul\":5687:5872   */\n    tag_82:\n        /* \"#utility.yul\":5727:5728   */\n      0x00\n        /* \"#utility.yul\":5744:5764   */\n      tag_180\n        /* \"#utility.yul\":5762:5763   */\n      dup3\n        /* \"#utility.yul\":5744:5764   */\n      tag_91\n      jump\t// in\n    tag_180:\n        /* \"#utility.yul\":5739:5764   */\n      swap2\n      pop\n        /* \"#utility.yul\":5778:5798   */\n      tag_181\n        /* \"#utility.yul\":5796:5797   */\n      dup4\n        /* \"#utility.yul\":5778:5798   */\n      tag_91\n      jump\t// in\n    tag_181:\n        /* \"#utility.yul\":5773:5798   */\n      swap3\n      pop\n        /* \"#utility.yul\":5817:5818   */\n      dup3\n        /* \"#utility.yul\":5807:5842   */\n      tag_182\n      jumpi\n        /* \"#utility.yul\":5822:5840   */\n      tag_183\n      tag_108\n      jump\t// in\n    tag_183:\n        /* \"#utility.yul\":5807:5842   */\n    tag_182:\n        /* \"#utility.yul\":5864:5865   */\n      dup3\n        /* \"#utility.yul\":5861:5862   */\n      dup3\n        /* \"#utility.yul\":5857:5866   */\n      div\n        /* \"#utility.yul\":5852:5866   */\n      swap1\n      pop\n        /* \"#utility.yul\":5687:5872   */\n      swap3\n      swap2\n      pop\n      pop\n      jump\t// out\n        /* \"#utility.yul\":5878:5983   */\n    tag_109:\n        /* \"#utility.yul\":5914:5921   */\n      0x00\n        /* \"#utility.yul\":5954:5976   */\n      0xffffffffffffffffffff\n        /* \"#utility.yul\":5947:5952   */\n      dup3\n        /* \"#utility.yul\":5943:5977   */\n      and\n        /* \"#utility.yul\":5932:5977   */\n      swap1\n      pop\n        /* \"#utility.yul\":5878:5983   */\n      swap2\n      swap1\n      pop\n      jump\t// out\n        /* \"#utility.yul\":5989:6109   */\n    tag_110:\n        /* \"#utility.yul\":6061:6084   */\n      tag_186\n        /* \"#utility.yul\":6078:6083   */\n      dup2\n        /* \"#utility.yul\":6061:6084   */\n      tag_109\n      jump\t// in\n    tag_186:\n        /* \"#utility.yul\":6054:6059   */\n      dup2\n        /* \"#utility.yul\":6051:6085   */\n      eq\n        /* \"#utility.yul\":6041:6103   */\n      tag_187\n      jumpi\n        /* \"#utility.yul\":6099:6100   */\n      0x00\n        /* \"#utility.yul\":6096:6097   */\n      dup1\n        /* \"#utility.yul\":6089:6101   */\n      revert\n        /* \"#utility.yul\":6041:6103   */\n    tag_187:\n        /* \"#utility.yul\":5989:6109   */\n      pop\n      jump\t// out\n        /* \"#utility.yul\":6115:6256   */\n    tag_111:\n        /* \"#utility.yul\":6171:6176   */\n      0x00\n        /* \"#utility.yul\":6202:6208   */\n      dup2\n        /* \"#utility.yul\":6196:6209   */\n      mload\n        /* \"#utility.yul\":6187:6209   */\n      swap1\n      pop\n        /* \"#utility.yul\":6218:6250   */\n      tag_189\n        /* \"#utility.yul\":6244:6249   */\n      dup2\n        /* \"#utility.yul\":6218:6250   */\n      tag_110\n      jump\t// in\n    tag_189:\n        /* \"#utility.yul\":6115:6256   */\n      swap3\n      swap2\n      pop\n      pop\n      jump\t// out\n        /* \"#utility.yul\":6262:6338   */\n    tag_112:\n        /* \"#utility.yul\":6298:6305   */\n      0x00\n        /* \"#utility.yul\":6327:6332   */\n      dup2\n        /* \"#utility.yul\":6316:6332   */\n      swap1\n      pop\n        /* \"#utility.yul\":6262:6338   */\n      swap2\n      swap1\n      pop\n      jump\t// out\n        /* \"#utility.yul\":6344:6464   */\n    tag_113:\n        /* \"#utility.yul\":6416:6439   */\n      tag_192\n        /* \"#utility.yul\":6433:6438   */\n      dup2\n        /* \"#utility.yul\":6416:6439   */\n      tag_112\n      jump\t// in\n    tag_192:\n        /* \"#utility.yul\":6409:6414   */\n      dup2\n        /* \"#utility.yul\":6406:6440   */\n      eq\n        /* \"#utility.yul\":6396:6458   */\n      tag_193\n      jumpi\n        /* \"#utility.yul\":6454:6455   */\n      0x00\n        /* \"#utility.yul\":6451:6452   */\n      dup1\n        /* \"#utility.yul\":6444:6456   */\n      revert\n        /* \"#utility.yul\":6396:6458   */\n    tag_193:\n        /* \"#utility.yul\":6344:6464   */\n      pop\n      jump\t// out\n        /* \"#utility.yul\":6470:6611   */\n    tag_114:\n        /* \"#utility.yul\":6526:6531   */\n      0x00\n        /* \"#utility.yul\":6557:6563   */\n      dup2\n        /* \"#utility.yul\":6551:6564   */\n      mload\n        /* \"#utility.yul\":6542:6564   */\n      swap1\n      pop\n        /* \"#utility.yul\":6573:6605   */\n      tag_195\n        /* \"#utility.yul\":6599:6604   */\n      dup2\n        /* \"#utility.yul\":6573:6605   */\n      tag_113\n      jump\t// in\n    tag_195:\n        /* \"#utility.yul\":6470:6611   */\n      swap3\n      swap2\n      pop\n      pop\n      jump\t// out\n        /* \"#utility.yul\":6617:7588   */\n    tag_88:\n        /* \"#utility.yul\":6720:6726   */\n      0x00\n        /* \"#utility.yul\":6728:6734   */\n      dup1\n        /* \"#utility.yul\":6736:6742   */\n      0x00\n        /* \"#utility.yul\":6744:6750   */\n      dup1\n        /* \"#utility.yul\":6752:6758   */\n      0x00\n        /* \"#utility.yul\":6801:6804   */\n      0xa0\n        /* \"#utility.yul\":6789:6798   */\n      dup7\n        /* \"#utility.yul\":6780:6787   */\n      dup9\n        /* \"#utility.yul\":6776:6799   */\n      sub\n        /* \"#utility.yul\":6772:6805   */\n      slt\n        /* \"#utility.yul\":6769:6889   */\n      iszero\n      tag_197\n      jumpi\n        /* \"#utility.yul\":6808:6887   */\n      tag_198\n      tag_94\n      jump\t// in\n    tag_198:\n        /* \"#utility.yul\":6769:6889   */\n    tag_197:\n        /* \"#utility.yul\":6928:6929   */\n      0x00\n        /* \"#utility.yul\":6953:7016   */\n      tag_199\n        /* \"#utility.yul\":7008:7015   */\n      dup9\n        /* \"#utility.yul\":6999:7005   */\n      dup3\n        /* \"#utility.yul\":6988:6997   */\n      dup10\n        /* \"#utility.yul\":6984:7006   */\n      add\n        /* \"#utility.yul\":6953:7016   */\n      tag_111\n      jump\t// in\n    tag_199:\n        /* \"#utility.yul\":6943:7016   */\n      swap6\n      pop\n        /* \"#utility.yul\":6899:7026   */\n      pop\n        /* \"#utility.yul\":7065:7067   */\n      0x20\n        /* \"#utility.yul\":7091:7154   */\n      tag_200\n        /* \"#utility.yul\":7146:7153   */\n      dup9\n        /* \"#utility.yul\":7137:7143   */\n      dup3\n        /* \"#utility.yul\":7126:7135   */\n      dup10\n        /* \"#utility.yul\":7122:7144   */\n      add\n        /* \"#utility.yul\":7091:7154   */\n      tag_114\n      jump\t// in\n    tag_200:\n        /* \"#utility.yul\":7081:7154   */\n      swap5\n      pop\n        /* \"#utility.yul\":7036:7164   */\n      pop\n        /* \"#utility.yul\":7203:7205   */\n      0x40\n        /* \"#utility.yul\":7229:7293   */\n      tag_201\n        /* \"#utility.yul\":7285:7292   */\n      dup9\n        /* \"#utility.yul\":7276:7282   */\n      dup3\n        /* \"#utility.yul\":7265:7274   */\n      dup10\n        /* \"#utility.yul\":7261:7283   */\n      add\n        /* \"#utility.yul\":7229:7293   */\n      tag_107\n      jump\t// in\n    tag_201:\n        /* \"#utility.yul\":7219:7293   */\n      swap4\n      pop\n        /* \"#utility.yul\":7174:7303   */\n      pop\n        /* \"#utility.yul\":7342:7344   */\n      0x60\n        /* \"#utility.yul\":7368:7432   */\n      tag_202\n        /* \"#utility.yul\":7424:7431   */\n      dup9\n        /* \"#utility.yul\":7415:7421   */\n      dup3\n        /* \"#utility.yul\":7404:7413   */\n      dup10\n        /* \"#utility.yul\":7400:7422   */\n      add\n        /* \"#utility.yul\":7368:7432   */\n      tag_107\n      jump\t// in\n    tag_202:\n        /* \"#utility.yul\":7358:7432   */\n      swap3\n      pop\n        /* \"#utility.yul\":7313:7442   */\n      pop\n        /* \"#utility.yul\":7481:7484   */\n      0x80\n        /* \"#utility.yul\":7508:7571   */\n      tag_203\n        /* \"#utility.yul\":7563:7570   */\n      dup9\n        /* \"#utility.yul\":7554:7560   */\n      dup3\n        /* \"#utility.yul\":7543:7552   */\n      dup10\n        /* \"#utility.yul\":7539:7561   */\n      add\n        /* \"#utility.yul\":7508:7571   */\n      tag_111\n      jump\t// in\n    tag_203:\n        /* \"#utility.yul\":7498:7571   */\n      swap2\n      pop\n        /* \"#utility.yul\":7452:7581   */\n      pop\n        /* \"#utility.yul\":6617:7588   */\n      swap3\n      swap6\n      pop\n      swap3\n      swap6\n      swap1\n      swap4\n      pop\n      jump\t// out\n        /* \"#utility.yul\":7594:8585   */\n    tag_90:\n        /* \"#utility.yul\":7633:7640   */\n      0x00\n        /* \"#utility.yul\":7656:7675   */\n      tag_205\n        /* \"#utility.yul\":7673:7674   */\n      dup3\n        /* \"#utility.yul\":7656:7675   */\n      tag_112\n      jump\t// in\n    tag_205:\n        /* \"#utility.yul\":7651:7675   */\n      swap2\n      pop\n        /* \"#utility.yul\":7689:7708   */\n      tag_206\n        /* \"#utility.yul\":7706:7707   */\n      dup4\n        /* \"#utility.yul\":7689:7708   */\n      tag_112\n      jump\t// in\n    tag_206:\n        /* \"#utility.yul\":7684:7708   */\n      swap3\n      pop\n        /* \"#utility.yul\":7890:7891   */\n      dup3\n        /* \"#utility.yul\":7822:7888   */\n      0x7fffffffffffffffffffffffffffffffffffffffffffffffffffffffffffffff\n        /* \"#utility.yul\":7818:7892   */\n      div\n        /* \"#utility.yul\":7815:7816   */\n      dup3\n        /* \"#utility.yul\":7812:7893   */\n      gt\n        /* \"#utility.yul\":7807:7808   */\n      0x00\n        /* \"#utility.yul\":7804:7805   */\n      dup5\n        /* \"#utility.yul\":7800:7809   */\n      sgt\n        /* \"#utility.yul\":7796:7797   */\n      0x00\n        /* \"#utility.yul\":7793:7794   */\n      dup5\n        /* \"#utility.yul\":7789:7798   */\n      sgt\n        /* \"#utility.yul\":7785:7810   */\n      and\n        /* \"#utility.yul\":7781:7894   */\n      and\n        /* \"#utility.yul\":7778:7917   */\n      iszero\n      tag_207\n      jumpi\n        /* \"#utility.yul\":7897:7915   */\n      tag_208\n      tag_106\n      jump\t// in\n    tag_208:\n        /* \"#utility.yul\":7778:7917   */\n    tag_207:\n        /* \"#utility.yul\":8101:8102   */\n      dup2\n        /* \"#utility.yul\":8033:8099   */\n      0x8000000000000000000000000000000000000000000000000000000000000000\n        /* \"#utility.yul\":8028:8103   */\n      sdiv\n        /* \"#utility.yul\":8025:8026   */\n      dup4\n        /* \"#utility.yul\":8021:8104   */\n      slt\n        /* \"#utility.yul\":8016:8017   */\n      0x00\n        /* \"#utility.yul\":8013:8014   */\n      dup5\n        /* \"#utility.yul\":8009:8018   */\n      slt\n        /* \"#utility.yul\":8005:8006   */\n      0x00\n        /* \"#utility.yul\":8002:8003   */\n      dup5\n        /* \"#utility.yul\":7998:8007   */\n      sgt\n        /* \"#utility.yul\":7994:8019   */\n      and\n        /* \"#utility.yul\":7990:8105   */\n      and\n        /* \"#utility.yul\":7987:8128   */\n      iszero\n      tag_209\n      jumpi\n        /* \"#utility.yul\":8108:8126   */\n      tag_210\n      tag_106\n      jump\t// in\n    tag_210:\n        /* \"#utility.yul\":7987:8128   */\n    tag_209:\n        /* \"#utility.yul\":8312:8313   */\n      dup3\n        /* \"#utility.yul\":8244:8310   */\n      0x8000000000000000000000000000000000000000000000000000000000000000\n        /* \"#utility.yul\":8239:8314   */\n      sdiv\n        /* \"#utility.yul\":8236:8237   */\n      dup3\n        /* \"#utility.yul\":8232:8315   */\n      slt\n        /* \"#utility.yul\":8227:8228   */\n      0x00\n        /* \"#utility.yul\":8224:8225   */\n      dup5\n        /* \"#utility.yul\":8220:8229   */\n      sgt\n        /* \"#utility.yul\":8216:8217   */\n      0x00\n        /* \"#utility.yul\":8213:8214   */\n      dup5\n        /* \"#utility.yul\":8209:8218   */\n      slt\n        /* \"#utility.yul\":8205:8230   */\n      and\n        /* \"#utility.yul\":8201:8316   */\n      and\n        /* \"#utility.yul\":8198:8339   */\n      iszero\n      tag_211\n      jumpi\n        /* \"#utility.yul\":8319:8337   */\n      tag_212\n      tag_106\n      jump\t// in\n    tag_212:\n        /* \"#utility.yul\":8198:8339   */\n    tag_211:\n        /* \"#utility.yul\":8522:8523   */\n      dup3\n        /* \"#utility.yul\":8454:8520   */\n      0x7fffffffffffffffffffffffffffffffffffffffffffffffffffffffffffffff\n        /* \"#utility.yul\":8449:8524   */\n      sdiv\n        /* \"#utility.yul\":8446:8447   */\n      dup3\n        /* \"#utility.yul\":8442:8525   */\n      slt\n        /* \"#utility.yul\":8437:8438   */\n      0x00\n        /* \"#utility.yul\":8434:8435   */\n      dup5\n        /* \"#utility.yul\":8430:8439   */\n      slt\n        /* \"#utility.yul\":8426:8427   */\n      0x00\n        /* \"#utility.yul\":8423:8424   */\n      dup5\n        /* \"#utility.yul\":8419:8428   */\n      slt\n        /* \"#utility.yul\":8415:8440   */\n      and\n        /* \"#utility.yul\":8411:8526   */\n      and\n        /* \"#utility.yul\":8408:8549   */\n      iszero\n      tag_213\n      jumpi\n        /* \"#utility.yul\":8529:8547   */\n      tag_214\n      tag_106\n      jump\t// in\n    tag_214:\n        /* \"#utility.yul\":8408:8549   */\n    tag_213:\n        /* \"#utility.yul\":8577:8578   */\n      dup3\n        /* \"#utility.yul\":8574:8575   */\n      dup3\n        /* \"#utility.yul\":8570:8579   */\n      mul\n        /* \"#utility.yul\":8559:8579   */\n      swap1\n      pop\n        /* \"#utility.yul\":7594:8585   */\n      swap3\n      swap2\n      pop\n      pop\n      jump\t// out\n\n    auxdata: 0xa2646970667358221220286c011375c06066b7a7c97af3c739916035040801654d746d8238f4992e217964736f6c63430008080033\n}\n",
				"bytecode": {
					"linkReferences": {},
					"object": "608060405234801561001057600080fd5b5033600260006101000a81548173ffffffffffffffffffffffffffffffffffffffff021916908373ffffffffffffffffffffffffffffffffffffffff160217905550610bf4806100616000396000f3fe6080604052600436106100745760003560e01c80636b69a5921161004e5780636b69a592146100ff578063b60d42881461012a578063dba6335f14610134578063dc0d3dff1461015f57610083565b80630d8e6e2c1461008d5780633ccfd60b146100b857806355f2a7d5146100c257610083565b366100835761008161019c565b005b61008b61019c565b005b34801561009957600080fd5b506100a26102a9565b6040516100af9190610610565b60405180910390f35b6100c0610347565b005b3480156100ce57600080fd5b506100e960048036038101906100e4919061068e565b61047c565b6040516100f69190610610565b60405180910390f35b34801561010b57600080fd5b50610114610494565b6040516101219190610610565b60405180910390f35b61013261019c565b005b34801561014057600080fd5b506101496104a0565b60405161015691906106ca565b60405180910390f35b34801561016b57600080fd5b5061018660048036038101906101819190610711565b6104c6565b60405161019391906106ca565b60405180910390f35b674563918244f400006101ae34610505565b10156101ef576040517f08c379a00000000000000000000000000000000000000000000000000000000081526004016101e69061079b565b60405180910390fd5b346000803373ffffffffffffffffffffffffffffffffffffffff1673ffffffffffffffffffffffffffffffffffffffff168152602001908152602001600020600082825461023d91906107ea565b925050819055506001339080600181540180825580915050600190039060005260206000200160009091909190916101000a81548173ffffffffffffffffffffffffffffffffffffffff021916908373ffffffffffffffffffffffffffffffffffffffff160217905550565b600080738a753747a1fa494ec906ce90e9f37563a8af630e90508073ffffffffffffffffffffffffffffffffffffffff166354fd4d506040518163ffffffff1660e01b815260040160206040518083038186803b15801561030957600080fd5b505afa15801561031d573d6000803e3d6000fd5b505050506040513d601f19601f820116820180604052508101906103419190610855565b91505090565b600260009054906101000a900473ffffffffffffffffffffffffffffffffffffffff1673ffffffffffffffffffffffffffffffffffffffff163373ffffffffffffffffffffffffffffffffffffffff16146103ce576040517f30cd747100000000000000000000000000000000000000000000000000000000815260040160405180910390fd5b60005b600180549050811015610479576000600182815481106103f4576103f3610882565b5b9060005260206000200160009054906101000a900473ffffffffffffffffffffffffffffffffffffffff16905060008060008373ffffffffffffffffffffffffffffffffffffffff1673ffffffffffffffffffffffffffffffffffffffff16815260200190815260200160002081905550508080610471906108b1565b9150506103d1565b50565b60006020528060005260406000206000915090505481565b674563918244f4000081565b600260009054906101000a900473ffffffffffffffffffffffffffffffffffffffff1681565b600181815481106104d657600080fd5b906000526020600020016000915054906101000a900473ffffffffffffffffffffffffffffffffffffffff1681565b60008061051061053f565b90506000670de0b6b3a7640000848361052991906108fa565b6105339190610983565b90508092505050919050565b600080738a753747a1fa494ec906ce90e9f37563a8af630e905060008173ffffffffffffffffffffffffffffffffffffffff1663feaf968c6040518163ffffffff1660e01b815260040160a06040518083038186803b1580156105a157600080fd5b505afa1580156105b5573d6000803e3d6000fd5b505050506040513d601f19601f820116820180604052508101906105d99190610a2c565b5050509150506402540be400816105f09190610aa7565b9250505090565b6000819050919050565b61060a816105f7565b82525050565b60006020820190506106256000830184610601565b92915050565b600080fd5b600073ffffffffffffffffffffffffffffffffffffffff82169050919050565b600061065b82610630565b9050919050565b61066b81610650565b811461067657600080fd5b50565b60008135905061068881610662565b92915050565b6000602082840312156106a4576106a361062b565b5b60006106b284828501610679565b91505092915050565b6106c481610650565b82525050565b60006020820190506106df60008301846106bb565b92915050565b6106ee816105f7565b81146106f957600080fd5b50565b60008135905061070b816106e5565b92915050565b6000602082840312156107275761072661062b565b5b6000610735848285016106fc565b91505092915050565b600082825260208201905092915050565b7f4e4f5420454e4f55474820455448205350454e54000000000000000000000000600082015250565b600061078560148361073e565b91506107908261074f565b602082019050919050565b600060208201905081810360008301526107b481610778565b9050919050565b7f4e487b7100000000000000000000000000000000000000000000000000000000600052601160045260246000fd5b60006107f5826105f7565b9150610800836105f7565b9250827fffffffffffffffffffffffffffffffffffffffffffffffffffffffffffffffff03821115610835576108346107bb565b5b828201905092915050565b60008151905061084f816106e5565b92915050565b60006020828403121561086b5761086a61062b565b5b600061087984828501610840565b91505092915050565b7f4e487b7100000000000000000000000000000000000000000000000000000000600052603260045260246000fd5b60006108bc826105f7565b91507fffffffffffffffffffffffffffffffffffffffffffffffffffffffffffffffff8214156108ef576108ee6107bb565b5b600182019050919050565b6000610905826105f7565b9150610910836105f7565b9250817fffffffffffffffffffffffffffffffffffffffffffffffffffffffffffffffff0483118215151615610949576109486107bb565b5b828202905092915050565b7f4e487b7100000000000000000000000000000000000000000000000000000000600052601260045260246000fd5b600061098e826105f7565b9150610999836105f7565b9250826109a9576109a8610954565b5b828204905092915050565b600069ffffffffffffffffffff82169050919050565b6109d3816109b4565b81146109de57600080fd5b50565b6000815190506109f0816109ca565b92915050565b6000819050919050565b610a09816109f6565b8114610a1457600080fd5b50565b600081519050610a2681610a00565b92915050565b600080600080600060a08688031215610a4857610a4761062b565b5b6000610a56888289016109e1565b9550506020610a6788828901610a17565b9450506040610a7888828901610840565b9350506060610a8988828901610840565b9250506080610a9a888289016109e1565b9150509295509295909350565b6000610ab2826109f6565b9150610abd836109f6565b9250827f7fffffffffffffffffffffffffffffffffffffffffffffffffffffffffffffff0482116000841360008413161615610afc57610afb6107bb565b5b817f80000000000000000000000000000000000000000000000000000000000000000583126000841260008413161615610b3957610b386107bb565b5b827f80000000000000000000000000000000000000000000000000000000000000000582126000841360008412161615610b7657610b756107bb565b5b827f7fffffffffffffffffffffffffffffffffffffffffffffffffffffffffffffff0582126000841260008412161615610bb357610bb26107bb565b5b82820290509291505056fea2646970667358221220286c011375c06066b7a7c97af3c739916035040801654d746d8238f4992e217964736f6c63430008080033",
					"opcodes": "PUSH1 0x80 PUSH1 0x40 MSTORE CALLVALUE DUP1 ISZERO PUSH2 0x10 JUMPI PUSH1 0x0 DUP1 REVERT JUMPDEST POP CALLER PUSH1 0x2 PUSH1 0x0 PUSH2 0x100 EXP DUP2 SLOAD DUP2 PUSH20 0xFFFFFFFFFFFFFFFFFFFFFFFFFFFFFFFFFFFFFFFF MUL NOT AND SWAP1 DUP4 PUSH20 0xFFFFFFFFFFFFFFFFFFFFFFFFFFFFFFFFFFFFFFFF AND MUL OR SWAP1 SSTORE POP PUSH2 0xBF4 DUP1 PUSH2 0x61 PUSH1 0x0 CODECOPY PUSH1 0x0 RETURN INVALID PUSH1 0x80 PUSH1 0x40 MSTORE PUSH1 0x4 CALLDATASIZE LT PUSH2 0x74 JUMPI PUSH1 0x0 CALLDATALOAD PUSH1 0xE0 SHR DUP1 PUSH4 0x6B69A592 GT PUSH2 0x4E JUMPI DUP1 PUSH4 0x6B69A592 EQ PUSH2 0xFF JUMPI DUP1 PUSH4 0xB60D4288 EQ PUSH2 0x12A JUMPI DUP1 PUSH4 0xDBA6335F EQ PUSH2 0x134 JUMPI DUP1 PUSH4 0xDC0D3DFF EQ PUSH2 0x15F JUMPI PUSH2 0x83 JUMP JUMPDEST DUP1 PUSH4 0xD8E6E2C EQ PUSH2 0x8D JUMPI DUP1 PUSH4 0x3CCFD60B EQ PUSH2 0xB8 JUMPI DUP1 PUSH4 0x55F2A7D5 EQ PUSH2 0xC2 JUMPI PUSH2 0x83 JUMP JUMPDEST CALLDATASIZE PUSH2 0x83 JUMPI PUSH2 0x81 PUSH2 0x19C JUMP JUMPDEST STOP JUMPDEST PUSH2 0x8B PUSH2 0x19C JUMP JUMPDEST STOP JUMPDEST CALLVALUE DUP1 ISZERO PUSH2 0x99 JUMPI PUSH1 0x0 DUP1 REVERT JUMPDEST POP PUSH2 0xA2 PUSH2 0x2A9 JUMP JUMPDEST PUSH1 0x40 MLOAD PUSH2 0xAF SWAP2 SWAP1 PUSH2 0x610 JUMP JUMPDEST PUSH1 0x40 MLOAD DUP1 SWAP2 SUB SWAP1 RETURN JUMPDEST PUSH2 0xC0 PUSH2 0x347 JUMP JUMPDEST STOP JUMPDEST CALLVALUE DUP1 ISZERO PUSH2 0xCE JUMPI PUSH1 0x0 DUP1 REVERT JUMPDEST POP PUSH2 0xE9 PUSH1 0x4 DUP1 CALLDATASIZE SUB DUP2 ADD SWAP1 PUSH2 0xE4 SWAP2 SWAP1 PUSH2 0x68E JUMP JUMPDEST PUSH2 0x47C JUMP JUMPDEST PUSH1 0x40 MLOAD PUSH2 0xF6 SWAP2 SWAP1 PUSH2 0x610 JUMP JUMPDEST PUSH1 0x40 MLOAD DUP1 SWAP2 SUB SWAP1 RETURN JUMPDEST CALLVALUE DUP1 ISZERO PUSH2 0x10B JUMPI PUSH1 0x0 DUP1 REVERT JUMPDEST POP PUSH2 0x114 PUSH2 0x494 JUMP JUMPDEST PUSH1 0x40 MLOAD PUSH2 0x121 SWAP2 SWAP1 PUSH2 0x610 JUMP JUMPDEST PUSH1 0x40 MLOAD DUP1 SWAP2 SUB SWAP1 RETURN JUMPDEST PUSH2 0x132 PUSH2 0x19C JUMP JUMPDEST STOP JUMPDEST CALLVALUE DUP1 ISZERO PUSH2 0x140 JUMPI PUSH1 0x0 DUP1 REVERT JUMPDEST POP PUSH2 0x149 PUSH2 0x4A0 JUMP JUMPDEST PUSH1 0x40 MLOAD PUSH2 0x156 SWAP2 SWAP1 PUSH2 0x6CA JUMP JUMPDEST PUSH1 0x40 MLOAD DUP1 SWAP2 SUB SWAP1 RETURN JUMPDEST CALLVALUE DUP1 ISZERO PUSH2 0x16B JUMPI PUSH1 0x0 DUP1 REVERT JUMPDEST POP PUSH2 0x186 PUSH1 0x4 DUP1 CALLDATASIZE SUB DUP2 ADD SWAP1 PUSH2 0x181 SWAP2 SWAP1 PUSH2 0x711 JUMP JUMPDEST PUSH2 0x4C6 JUMP JUMPDEST PUSH1 0x40 MLOAD PUSH2 0x193 SWAP2 SWAP1 PUSH2 0x6CA JUMP JUMPDEST PUSH1 0x40 MLOAD DUP1 SWAP2 SUB SWAP1 RETURN JUMPDEST PUSH8 0x4563918244F40000 PUSH2 0x1AE CALLVALUE PUSH2 0x505 JUMP JUMPDEST LT ISZERO PUSH2 0x1EF JUMPI PUSH1 0x40 MLOAD PUSH32 0x8C379A000000000000000000000000000000000000000000000000000000000 DUP2 MSTORE PUSH1 0x4 ADD PUSH2 0x1E6 SWAP1 PUSH2 0x79B JUMP JUMPDEST PUSH1 0x40 MLOAD DUP1 SWAP2 SUB SWAP1 REVERT JUMPDEST CALLVALUE PUSH1 0x0 DUP1 CALLER PUSH20 0xFFFFFFFFFFFFFFFFFFFFFFFFFFFFFFFFFFFFFFFF AND PUSH20 0xFFFFFFFFFFFFFFFFFFFFFFFFFFFFFFFFFFFFFFFF AND DUP2 MSTORE PUSH1 0x20 ADD SWAP1 DUP2 MSTORE PUSH1 0x20 ADD PUSH1 0x0 KECCAK256 PUSH1 0x0 DUP3 DUP3 SLOAD PUSH2 0x23D SWAP2 SWAP1 PUSH2 0x7EA JUMP JUMPDEST SWAP3 POP POP DUP2 SWAP1 SSTORE POP PUSH1 0x1 CALLER SWAP1 DUP1 PUSH1 0x1 DUP2 SLOAD ADD DUP1 DUP3 SSTORE DUP1 SWAP2 POP POP PUSH1 0x1 SWAP1 SUB SWAP1 PUSH1 0x0 MSTORE PUSH1 0x20 PUSH1 0x0 KECCAK256 ADD PUSH1 0x0 SWAP1 SWAP2 SWAP1 SWAP2 SWAP1 SWAP2 PUSH2 0x100 EXP DUP2 SLOAD DUP2 PUSH20 0xFFFFFFFFFFFFFFFFFFFFFFFFFFFFFFFFFFFFFFFF MUL NOT AND SWAP1 DUP4 PUSH20 0xFFFFFFFFFFFFFFFFFFFFFFFFFFFFFFFFFFFFFFFF AND MUL OR SWAP1 SSTORE POP JUMP JUMPDEST PUSH1 0x0 DUP1 PUSH20 0x8A753747A1FA494EC906CE90E9F37563A8AF630E SWAP1 POP DUP1 PUSH20 0xFFFFFFFFFFFFFFFFFFFFFFFFFFFFFFFFFFFFFFFF AND PUSH4 0x54FD4D50 PUSH1 0x40 MLOAD DUP2 PUSH4 0xFFFFFFFF AND PUSH1 0xE0 SHL DUP2 MSTORE PUSH1 0x4 ADD PUSH1 0x20 PUSH1 0x40 MLOAD DUP1 DUP4 SUB DUP2 DUP7 DUP1 EXTCODESIZE ISZERO DUP1 ISZERO PUSH2 0x309 JUMPI PUSH1 0x0 DUP1 REVERT JUMPDEST POP GAS STATICCALL ISZERO DUP1 ISZERO PUSH2 0x31D JUMPI RETURNDATASIZE PUSH1 0x0 DUP1 RETURNDATACOPY RETURNDATASIZE PUSH1 0x0 REVERT JUMPDEST POP POP POP POP PUSH1 0x40 MLOAD RETURNDATASIZE PUSH1 0x1F NOT PUSH1 0x1F DUP3 ADD AND DUP3 ADD DUP1 PUSH1 0x40 MSTORE POP DUP2 ADD SWAP1 PUSH2 0x341 SWAP2 SWAP1 PUSH2 0x855 JUMP JUMPDEST SWAP2 POP POP SWAP1 JUMP JUMPDEST PUSH1 0x2 PUSH1 0x0 SWAP1 SLOAD SWAP1 PUSH2 0x100 EXP SWAP1 DIV PUSH20 0xFFFFFFFFFFFFFFFFFFFFFFFFFFFFFFFFFFFFFFFF AND PUSH20 0xFFFFFFFFFFFFFFFFFFFFFFFFFFFFFFFFFFFFFFFF AND CALLER PUSH20 0xFFFFFFFFFFFFFFFFFFFFFFFFFFFFFFFFFFFFFFFF AND EQ PUSH2 0x3CE JUMPI PUSH1 0x40 MLOAD PUSH32 0x30CD747100000000000000000000000000000000000000000000000000000000 DUP2 MSTORE PUSH1 0x4 ADD PUSH1 0x40 MLOAD DUP1 SWAP2 SUB SWAP1 REVERT JUMPDEST PUSH1 0x0 JUMPDEST PUSH1 0x1 DUP1 SLOAD SWAP1 POP DUP2 LT ISZERO PUSH2 0x479 JUMPI PUSH1 0x0 PUSH1 0x1 DUP3 DUP2 SLOAD DUP2 LT PUSH2 0x3F4 JUMPI PUSH2 0x3F3 PUSH2 0x882 JUMP JUMPDEST JUMPDEST SWAP1 PUSH1 0x0 MSTORE PUSH1 0x20 PUSH1 0x0 KECCAK256 ADD PUSH1 0x0 SWAP1 SLOAD SWAP1 PUSH2 0x100 EXP SWAP1 DIV PUSH20 0xFFFFFFFFFFFFFFFFFFFFFFFFFFFFFFFFFFFFFFFF AND SWAP1 POP PUSH1 0x0 DUP1 PUSH1 0x0 DUP4 PUSH20 0xFFFFFFFFFFFFFFFFFFFFFFFFFFFFFFFFFFFFFFFF AND PUSH20 0xFFFFFFFFFFFFFFFFFFFFFFFFFFFFFFFFFFFFFFFF AND DUP2 MSTORE PUSH1 0x20 ADD SWAP1 DUP2 MSTORE PUSH1 0x20 ADD PUSH1 0x0 KECCAK256 DUP2 SWAP1 SSTORE POP POP DUP1 DUP1 PUSH2 0x471 SWAP1 PUSH2 0x8B1 JUMP JUMPDEST SWAP2 POP POP PUSH2 0x3D1 JUMP JUMPDEST POP JUMP JUMPDEST PUSH1 0x0 PUSH1 0x20 MSTORE DUP1 PUSH1 0x0 MSTORE PUSH1 0x40 PUSH1 0x0 KECCAK256 PUSH1 0x0 SWAP2 POP SWAP1 POP SLOAD DUP2 JUMP JUMPDEST PUSH8 0x4563918244F40000 DUP2 JUMP JUMPDEST PUSH1 0x2 PUSH1 0x0 SWAP1 SLOAD SWAP1 PUSH2 0x100 EXP SWAP1 DIV PUSH20 0xFFFFFFFFFFFFFFFFFFFFFFFFFFFFFFFFFFFFFFFF AND DUP2 JUMP JUMPDEST PUSH1 0x1 DUP2 DUP2 SLOAD DUP2 LT PUSH2 0x4D6 JUMPI PUSH1 0x0 DUP1 REVERT JUMPDEST SWAP1 PUSH1 0x0 MSTORE PUSH1 0x20 PUSH1 0x0 KECCAK256 ADD PUSH1 0x0 SWAP2 POP SLOAD SWAP1 PUSH2 0x100 EXP SWAP1 DIV PUSH20 0xFFFFFFFFFFFFFFFFFFFFFFFFFFFFFFFFFFFFFFFF AND DUP2 JUMP JUMPDEST PUSH1 0x0 DUP1 PUSH2 0x510 PUSH2 0x53F JUMP JUMPDEST SWAP1 POP PUSH1 0x0 PUSH8 0xDE0B6B3A7640000 DUP5 DUP4 PUSH2 0x529 SWAP2 SWAP1 PUSH2 0x8FA JUMP JUMPDEST PUSH2 0x533 SWAP2 SWAP1 PUSH2 0x983 JUMP JUMPDEST SWAP1 POP DUP1 SWAP3 POP POP POP SWAP2 SWAP1 POP JUMP JUMPDEST PUSH1 0x0 DUP1 PUSH20 0x8A753747A1FA494EC906CE90E9F37563A8AF630E SWAP1 POP PUSH1 0x0 DUP2 PUSH20 0xFFFFFFFFFFFFFFFFFFFFFFFFFFFFFFFFFFFFFFFF AND PUSH4 0xFEAF968C PUSH1 0x40 MLOAD DUP2 PUSH4 0xFFFFFFFF AND PUSH1 0xE0 SHL DUP2 MSTORE PUSH1 0x4 ADD PUSH1 0xA0 PUSH1 0x40 MLOAD DUP1 DUP4 SUB DUP2 DUP7 DUP1 EXTCODESIZE ISZERO DUP1 ISZERO PUSH2 0x5A1 JUMPI PUSH1 0x0 DUP1 REVERT JUMPDEST POP GAS STATICCALL ISZERO DUP1 ISZERO PUSH2 0x5B5 JUMPI RETURNDATASIZE PUSH1 0x0 DUP1 RETURNDATACOPY RETURNDATASIZE PUSH1 0x0 REVERT JUMPDEST POP POP POP POP PUSH1 0x40 MLOAD RETURNDATASIZE PUSH1 0x1F NOT PUSH1 0x1F DUP3 ADD AND DUP3 ADD DUP1 PUSH1 0x40 MSTORE POP DUP2 ADD SWAP1 PUSH2 0x5D9 SWAP2 SWAP1 PUSH2 0xA2C JUMP JUMPDEST POP POP POP SWAP2 POP POP PUSH5 0x2540BE400 DUP2 PUSH2 0x5F0 SWAP2 SWAP1 PUSH2 0xAA7 JUMP JUMPDEST SWAP3 POP POP POP SWAP1 JUMP JUMPDEST PUSH1 0x0 DUP2 SWAP1 POP SWAP2 SWAP1 POP JUMP JUMPDEST PUSH2 0x60A DUP2 PUSH2 0x5F7 JUMP JUMPDEST DUP3 MSTORE POP POP JUMP JUMPDEST PUSH1 0x0 PUSH1 0x20 DUP3 ADD SWAP1 POP PUSH2 0x625 PUSH1 0x0 DUP4 ADD DUP5 PUSH2 0x601 JUMP JUMPDEST SWAP3 SWAP2 POP POP JUMP JUMPDEST PUSH1 0x0 DUP1 REVERT JUMPDEST PUSH1 0x0 PUSH20 0xFFFFFFFFFFFFFFFFFFFFFFFFFFFFFFFFFFFFFFFF DUP3 AND SWAP1 POP SWAP2 SWAP1 POP JUMP JUMPDEST PUSH1 0x0 PUSH2 0x65B DUP3 PUSH2 0x630 JUMP JUMPDEST SWAP1 POP SWAP2 SWAP1 POP JUMP JUMPDEST PUSH2 0x66B DUP2 PUSH2 0x650 JUMP JUMPDEST DUP2 EQ PUSH2 0x676 JUMPI PUSH1 0x0 DUP1 REVERT JUMPDEST POP JUMP JUMPDEST PUSH1 0x0 DUP2 CALLDATALOAD SWAP1 POP PUSH2 0x688 DUP2 PUSH2 0x662 JUMP JUMPDEST SWAP3 SWAP2 POP POP JUMP JUMPDEST PUSH1 0x0 PUSH1 0x20 DUP3 DUP5 SUB SLT ISZERO PUSH2 0x6A4 JUMPI PUSH2 0x6A3 PUSH2 0x62B JUMP JUMPDEST JUMPDEST PUSH1 0x0 PUSH2 0x6B2 DUP5 DUP3 DUP6 ADD PUSH2 0x679 JUMP JUMPDEST SWAP2 POP POP SWAP3 SWAP2 POP POP JUMP JUMPDEST PUSH2 0x6C4 DUP2 PUSH2 0x650 JUMP JUMPDEST DUP3 MSTORE POP POP JUMP JUMPDEST PUSH1 0x0 PUSH1 0x20 DUP3 ADD SWAP1 POP PUSH2 0x6DF PUSH1 0x0 DUP4 ADD DUP5 PUSH2 0x6BB JUMP JUMPDEST SWAP3 SWAP2 POP POP JUMP JUMPDEST PUSH2 0x6EE DUP2 PUSH2 0x5F7 JUMP JUMPDEST DUP2 EQ PUSH2 0x6F9 JUMPI PUSH1 0x0 DUP1 REVERT JUMPDEST POP JUMP JUMPDEST PUSH1 0x0 DUP2 CALLDATALOAD SWAP1 POP PUSH2 0x70B DUP2 PUSH2 0x6E5 JUMP JUMPDEST SWAP3 SWAP2 POP POP JUMP JUMPDEST PUSH1 0x0 PUSH1 0x20 DUP3 DUP5 SUB SLT ISZERO PUSH2 0x727 JUMPI PUSH2 0x726 PUSH2 0x62B JUMP JUMPDEST JUMPDEST PUSH1 0x0 PUSH2 0x735 DUP5 DUP3 DUP6 ADD PUSH2 0x6FC JUMP JUMPDEST SWAP2 POP POP SWAP3 SWAP2 POP POP JUMP JUMPDEST PUSH1 0x0 DUP3 DUP3 MSTORE PUSH1 0x20 DUP3 ADD SWAP1 POP SWAP3 SWAP2 POP POP JUMP JUMPDEST PUSH32 0x4E4F5420454E4F55474820455448205350454E54000000000000000000000000 PUSH1 0x0 DUP3 ADD MSTORE POP JUMP JUMPDEST PUSH1 0x0 PUSH2 0x785 PUSH1 0x14 DUP4 PUSH2 0x73E JUMP JUMPDEST SWAP2 POP PUSH2 0x790 DUP3 PUSH2 0x74F JUMP JUMPDEST PUSH1 0x20 DUP3 ADD SWAP1 POP SWAP2 SWAP1 POP JUMP JUMPDEST PUSH1 0x0 PUSH1 0x20 DUP3 ADD SWAP1 POP DUP2 DUP2 SUB PUSH1 0x0 DUP4 ADD MSTORE PUSH2 0x7B4 DUP2 PUSH2 0x778 JUMP JUMPDEST SWAP1 POP SWAP2 SWAP1 POP JUMP JUMPDEST PUSH32 0x4E487B7100000000000000000000000000000000000000000000000000000000 PUSH1 0x0 MSTORE PUSH1 0x11 PUSH1 0x4 MSTORE PUSH1 0x24 PUSH1 0x0 REVERT JUMPDEST PUSH1 0x0 PUSH2 0x7F5 DUP3 PUSH2 0x5F7 JUMP JUMPDEST SWAP2 POP PUSH2 0x800 DUP4 PUSH2 0x5F7 JUMP JUMPDEST SWAP3 POP DUP3 PUSH32 0xFFFFFFFFFFFFFFFFFFFFFFFFFFFFFFFFFFFFFFFFFFFFFFFFFFFFFFFFFFFFFFFF SUB DUP3 GT ISZERO PUSH2 0x835 JUMPI PUSH2 0x834 PUSH2 0x7BB JUMP JUMPDEST JUMPDEST DUP3 DUP3 ADD SWAP1 POP SWAP3 SWAP2 POP POP JUMP JUMPDEST PUSH1 0x0 DUP2 MLOAD SWAP1 POP PUSH2 0x84F DUP2 PUSH2 0x6E5 JUMP JUMPDEST SWAP3 SWAP2 POP POP JUMP JUMPDEST PUSH1 0x0 PUSH1 0x20 DUP3 DUP5 SUB SLT ISZERO PUSH2 0x86B JUMPI PUSH2 0x86A PUSH2 0x62B JUMP JUMPDEST JUMPDEST PUSH1 0x0 PUSH2 0x879 DUP5 DUP3 DUP6 ADD PUSH2 0x840 JUMP JUMPDEST SWAP2 POP POP SWAP3 SWAP2 POP POP JUMP JUMPDEST PUSH32 0x4E487B7100000000000000000000000000000000000000000000000000000000 PUSH1 0x0 MSTORE PUSH1 0x32 PUSH1 0x4 MSTORE PUSH1 0x24 PUSH1 0x0 REVERT JUMPDEST PUSH1 0x0 PUSH2 0x8BC DUP3 PUSH2 0x5F7 JUMP JUMPDEST SWAP2 POP PUSH32 0xFFFFFFFFFFFFFFFFFFFFFFFFFFFFFFFFFFFFFFFFFFFFFFFFFFFFFFFFFFFFFFFF DUP3 EQ ISZERO PUSH2 0x8EF JUMPI PUSH2 0x8EE PUSH2 0x7BB JUMP JUMPDEST JUMPDEST PUSH1 0x1 DUP3 ADD SWAP1 POP SWAP2 SWAP1 POP JUMP JUMPDEST PUSH1 0x0 PUSH2 0x905 DUP3 PUSH2 0x5F7 JUMP JUMPDEST SWAP2 POP PUSH2 0x910 DUP4 PUSH2 0x5F7 JUMP JUMPDEST SWAP3 POP DUP2 PUSH32 0xFFFFFFFFFFFFFFFFFFFFFFFFFFFFFFFFFFFFFFFFFFFFFFFFFFFFFFFFFFFFFFFF DIV DUP4 GT DUP3 ISZERO ISZERO AND ISZERO PUSH2 0x949 JUMPI PUSH2 0x948 PUSH2 0x7BB JUMP JUMPDEST JUMPDEST DUP3 DUP3 MUL SWAP1 POP SWAP3 SWAP2 POP POP JUMP JUMPDEST PUSH32 0x4E487B7100000000000000000000000000000000000000000000000000000000 PUSH1 0x0 MSTORE PUSH1 0x12 PUSH1 0x4 MSTORE PUSH1 0x24 PUSH1 0x0 REVERT JUMPDEST PUSH1 0x0 PUSH2 0x98E DUP3 PUSH2 0x5F7 JUMP JUMPDEST SWAP2 POP PUSH2 0x999 DUP4 PUSH2 0x5F7 JUMP JUMPDEST SWAP3 POP DUP3 PUSH2 0x9A9 JUMPI PUSH2 0x9A8 PUSH2 0x954 JUMP JUMPDEST JUMPDEST DUP3 DUP3 DIV SWAP1 POP SWAP3 SWAP2 POP POP JUMP JUMPDEST PUSH1 0x0 PUSH10 0xFFFFFFFFFFFFFFFFFFFF DUP3 AND SWAP1 POP SWAP2 SWAP1 POP JUMP JUMPDEST PUSH2 0x9D3 DUP2 PUSH2 0x9B4 JUMP JUMPDEST DUP2 EQ PUSH2 0x9DE JUMPI PUSH1 0x0 DUP1 REVERT JUMPDEST POP JUMP JUMPDEST PUSH1 0x0 DUP2 MLOAD SWAP1 POP PUSH2 0x9F0 DUP2 PUSH2 0x9CA JUMP JUMPDEST SWAP3 SWAP2 POP POP JUMP JUMPDEST PUSH1 0x0 DUP2 SWAP1 POP SWAP2 SWAP1 POP JUMP JUMPDEST PUSH2 0xA09 DUP2 PUSH2 0x9F6 JUMP JUMPDEST DUP2 EQ PUSH2 0xA14 JUMPI PUSH1 0x0 DUP1 REVERT JUMPDEST POP JUMP JUMPDEST PUSH1 0x0 DUP2 MLOAD SWAP1 POP PUSH2 0xA26 DUP2 PUSH2 0xA00 JUMP JUMPDEST SWAP3 SWAP2 POP POP JUMP JUMPDEST PUSH1 0x0 DUP1 PUSH1 0x0 DUP1 PUSH1 0x0 PUSH1 0xA0 DUP7 DUP9 SUB SLT ISZERO PUSH2 0xA48 JUMPI PUSH2 0xA47 PUSH2 0x62B JUMP JUMPDEST JUMPDEST PUSH1 0x0 PUSH2 0xA56 DUP9 DUP3 DUP10 ADD PUSH2 0x9E1 JUMP JUMPDEST SWAP6 POP POP PUSH1 0x20 PUSH2 0xA67 DUP9 DUP3 DUP10 ADD PUSH2 0xA17 JUMP JUMPDEST SWAP5 POP POP PUSH1 0x40 PUSH2 0xA78 DUP9 DUP3 DUP10 ADD PUSH2 0x840 JUMP JUMPDEST SWAP4 POP POP PUSH1 0x60 PUSH2 0xA89 DUP9 DUP3 DUP10 ADD PUSH2 0x840 JUMP JUMPDEST SWAP3 POP POP PUSH1 0x80 PUSH2 0xA9A DUP9 DUP3 DUP10 ADD PUSH2 0x9E1 JUMP JUMPDEST SWAP2 POP POP SWAP3 SWAP6 POP SWAP3 SWAP6 SWAP1 SWAP4 POP JUMP JUMPDEST PUSH1 0x0 PUSH2 0xAB2 DUP3 PUSH2 0x9F6 JUMP JUMPDEST SWAP2 POP PUSH2 0xABD DUP4 PUSH2 0x9F6 JUMP JUMPDEST SWAP3 POP DUP3 PUSH32 0x7FFFFFFFFFFFFFFFFFFFFFFFFFFFFFFFFFFFFFFFFFFFFFFFFFFFFFFFFFFFFFFF DIV DUP3 GT PUSH1 0x0 DUP5 SGT PUSH1 0x0 DUP5 SGT AND AND ISZERO PUSH2 0xAFC JUMPI PUSH2 0xAFB PUSH2 0x7BB JUMP JUMPDEST JUMPDEST DUP2 PUSH32 0x8000000000000000000000000000000000000000000000000000000000000000 SDIV DUP4 SLT PUSH1 0x0 DUP5 SLT PUSH1 0x0 DUP5 SGT AND AND ISZERO PUSH2 0xB39 JUMPI PUSH2 0xB38 PUSH2 0x7BB JUMP JUMPDEST JUMPDEST DUP3 PUSH32 0x8000000000000000000000000000000000000000000000000000000000000000 SDIV DUP3 SLT PUSH1 0x0 DUP5 SGT PUSH1 0x0 DUP5 SLT AND AND ISZERO PUSH2 0xB76 JUMPI PUSH2 0xB75 PUSH2 0x7BB JUMP JUMPDEST JUMPDEST DUP3 PUSH32 0x7FFFFFFFFFFFFFFFFFFFFFFFFFFFFFFFFFFFFFFFFFFFFFFFFFFFFFFFFFFFFFFF SDIV DUP3 SLT PUSH1 0x0 DUP5 SLT PUSH1 0x0 DUP5 SLT AND AND ISZERO PUSH2 0xBB3 JUMPI PUSH2 0xBB2 PUSH2 0x7BB JUMP JUMPDEST JUMPDEST DUP3 DUP3 MUL SWAP1 POP SWAP3 SWAP2 POP POP JUMP INVALID LOG2 PUSH5 0x6970667358 0x22 SLT KECCAK256 0x28 PUSH13 0x11375C06066B7A7C97AF3C739 SWAP2 PUSH1 0x35 DIV ADDMOD ADD PUSH6 0x4D746D8238F4 SWAP10 0x2E 0x21 PUSH26 0x64736F6C63430008080033000000000000000000000000000000 "
				},
				"gasEstimates": {
					"creation": {
						"codeDepositCost": "612000",
						"executionCost": "24911",
						"totalCost": "636911"
					},
					"external": {
						"": "infinite",
						"MINIMUM_USD()": "329",
						"adressToAmountFunded(address)": "2859",
						"fund()": "infinite",
						"funders(uint256)": "5022",
						"getVersion()": "infinite",
						"i_owner()": "2558",
						"withdraw()": "infinite"
					}
				},
				"methodIdentifiers": {
					"MINIMUM_USD()": "6b69a592",
					"adressToAmountFunded(address)": "55f2a7d5",
					"fund()": "b60d4288",
					"funders(uint256)": "dc0d3dff",
					"getVersion()": "0d8e6e2c",
					"i_owner()": "dba6335f",
					"withdraw()": "3ccfd60b"
				}
			},
			"storageLayout": {
				"storage": [
					{
						"astId": 58,
						"contract": "contracts/FundMe.sol:FundMe",
						"label": "adressToAmountFunded",
						"offset": 0,
						"slot": "0",
						"type": "t_mapping(t_address,t_uint256)"
					},
					{
						"astId": 61,
						"contract": "contracts/FundMe.sol:FundMe",
						"label": "funders",
						"offset": 0,
						"slot": "1",
						"type": "t_array(t_address)dyn_storage"
					},
					{
						"astId": 63,
						"contract": "contracts/FundMe.sol:FundMe",
						"label": "i_owner",
						"offset": 0,
						"slot": "2",
						"type": "t_address"
					}
				],
				"types": {
					"t_address": {
						"encoding": "inplace",
						"label": "address",
						"numberOfBytes": "20"
					},
					"t_array(t_address)dyn_storage": {
						"base": "t_address",
						"encoding": "dynamic_array",
						"label": "address[]",
						"numberOfBytes": "32"
					},
					"t_mapping(t_address,t_uint256)": {
						"encoding": "mapping",
						"key": "t_address",
						"label": "mapping(address => uint256)",
						"numberOfBytes": "32",
						"value": "t_uint256"
					},
					"t_uint256": {
						"encoding": "inplace",
						"label": "uint256",
						"numberOfBytes": "32"
					}
				}
			},
			"userdoc": {
				"kind": "user",
				"methods": {},
				"version": 1
			}
		}
	}
}