{
	"contracts/Shop9fy.sol": {
		"SeulAot": {
			"abi": [
				{
					"inputs": [
						{
							"internalType": "address",
							"name": "",
							"type": "address"
						}
					],
					"name": "addressToName",
					"outputs": [
						{
							"internalType": "string",
							"name": "",
							"type": "string"
						}
					],
					"stateMutability": "view",
					"type": "function"
				},
				{
					"inputs": [
						{
							"internalType": "address",
							"name": "",
							"type": "address"
						}
					],
					"name": "addressToNum",
					"outputs": [
						{
							"internalType": "uint256",
							"name": "",
							"type": "uint256"
						}
					],
					"stateMutability": "view",
					"type": "function"
				},
				{
					"inputs": [
						{
							"internalType": "uint256",
							"name": "_num",
							"type": "uint256"
						},
						{
							"internalType": "string",
							"name": "_name",
							"type": "string"
						}
					],
					"name": "getUNBA",
					"outputs": [
						{
							"internalType": "uint256",
							"name": "",
							"type": "uint256"
						}
					],
					"stateMutability": "nonpayable",
					"type": "function"
				},
				{
					"inputs": [
						{
							"internalType": "string",
							"name": "",
							"type": "string"
						}
					],
					"name": "nameToAddress",
					"outputs": [
						{
							"internalType": "address",
							"name": "",
							"type": "address"
						}
					],
					"stateMutability": "view",
					"type": "function"
				},
				{
					"inputs": [
						{
							"internalType": "uint256",
							"name": "",
							"type": "uint256"
						}
					],
					"name": "numberToAddress",
					"outputs": [
						{
							"internalType": "address",
							"name": "",
							"type": "address"
						}
					],
					"stateMutability": "view",
					"type": "function"
				}
			],
			"devdoc": {
				"kind": "dev",
				"methods": {},
				"version": 1
			},
			"evm": {
				"assembly": "    /* \"contracts/Shop9fy.sol\":57:1009  contract SeulAot{... */\n  mstore(0x40, 0x80)\n  callvalue\n  dup1\n  iszero\n  tag_1\n  jumpi\n  0x00\n  dup1\n  revert\ntag_1:\n  pop\n  dataSize(sub_0)\n  dup1\n  dataOffset(sub_0)\n  0x00\n  codecopy\n  0x00\n  return\nstop\n\nsub_0: assembly {\n        /* \"contracts/Shop9fy.sol\":57:1009  contract SeulAot{... */\n      mstore(0x40, 0x80)\n      callvalue\n      dup1\n      iszero\n      tag_1\n      jumpi\n      0x00\n      dup1\n      revert\n    tag_1:\n      pop\n      jumpi(tag_2, lt(calldatasize, 0x04))\n      shr(0xe0, calldataload(0x00))\n      dup1\n      0x08d88aad\n      eq\n      tag_3\n      jumpi\n      dup1\n      0x15f6ce05\n      eq\n      tag_4\n      jumpi\n      dup1\n      0xc7cd5a82\n      eq\n      tag_5\n      jumpi\n      dup1\n      0xe011d145\n      eq\n      tag_6\n      jumpi\n      dup1\n      0xe2a04b62\n      eq\n      tag_7\n      jumpi\n    tag_2:\n      0x00\n      dup1\n      revert\n        /* \"contracts/Shop9fy.sol\":293:340  mapping(string => address) public nameToAddress */\n    tag_3:\n      tag_8\n      0x04\n      dup1\n      calldatasize\n      sub\n      dup2\n      add\n      swap1\n      tag_9\n      swap2\n      swap1\n      tag_10\n      jump\t// in\n    tag_9:\n      tag_11\n      jump\t// in\n    tag_8:\n      mload(0x40)\n      tag_12\n      swap2\n      swap1\n      tag_13\n      jump\t// in\n    tag_12:\n      mload(0x40)\n      dup1\n      swap2\n      sub\n      swap1\n      return\n        /* \"contracts/Shop9fy.sol\":520:782  function getUNBA(uint256 _num,string memory _name) public  returns(uint256 ){... */\n    tag_4:\n      tag_14\n      0x04\n      dup1\n      calldatasize\n      sub\n      dup2\n      add\n      swap1\n      tag_15\n      swap2\n      swap1\n      tag_16\n      jump\t// in\n    tag_15:\n      tag_17\n      jump\t// in\n    tag_14:\n      mload(0x40)\n      tag_18\n      swap2\n      swap1\n      tag_19\n      jump\t// in\n    tag_18:\n      mload(0x40)\n      dup1\n      swap2\n      sub\n      swap1\n      return\n        /* \"contracts/Shop9fy.sol\":237:287  mapping(uint256 => address) public numberToAddress */\n    tag_5:\n      tag_20\n      0x04\n      dup1\n      calldatasize\n      sub\n      dup2\n      add\n      swap1\n      tag_21\n      swap2\n      swap1\n      tag_22\n      jump\t// in\n    tag_21:\n      tag_23\n      jump\t// in\n    tag_20:\n      mload(0x40)\n      tag_24\n      swap2\n      swap1\n      tag_13\n      jump\t// in\n    tag_24:\n      mload(0x40)\n      dup1\n      swap2\n      sub\n      swap1\n      return\n        /* \"contracts/Shop9fy.sol\":130:177  mapping(address => uint256) public addressToNum */\n    tag_6:\n      tag_25\n      0x04\n      dup1\n      calldatasize\n      sub\n      dup2\n      add\n      swap1\n      tag_26\n      swap2\n      swap1\n      tag_27\n      jump\t// in\n    tag_26:\n      tag_28\n      jump\t// in\n    tag_25:\n      mload(0x40)\n      tag_29\n      swap2\n      swap1\n      tag_19\n      jump\t// in\n    tag_29:\n      mload(0x40)\n      dup1\n      swap2\n      sub\n      swap1\n      return\n        /* \"contracts/Shop9fy.sol\":183:230  mapping(address => string) public addressToName */\n    tag_7:\n      tag_30\n      0x04\n      dup1\n      calldatasize\n      sub\n      dup2\n      add\n      swap1\n      tag_31\n      swap2\n      swap1\n      tag_27\n      jump\t// in\n    tag_31:\n      tag_32\n      jump\t// in\n    tag_30:\n      mload(0x40)\n      tag_33\n      swap2\n      swap1\n      tag_34\n      jump\t// in\n    tag_33:\n      mload(0x40)\n      dup1\n      swap2\n      sub\n      swap1\n      return\n        /* \"contracts/Shop9fy.sol\":293:340  mapping(string => address) public nameToAddress */\n    tag_11:\n      0x03\n      dup2\n      dup1\n      mload\n      0x20\n      dup2\n      add\n      dup3\n      add\n      dup1\n      mload\n      dup5\n      dup3\n      mstore\n      0x20\n      dup4\n      add\n      0x20\n      dup6\n      add\n      keccak256\n      dup2\n      dup4\n      mstore\n      dup1\n      swap6\n      pop\n      pop\n      pop\n      pop\n      pop\n      pop\n      0x00\n      swap2\n      pop\n      sload\n      swap1\n      0x0100\n      exp\n      swap1\n      div\n      0xffffffffffffffffffffffffffffffffffffffff\n      and\n      dup2\n      jump\t// out\n        /* \"contracts/Shop9fy.sol\":520:782  function getUNBA(uint256 _num,string memory _name) public  returns(uint256 ){... */\n    tag_17:\n        /* \"contracts/Shop9fy.sol\":587:594  uint256 */\n      0x00\n        /* \"contracts/Shop9fy.sol\":634:638  _num */\n      dup3\n        /* \"contracts/Shop9fy.sol\":607:619  addressToNum */\n      0x00\n        /* \"contracts/Shop9fy.sol\":607:631  addressToNum[msg.sender] */\n      dup1\n        /* \"contracts/Shop9fy.sol\":620:630  msg.sender */\n      caller\n        /* \"contracts/Shop9fy.sol\":607:631  addressToNum[msg.sender] */\n      0xffffffffffffffffffffffffffffffffffffffff\n      and\n      0xffffffffffffffffffffffffffffffffffffffff\n      and\n      dup2\n      mstore\n      0x20\n      add\n      swap1\n      dup2\n      mstore\n      0x20\n      add\n      0x00\n      keccak256\n        /* \"contracts/Shop9fy.sol\":607:638  addressToNum[msg.sender] = _num */\n      dup2\n      swap1\n      sstore\n      pop\n        /* \"contracts/Shop9fy.sol\":677:682  _name */\n      dup2\n        /* \"contracts/Shop9fy.sol\":649:662  addressToName */\n      0x01\n        /* \"contracts/Shop9fy.sol\":649:674  addressToName[msg.sender] */\n      0x00\n        /* \"contracts/Shop9fy.sol\":663:673  msg.sender */\n      caller\n        /* \"contracts/Shop9fy.sol\":649:674  addressToName[msg.sender] */\n      0xffffffffffffffffffffffffffffffffffffffff\n      and\n      0xffffffffffffffffffffffffffffffffffffffff\n      and\n      dup2\n      mstore\n      0x20\n      add\n      swap1\n      dup2\n      mstore\n      0x20\n      add\n      0x00\n      keccak256\n        /* \"contracts/Shop9fy.sol\":649:682  addressToName[msg.sender] = _name */\n      swap1\n      dup1\n      mload\n      swap1\n      0x20\n      add\n      swap1\n      tag_36\n      swap3\n      swap2\n      swap1\n      tag_37\n      jump\t// in\n    tag_36:\n      pop\n        /* \"contracts/Shop9fy.sol\":699:711  addressToNum */\n      0x00\n        /* \"contracts/Shop9fy.sol\":699:723  addressToNum[msg.sender] */\n      dup1\n        /* \"contracts/Shop9fy.sol\":712:722  msg.sender */\n      caller\n        /* \"contracts/Shop9fy.sol\":699:723  addressToNum[msg.sender] */\n      0xffffffffffffffffffffffffffffffffffffffff\n      and\n      0xffffffffffffffffffffffffffffffffffffffff\n      and\n      dup2\n      mstore\n      0x20\n      add\n      swap1\n      dup2\n      mstore\n      0x20\n      add\n      0x00\n      keccak256\n      sload\n        /* \"contracts/Shop9fy.sol\":692:724  return(addressToNum[msg.sender]) */\n      swap1\n      pop\n        /* \"contracts/Shop9fy.sol\":520:782  function getUNBA(uint256 _num,string memory _name) public  returns(uint256 ){... */\n      swap3\n      swap2\n      pop\n      pop\n      jump\t// out\n        /* \"contracts/Shop9fy.sol\":237:287  mapping(uint256 => address) public numberToAddress */\n    tag_23:\n      mstore(0x20, 0x02)\n      dup1\n      0x00\n      mstore\n      keccak256(0x00, 0x40)\n      0x00\n      swap2\n      pop\n      sload\n      swap1\n      0x0100\n      exp\n      swap1\n      div\n      0xffffffffffffffffffffffffffffffffffffffff\n      and\n      dup2\n      jump\t// out\n        /* \"contracts/Shop9fy.sol\":130:177  mapping(address => uint256) public addressToNum */\n    tag_28:\n      mstore(0x20, 0x00)\n      dup1\n      0x00\n      mstore\n      keccak256(0x00, 0x40)\n      0x00\n      swap2\n      pop\n      swap1\n      pop\n      sload\n      dup2\n      jump\t// out\n        /* \"contracts/Shop9fy.sol\":183:230  mapping(address => string) public addressToName */\n    tag_32:\n      mstore(0x20, 0x01)\n      dup1\n      0x00\n      mstore\n      keccak256(0x00, 0x40)\n      0x00\n      swap2\n      pop\n      swap1\n      pop\n      dup1\n      sload\n      tag_38\n      swap1\n      tag_39\n      jump\t// in\n    tag_38:\n      dup1\n      0x1f\n      add\n      0x20\n      dup1\n      swap2\n      div\n      mul\n      0x20\n      add\n      mload(0x40)\n      swap1\n      dup2\n      add\n      0x40\n      mstore\n      dup1\n      swap3\n      swap2\n      swap1\n      dup2\n      dup2\n      mstore\n      0x20\n      add\n      dup3\n      dup1\n      sload\n      tag_40\n      swap1\n      tag_39\n      jump\t// in\n    tag_40:\n      dup1\n      iszero\n      tag_41\n      jumpi\n      dup1\n      0x1f\n      lt\n      tag_42\n      jumpi\n      0x0100\n      dup1\n      dup4\n      sload\n      div\n      mul\n      dup4\n      mstore\n      swap2\n      0x20\n      add\n      swap2\n      jump(tag_41)\n    tag_42:\n      dup3\n      add\n      swap2\n      swap1\n      0x00\n      mstore\n      keccak256(0x00, 0x20)\n      swap1\n    tag_43:\n      dup2\n      sload\n      dup2\n      mstore\n      swap1\n      0x01\n      add\n      swap1\n      0x20\n      add\n      dup1\n      dup4\n      gt\n      tag_43\n      jumpi\n      dup3\n      swap1\n      sub\n      0x1f\n      and\n      dup3\n      add\n      swap2\n    tag_41:\n      pop\n      pop\n      pop\n      pop\n      pop\n      dup2\n      jump\t// out\n    tag_37:\n      dup3\n      dup1\n      sload\n      tag_44\n      swap1\n      tag_39\n      jump\t// in\n    tag_44:\n      swap1\n      0x00\n      mstore\n      keccak256(0x00, 0x20)\n      swap1\n      0x1f\n      add\n      0x20\n      swap1\n      div\n      dup2\n      add\n      swap3\n      dup3\n      tag_46\n      jumpi\n      0x00\n      dup6\n      sstore\n      jump(tag_45)\n    tag_46:\n      dup3\n      0x1f\n      lt\n      tag_47\n      jumpi\n      dup1\n      mload\n      not(0xff)\n      and\n      dup4\n      dup1\n      add\n      or\n      dup6\n      sstore\n      jump(tag_45)\n    tag_47:\n      dup3\n      dup1\n      add\n      0x01\n      add\n      dup6\n      sstore\n      dup3\n      iszero\n      tag_45\n      jumpi\n      swap2\n      dup3\n      add\n    tag_48:\n      dup3\n      dup2\n      gt\n      iszero\n      tag_49\n      jumpi\n      dup3\n      mload\n      dup3\n      sstore\n      swap2\n      0x20\n      add\n      swap2\n      swap1\n      0x01\n      add\n      swap1\n      jump(tag_48)\n    tag_49:\n    tag_45:\n      pop\n      swap1\n      pop\n      tag_50\n      swap2\n      swap1\n      tag_51\n      jump\t// in\n    tag_50:\n      pop\n      swap1\n      jump\t// out\n    tag_51:\n    tag_52:\n      dup1\n      dup3\n      gt\n      iszero\n      tag_53\n      jumpi\n      0x00\n      dup2\n      0x00\n      swap1\n      sstore\n      pop\n      0x01\n      add\n      jump(tag_52)\n    tag_53:\n      pop\n      swap1\n      jump\t// out\n        /* \"#utility.yul\":7:82   */\n    tag_54:\n        /* \"#utility.yul\":40:46   */\n      0x00\n        /* \"#utility.yul\":73:75   */\n      0x40\n        /* \"#utility.yul\":67:76   */\n      mload\n        /* \"#utility.yul\":57:76   */\n      swap1\n      pop\n        /* \"#utility.yul\":7:82   */\n      swap1\n      jump\t// out\n        /* \"#utility.yul\":88:205   */\n    tag_55:\n        /* \"#utility.yul\":197:198   */\n      0x00\n        /* \"#utility.yul\":194:195   */\n      dup1\n        /* \"#utility.yul\":187:199   */\n      revert\n        /* \"#utility.yul\":211:328   */\n    tag_56:\n        /* \"#utility.yul\":320:321   */\n      0x00\n        /* \"#utility.yul\":317:318   */\n      dup1\n        /* \"#utility.yul\":310:322   */\n      revert\n        /* \"#utility.yul\":334:451   */\n    tag_57:\n        /* \"#utility.yul\":443:444   */\n      0x00\n        /* \"#utility.yul\":440:441   */\n      dup1\n        /* \"#utility.yul\":433:445   */\n      revert\n        /* \"#utility.yul\":457:574   */\n    tag_58:\n        /* \"#utility.yul\":566:567   */\n      0x00\n        /* \"#utility.yul\":563:564   */\n      dup1\n        /* \"#utility.yul\":556:568   */\n      revert\n        /* \"#utility.yul\":580:682   */\n    tag_59:\n        /* \"#utility.yul\":621:627   */\n      0x00\n        /* \"#utility.yul\":672:674   */\n      0x1f\n        /* \"#utility.yul\":668:675   */\n      not\n        /* \"#utility.yul\":663:665   */\n      0x1f\n        /* \"#utility.yul\":656:661   */\n      dup4\n        /* \"#utility.yul\":652:666   */\n      add\n        /* \"#utility.yul\":648:676   */\n      and\n        /* \"#utility.yul\":638:676   */\n      swap1\n      pop\n        /* \"#utility.yul\":580:682   */\n      swap2\n      swap1\n      pop\n      jump\t// out\n        /* \"#utility.yul\":688:868   */\n    tag_60:\n        /* \"#utility.yul\":736:813   */\n      0x4e487b7100000000000000000000000000000000000000000000000000000000\n        /* \"#utility.yul\":733:734   */\n      0x00\n        /* \"#utility.yul\":726:814   */\n      mstore\n        /* \"#utility.yul\":833:837   */\n      0x41\n        /* \"#utility.yul\":830:831   */\n      0x04\n        /* \"#utility.yul\":823:838   */\n      mstore\n        /* \"#utility.yul\":857:861   */\n      0x24\n        /* \"#utility.yul\":854:855   */\n      0x00\n        /* \"#utility.yul\":847:862   */\n      revert\n        /* \"#utility.yul\":874:1155   */\n    tag_61:\n        /* \"#utility.yul\":957:984   */\n      tag_90\n        /* \"#utility.yul\":979:983   */\n      dup3\n        /* \"#utility.yul\":957:984   */\n      tag_59\n      jump\t// in\n    tag_90:\n        /* \"#utility.yul\":949:955   */\n      dup2\n        /* \"#utility.yul\":945:985   */\n      add\n        /* \"#utility.yul\":1087:1093   */\n      dup2\n        /* \"#utility.yul\":1075:1085   */\n      dup2\n        /* \"#utility.yul\":1072:1094   */\n      lt\n        /* \"#utility.yul\":1051:1069   */\n      0xffffffffffffffff\n        /* \"#utility.yul\":1039:1049   */\n      dup3\n        /* \"#utility.yul\":1036:1070   */\n      gt\n        /* \"#utility.yul\":1033:1095   */\n      or\n        /* \"#utility.yul\":1030:1118   */\n      iszero\n      tag_91\n      jumpi\n        /* \"#utility.yul\":1098:1116   */\n      tag_92\n      tag_60\n      jump\t// in\n    tag_92:\n        /* \"#utility.yul\":1030:1118   */\n    tag_91:\n        /* \"#utility.yul\":1138:1148   */\n      dup1\n        /* \"#utility.yul\":1134:1136   */\n      0x40\n        /* \"#utility.yul\":1127:1149   */\n      mstore\n        /* \"#utility.yul\":917:1155   */\n      pop\n        /* \"#utility.yul\":874:1155   */\n      pop\n      pop\n      jump\t// out\n        /* \"#utility.yul\":1161:1290   */\n    tag_62:\n        /* \"#utility.yul\":1195:1201   */\n      0x00\n        /* \"#utility.yul\":1222:1242   */\n      tag_94\n      tag_54\n      jump\t// in\n    tag_94:\n        /* \"#utility.yul\":1212:1242   */\n      swap1\n      pop\n        /* \"#utility.yul\":1251:1284   */\n      tag_95\n        /* \"#utility.yul\":1279:1283   */\n      dup3\n        /* \"#utility.yul\":1271:1277   */\n      dup3\n        /* \"#utility.yul\":1251:1284   */\n      tag_61\n      jump\t// in\n    tag_95:\n        /* \"#utility.yul\":1161:1290   */\n      swap2\n      swap1\n      pop\n      jump\t// out\n        /* \"#utility.yul\":1296:1604   */\n    tag_63:\n        /* \"#utility.yul\":1358:1362   */\n      0x00\n        /* \"#utility.yul\":1448:1466   */\n      0xffffffffffffffff\n        /* \"#utility.yul\":1440:1446   */\n      dup3\n        /* \"#utility.yul\":1437:1467   */\n      gt\n        /* \"#utility.yul\":1434:1490   */\n      iszero\n      tag_97\n      jumpi\n        /* \"#utility.yul\":1470:1488   */\n      tag_98\n      tag_60\n      jump\t// in\n    tag_98:\n        /* \"#utility.yul\":1434:1490   */\n    tag_97:\n        /* \"#utility.yul\":1508:1537   */\n      tag_99\n        /* \"#utility.yul\":1530:1536   */\n      dup3\n        /* \"#utility.yul\":1508:1537   */\n      tag_59\n      jump\t// in\n    tag_99:\n        /* \"#utility.yul\":1500:1537   */\n      swap1\n      pop\n        /* \"#utility.yul\":1592:1596   */\n      0x20\n        /* \"#utility.yul\":1586:1590   */\n      dup2\n        /* \"#utility.yul\":1582:1597   */\n      add\n        /* \"#utility.yul\":1574:1597   */\n      swap1\n      pop\n        /* \"#utility.yul\":1296:1604   */\n      swap2\n      swap1\n      pop\n      jump\t// out\n        /* \"#utility.yul\":1610:1764   */\n    tag_64:\n        /* \"#utility.yul\":1694:1700   */\n      dup3\n        /* \"#utility.yul\":1689:1692   */\n      dup2\n        /* \"#utility.yul\":1684:1687   */\n      dup4\n        /* \"#utility.yul\":1671:1701   */\n      calldatacopy\n        /* \"#utility.yul\":1756:1757   */\n      0x00\n        /* \"#utility.yul\":1747:1753   */\n      dup4\n        /* \"#utility.yul\":1742:1745   */\n      dup4\n        /* \"#utility.yul\":1738:1754   */\n      add\n        /* \"#utility.yul\":1731:1758   */\n      mstore\n        /* \"#utility.yul\":1610:1764   */\n      pop\n      pop\n      pop\n      jump\t// out\n        /* \"#utility.yul\":1770:2182   */\n    tag_65:\n        /* \"#utility.yul\":1848:1853   */\n      0x00\n        /* \"#utility.yul\":1873:1939   */\n      tag_102\n        /* \"#utility.yul\":1889:1938   */\n      tag_103\n        /* \"#utility.yul\":1931:1937   */\n      dup5\n        /* \"#utility.yul\":1889:1938   */\n      tag_63\n      jump\t// in\n    tag_103:\n        /* \"#utility.yul\":1873:1939   */\n      tag_62\n      jump\t// in\n    tag_102:\n        /* \"#utility.yul\":1864:1939   */\n      swap1\n      pop\n        /* \"#utility.yul\":1962:1968   */\n      dup3\n        /* \"#utility.yul\":1955:1960   */\n      dup2\n        /* \"#utility.yul\":1948:1969   */\n      mstore\n        /* \"#utility.yul\":2000:2004   */\n      0x20\n        /* \"#utility.yul\":1993:1998   */\n      dup2\n        /* \"#utility.yul\":1989:2005   */\n      add\n        /* \"#utility.yul\":2038:2041   */\n      dup5\n        /* \"#utility.yul\":2029:2035   */\n      dup5\n        /* \"#utility.yul\":2024:2027   */\n      dup5\n        /* \"#utility.yul\":2020:2036   */\n      add\n        /* \"#utility.yul\":2017:2042   */\n      gt\n        /* \"#utility.yul\":2014:2126   */\n      iszero\n      tag_104\n      jumpi\n        /* \"#utility.yul\":2045:2124   */\n      tag_105\n      tag_58\n      jump\t// in\n    tag_105:\n        /* \"#utility.yul\":2014:2126   */\n    tag_104:\n        /* \"#utility.yul\":2135:2176   */\n      tag_106\n        /* \"#utility.yul\":2169:2175   */\n      dup5\n        /* \"#utility.yul\":2164:2167   */\n      dup3\n        /* \"#utility.yul\":2159:2162   */\n      dup6\n        /* \"#utility.yul\":2135:2176   */\n      tag_64\n      jump\t// in\n    tag_106:\n        /* \"#utility.yul\":1854:2182   */\n      pop\n        /* \"#utility.yul\":1770:2182   */\n      swap4\n      swap3\n      pop\n      pop\n      pop\n      jump\t// out\n        /* \"#utility.yul\":2202:2542   */\n    tag_66:\n        /* \"#utility.yul\":2258:2263   */\n      0x00\n        /* \"#utility.yul\":2307:2310   */\n      dup3\n        /* \"#utility.yul\":2300:2304   */\n      0x1f\n        /* \"#utility.yul\":2292:2298   */\n      dup4\n        /* \"#utility.yul\":2288:2305   */\n      add\n        /* \"#utility.yul\":2284:2311   */\n      slt\n        /* \"#utility.yul\":2274:2396   */\n      tag_108\n      jumpi\n        /* \"#utility.yul\":2315:2394   */\n      tag_109\n      tag_57\n      jump\t// in\n    tag_109:\n        /* \"#utility.yul\":2274:2396   */\n    tag_108:\n        /* \"#utility.yul\":2432:2438   */\n      dup2\n        /* \"#utility.yul\":2419:2439   */\n      calldataload\n        /* \"#utility.yul\":2457:2536   */\n      tag_110\n        /* \"#utility.yul\":2532:2535   */\n      dup5\n        /* \"#utility.yul\":2524:2530   */\n      dup3\n        /* \"#utility.yul\":2517:2521   */\n      0x20\n        /* \"#utility.yul\":2509:2515   */\n      dup7\n        /* \"#utility.yul\":2505:2522   */\n      add\n        /* \"#utility.yul\":2457:2536   */\n      tag_65\n      jump\t// in\n    tag_110:\n        /* \"#utility.yul\":2448:2536   */\n      swap2\n      pop\n        /* \"#utility.yul\":2264:2542   */\n      pop\n        /* \"#utility.yul\":2202:2542   */\n      swap3\n      swap2\n      pop\n      pop\n      jump\t// out\n        /* \"#utility.yul\":2548:3057   */\n    tag_10:\n        /* \"#utility.yul\":2617:2623   */\n      0x00\n        /* \"#utility.yul\":2666:2668   */\n      0x20\n        /* \"#utility.yul\":2654:2663   */\n      dup3\n        /* \"#utility.yul\":2645:2652   */\n      dup5\n        /* \"#utility.yul\":2641:2664   */\n      sub\n        /* \"#utility.yul\":2637:2669   */\n      slt\n        /* \"#utility.yul\":2634:2753   */\n      iszero\n      tag_112\n      jumpi\n        /* \"#utility.yul\":2672:2751   */\n      tag_113\n      tag_55\n      jump\t// in\n    tag_113:\n        /* \"#utility.yul\":2634:2753   */\n    tag_112:\n        /* \"#utility.yul\":2820:2821   */\n      0x00\n        /* \"#utility.yul\":2809:2818   */\n      dup3\n        /* \"#utility.yul\":2805:2822   */\n      add\n        /* \"#utility.yul\":2792:2823   */\n      calldataload\n        /* \"#utility.yul\":2850:2868   */\n      0xffffffffffffffff\n        /* \"#utility.yul\":2842:2848   */\n      dup2\n        /* \"#utility.yul\":2839:2869   */\n      gt\n        /* \"#utility.yul\":2836:2953   */\n      iszero\n      tag_114\n      jumpi\n        /* \"#utility.yul\":2872:2951   */\n      tag_115\n      tag_56\n      jump\t// in\n    tag_115:\n        /* \"#utility.yul\":2836:2953   */\n    tag_114:\n        /* \"#utility.yul\":2977:3040   */\n      tag_116\n        /* \"#utility.yul\":3032:3039   */\n      dup5\n        /* \"#utility.yul\":3023:3029   */\n      dup3\n        /* \"#utility.yul\":3012:3021   */\n      dup6\n        /* \"#utility.yul\":3008:3030   */\n      add\n        /* \"#utility.yul\":2977:3040   */\n      tag_66\n      jump\t// in\n    tag_116:\n        /* \"#utility.yul\":2967:3040   */\n      swap2\n      pop\n        /* \"#utility.yul\":2763:3050   */\n      pop\n        /* \"#utility.yul\":2548:3057   */\n      swap3\n      swap2\n      pop\n      pop\n      jump\t// out\n        /* \"#utility.yul\":3063:3189   */\n    tag_67:\n        /* \"#utility.yul\":3100:3107   */\n      0x00\n        /* \"#utility.yul\":3140:3182   */\n      0xffffffffffffffffffffffffffffffffffffffff\n        /* \"#utility.yul\":3133:3138   */\n      dup3\n        /* \"#utility.yul\":3129:3183   */\n      and\n        /* \"#utility.yul\":3118:3183   */\n      swap1\n      pop\n        /* \"#utility.yul\":3063:3189   */\n      swap2\n      swap1\n      pop\n      jump\t// out\n        /* \"#utility.yul\":3195:3291   */\n    tag_68:\n        /* \"#utility.yul\":3232:3239   */\n      0x00\n        /* \"#utility.yul\":3261:3285   */\n      tag_119\n        /* \"#utility.yul\":3279:3284   */\n      dup3\n        /* \"#utility.yul\":3261:3285   */\n      tag_67\n      jump\t// in\n    tag_119:\n        /* \"#utility.yul\":3250:3285   */\n      swap1\n      pop\n        /* \"#utility.yul\":3195:3291   */\n      swap2\n      swap1\n      pop\n      jump\t// out\n        /* \"#utility.yul\":3297:3415   */\n    tag_69:\n        /* \"#utility.yul\":3384:3408   */\n      tag_121\n        /* \"#utility.yul\":3402:3407   */\n      dup2\n        /* \"#utility.yul\":3384:3408   */\n      tag_68\n      jump\t// in\n    tag_121:\n        /* \"#utility.yul\":3379:3382   */\n      dup3\n        /* \"#utility.yul\":3372:3409   */\n      mstore\n        /* \"#utility.yul\":3297:3415   */\n      pop\n      pop\n      jump\t// out\n        /* \"#utility.yul\":3421:3643   */\n    tag_13:\n        /* \"#utility.yul\":3514:3518   */\n      0x00\n        /* \"#utility.yul\":3552:3554   */\n      0x20\n        /* \"#utility.yul\":3541:3550   */\n      dup3\n        /* \"#utility.yul\":3537:3555   */\n      add\n        /* \"#utility.yul\":3529:3555   */\n      swap1\n      pop\n        /* \"#utility.yul\":3565:3636   */\n      tag_123\n        /* \"#utility.yul\":3633:3634   */\n      0x00\n        /* \"#utility.yul\":3622:3631   */\n      dup4\n        /* \"#utility.yul\":3618:3635   */\n      add\n        /* \"#utility.yul\":3609:3615   */\n      dup5\n        /* \"#utility.yul\":3565:3636   */\n      tag_69\n      jump\t// in\n    tag_123:\n        /* \"#utility.yul\":3421:3643   */\n      swap3\n      swap2\n      pop\n      pop\n      jump\t// out\n        /* \"#utility.yul\":3649:3726   */\n    tag_70:\n        /* \"#utility.yul\":3686:3693   */\n      0x00\n        /* \"#utility.yul\":3715:3720   */\n      dup2\n        /* \"#utility.yul\":3704:3720   */\n      swap1\n      pop\n        /* \"#utility.yul\":3649:3726   */\n      swap2\n      swap1\n      pop\n      jump\t// out\n        /* \"#utility.yul\":3732:3854   */\n    tag_71:\n        /* \"#utility.yul\":3805:3829   */\n      tag_126\n        /* \"#utility.yul\":3823:3828   */\n      dup2\n        /* \"#utility.yul\":3805:3829   */\n      tag_70\n      jump\t// in\n    tag_126:\n        /* \"#utility.yul\":3798:3803   */\n      dup2\n        /* \"#utility.yul\":3795:3830   */\n      eq\n        /* \"#utility.yul\":3785:3848   */\n      tag_127\n      jumpi\n        /* \"#utility.yul\":3844:3845   */\n      0x00\n        /* \"#utility.yul\":3841:3842   */\n      dup1\n        /* \"#utility.yul\":3834:3846   */\n      revert\n        /* \"#utility.yul\":3785:3848   */\n    tag_127:\n        /* \"#utility.yul\":3732:3854   */\n      pop\n      jump\t// out\n        /* \"#utility.yul\":3860:3999   */\n    tag_72:\n        /* \"#utility.yul\":3906:3911   */\n      0x00\n        /* \"#utility.yul\":3944:3950   */\n      dup2\n        /* \"#utility.yul\":3931:3951   */\n      calldataload\n        /* \"#utility.yul\":3922:3951   */\n      swap1\n      pop\n        /* \"#utility.yul\":3960:3993   */\n      tag_129\n        /* \"#utility.yul\":3987:3992   */\n      dup2\n        /* \"#utility.yul\":3960:3993   */\n      tag_71\n      jump\t// in\n    tag_129:\n        /* \"#utility.yul\":3860:3999   */\n      swap3\n      swap2\n      pop\n      pop\n      jump\t// out\n        /* \"#utility.yul\":4005:4659   */\n    tag_16:\n        /* \"#utility.yul\":4083:4089   */\n      0x00\n        /* \"#utility.yul\":4091:4097   */\n      dup1\n        /* \"#utility.yul\":4140:4142   */\n      0x40\n        /* \"#utility.yul\":4128:4137   */\n      dup4\n        /* \"#utility.yul\":4119:4126   */\n      dup6\n        /* \"#utility.yul\":4115:4138   */\n      sub\n        /* \"#utility.yul\":4111:4143   */\n      slt\n        /* \"#utility.yul\":4108:4227   */\n      iszero\n      tag_131\n      jumpi\n        /* \"#utility.yul\":4146:4225   */\n      tag_132\n      tag_55\n      jump\t// in\n    tag_132:\n        /* \"#utility.yul\":4108:4227   */\n    tag_131:\n        /* \"#utility.yul\":4266:4267   */\n      0x00\n        /* \"#utility.yul\":4291:4344   */\n      tag_133\n        /* \"#utility.yul\":4336:4343   */\n      dup6\n        /* \"#utility.yul\":4327:4333   */\n      dup3\n        /* \"#utility.yul\":4316:4325   */\n      dup7\n        /* \"#utility.yul\":4312:4334   */\n      add\n        /* \"#utility.yul\":4291:4344   */\n      tag_72\n      jump\t// in\n    tag_133:\n        /* \"#utility.yul\":4281:4344   */\n      swap3\n      pop\n        /* \"#utility.yul\":4237:4354   */\n      pop\n        /* \"#utility.yul\":4421:4423   */\n      0x20\n        /* \"#utility.yul\":4410:4419   */\n      dup4\n        /* \"#utility.yul\":4406:4424   */\n      add\n        /* \"#utility.yul\":4393:4425   */\n      calldataload\n        /* \"#utility.yul\":4452:4470   */\n      0xffffffffffffffff\n        /* \"#utility.yul\":4444:4450   */\n      dup2\n        /* \"#utility.yul\":4441:4471   */\n      gt\n        /* \"#utility.yul\":4438:4555   */\n      iszero\n      tag_134\n      jumpi\n        /* \"#utility.yul\":4474:4553   */\n      tag_135\n      tag_56\n      jump\t// in\n    tag_135:\n        /* \"#utility.yul\":4438:4555   */\n    tag_134:\n        /* \"#utility.yul\":4579:4642   */\n      tag_136\n        /* \"#utility.yul\":4634:4641   */\n      dup6\n        /* \"#utility.yul\":4625:4631   */\n      dup3\n        /* \"#utility.yul\":4614:4623   */\n      dup7\n        /* \"#utility.yul\":4610:4632   */\n      add\n        /* \"#utility.yul\":4579:4642   */\n      tag_66\n      jump\t// in\n    tag_136:\n        /* \"#utility.yul\":4569:4642   */\n      swap2\n      pop\n        /* \"#utility.yul\":4364:4652   */\n      pop\n        /* \"#utility.yul\":4005:4659   */\n      swap3\n      pop\n      swap3\n      swap1\n      pop\n      jump\t// out\n        /* \"#utility.yul\":4665:4783   */\n    tag_73:\n        /* \"#utility.yul\":4752:4776   */\n      tag_138\n        /* \"#utility.yul\":4770:4775   */\n      dup2\n        /* \"#utility.yul\":4752:4776   */\n      tag_70\n      jump\t// in\n    tag_138:\n        /* \"#utility.yul\":4747:4750   */\n      dup3\n        /* \"#utility.yul\":4740:4777   */\n      mstore\n        /* \"#utility.yul\":4665:4783   */\n      pop\n      pop\n      jump\t// out\n        /* \"#utility.yul\":4789:5011   */\n    tag_19:\n        /* \"#utility.yul\":4882:4886   */\n      0x00\n        /* \"#utility.yul\":4920:4922   */\n      0x20\n        /* \"#utility.yul\":4909:4918   */\n      dup3\n        /* \"#utility.yul\":4905:4923   */\n      add\n        /* \"#utility.yul\":4897:4923   */\n      swap1\n      pop\n        /* \"#utility.yul\":4933:5004   */\n      tag_140\n        /* \"#utility.yul\":5001:5002   */\n      0x00\n        /* \"#utility.yul\":4990:4999   */\n      dup4\n        /* \"#utility.yul\":4986:5003   */\n      add\n        /* \"#utility.yul\":4977:4983   */\n      dup5\n        /* \"#utility.yul\":4933:5004   */\n      tag_73\n      jump\t// in\n    tag_140:\n        /* \"#utility.yul\":4789:5011   */\n      swap3\n      swap2\n      pop\n      pop\n      jump\t// out\n        /* \"#utility.yul\":5017:5346   */\n    tag_22:\n        /* \"#utility.yul\":5076:5082   */\n      0x00\n        /* \"#utility.yul\":5125:5127   */\n      0x20\n        /* \"#utility.yul\":5113:5122   */\n      dup3\n        /* \"#utility.yul\":5104:5111   */\n      dup5\n        /* \"#utility.yul\":5100:5123   */\n      sub\n        /* \"#utility.yul\":5096:5128   */\n      slt\n        /* \"#utility.yul\":5093:5212   */\n      iszero\n      tag_142\n      jumpi\n        /* \"#utility.yul\":5131:5210   */\n      tag_143\n      tag_55\n      jump\t// in\n    tag_143:\n        /* \"#utility.yul\":5093:5212   */\n    tag_142:\n        /* \"#utility.yul\":5251:5252   */\n      0x00\n        /* \"#utility.yul\":5276:5329   */\n      tag_144\n        /* \"#utility.yul\":5321:5328   */\n      dup5\n        /* \"#utility.yul\":5312:5318   */\n      dup3\n        /* \"#utility.yul\":5301:5310   */\n      dup6\n        /* \"#utility.yul\":5297:5319   */\n      add\n        /* \"#utility.yul\":5276:5329   */\n      tag_72\n      jump\t// in\n    tag_144:\n        /* \"#utility.yul\":5266:5329   */\n      swap2\n      pop\n        /* \"#utility.yul\":5222:5339   */\n      pop\n        /* \"#utility.yul\":5017:5346   */\n      swap3\n      swap2\n      pop\n      pop\n      jump\t// out\n        /* \"#utility.yul\":5352:5474   */\n    tag_74:\n        /* \"#utility.yul\":5425:5449   */\n      tag_146\n        /* \"#utility.yul\":5443:5448   */\n      dup2\n        /* \"#utility.yul\":5425:5449   */\n      tag_68\n      jump\t// in\n    tag_146:\n        /* \"#utility.yul\":5418:5423   */\n      dup2\n        /* \"#utility.yul\":5415:5450   */\n      eq\n        /* \"#utility.yul\":5405:5468   */\n      tag_147\n      jumpi\n        /* \"#utility.yul\":5464:5465   */\n      0x00\n        /* \"#utility.yul\":5461:5462   */\n      dup1\n        /* \"#utility.yul\":5454:5466   */\n      revert\n        /* \"#utility.yul\":5405:5468   */\n    tag_147:\n        /* \"#utility.yul\":5352:5474   */\n      pop\n      jump\t// out\n        /* \"#utility.yul\":5480:5619   */\n    tag_75:\n        /* \"#utility.yul\":5526:5531   */\n      0x00\n        /* \"#utility.yul\":5564:5570   */\n      dup2\n        /* \"#utility.yul\":5551:5571   */\n      calldataload\n        /* \"#utility.yul\":5542:5571   */\n      swap1\n      pop\n        /* \"#utility.yul\":5580:5613   */\n      tag_149\n        /* \"#utility.yul\":5607:5612   */\n      dup2\n        /* \"#utility.yul\":5580:5613   */\n      tag_74\n      jump\t// in\n    tag_149:\n        /* \"#utility.yul\":5480:5619   */\n      swap3\n      swap2\n      pop\n      pop\n      jump\t// out\n        /* \"#utility.yul\":5625:5954   */\n    tag_27:\n        /* \"#utility.yul\":5684:5690   */\n      0x00\n        /* \"#utility.yul\":5733:5735   */\n      0x20\n        /* \"#utility.yul\":5721:5730   */\n      dup3\n        /* \"#utility.yul\":5712:5719   */\n      dup5\n        /* \"#utility.yul\":5708:5731   */\n      sub\n        /* \"#utility.yul\":5704:5736   */\n      slt\n        /* \"#utility.yul\":5701:5820   */\n      iszero\n      tag_151\n      jumpi\n        /* \"#utility.yul\":5739:5818   */\n      tag_152\n      tag_55\n      jump\t// in\n    tag_152:\n        /* \"#utility.yul\":5701:5820   */\n    tag_151:\n        /* \"#utility.yul\":5859:5860   */\n      0x00\n        /* \"#utility.yul\":5884:5937   */\n      tag_153\n        /* \"#utility.yul\":5929:5936   */\n      dup5\n        /* \"#utility.yul\":5920:5926   */\n      dup3\n        /* \"#utility.yul\":5909:5918   */\n      dup6\n        /* \"#utility.yul\":5905:5927   */\n      add\n        /* \"#utility.yul\":5884:5937   */\n      tag_75\n      jump\t// in\n    tag_153:\n        /* \"#utility.yul\":5874:5937   */\n      swap2\n      pop\n        /* \"#utility.yul\":5830:5947   */\n      pop\n        /* \"#utility.yul\":5625:5954   */\n      swap3\n      swap2\n      pop\n      pop\n      jump\t// out\n        /* \"#utility.yul\":5960:6059   */\n    tag_76:\n        /* \"#utility.yul\":6012:6018   */\n      0x00\n        /* \"#utility.yul\":6046:6051   */\n      dup2\n        /* \"#utility.yul\":6040:6052   */\n      mload\n        /* \"#utility.yul\":6030:6052   */\n      swap1\n      pop\n        /* \"#utility.yul\":5960:6059   */\n      swap2\n      swap1\n      pop\n      jump\t// out\n        /* \"#utility.yul\":6065:6234   */\n    tag_77:\n        /* \"#utility.yul\":6149:6160   */\n      0x00\n        /* \"#utility.yul\":6183:6189   */\n      dup3\n        /* \"#utility.yul\":6178:6181   */\n      dup3\n        /* \"#utility.yul\":6171:6190   */\n      mstore\n        /* \"#utility.yul\":6223:6227   */\n      0x20\n        /* \"#utility.yul\":6218:6221   */\n      dup3\n        /* \"#utility.yul\":6214:6228   */\n      add\n        /* \"#utility.yul\":6199:6228   */\n      swap1\n      pop\n        /* \"#utility.yul\":6065:6234   */\n      swap3\n      swap2\n      pop\n      pop\n      jump\t// out\n        /* \"#utility.yul\":6240:6547   */\n    tag_78:\n        /* \"#utility.yul\":6308:6309   */\n      0x00\n        /* \"#utility.yul\":6318:6431   */\n    tag_157:\n        /* \"#utility.yul\":6332:6338   */\n      dup4\n        /* \"#utility.yul\":6329:6330   */\n      dup2\n        /* \"#utility.yul\":6326:6339   */\n      lt\n        /* \"#utility.yul\":6318:6431   */\n      iszero\n      tag_159\n      jumpi\n        /* \"#utility.yul\":6417:6418   */\n      dup1\n        /* \"#utility.yul\":6412:6415   */\n      dup3\n        /* \"#utility.yul\":6408:6419   */\n      add\n        /* \"#utility.yul\":6402:6420   */\n      mload\n        /* \"#utility.yul\":6398:6399   */\n      dup2\n        /* \"#utility.yul\":6393:6396   */\n      dup5\n        /* \"#utility.yul\":6389:6400   */\n      add\n        /* \"#utility.yul\":6382:6421   */\n      mstore\n        /* \"#utility.yul\":6354:6356   */\n      0x20\n        /* \"#utility.yul\":6351:6352   */\n      dup2\n        /* \"#utility.yul\":6347:6357   */\n      add\n        /* \"#utility.yul\":6342:6357   */\n      swap1\n      pop\n        /* \"#utility.yul\":6318:6431   */\n      jump(tag_157)\n    tag_159:\n        /* \"#utility.yul\":6449:6455   */\n      dup4\n        /* \"#utility.yul\":6446:6447   */\n      dup2\n        /* \"#utility.yul\":6443:6456   */\n      gt\n        /* \"#utility.yul\":6440:6541   */\n      iszero\n      tag_160\n      jumpi\n        /* \"#utility.yul\":6529:6530   */\n      0x00\n        /* \"#utility.yul\":6520:6526   */\n      dup5\n        /* \"#utility.yul\":6515:6518   */\n      dup5\n        /* \"#utility.yul\":6511:6527   */\n      add\n        /* \"#utility.yul\":6504:6531   */\n      mstore\n        /* \"#utility.yul\":6440:6541   */\n    tag_160:\n        /* \"#utility.yul\":6289:6547   */\n      pop\n        /* \"#utility.yul\":6240:6547   */\n      pop\n      pop\n      pop\n      jump\t// out\n        /* \"#utility.yul\":6553:6917   */\n    tag_79:\n        /* \"#utility.yul\":6641:6644   */\n      0x00\n        /* \"#utility.yul\":6669:6708   */\n      tag_162\n        /* \"#utility.yul\":6702:6707   */\n      dup3\n        /* \"#utility.yul\":6669:6708   */\n      tag_76\n      jump\t// in\n    tag_162:\n        /* \"#utility.yul\":6724:6795   */\n      tag_163\n        /* \"#utility.yul\":6788:6794   */\n      dup2\n        /* \"#utility.yul\":6783:6786   */\n      dup6\n        /* \"#utility.yul\":6724:6795   */\n      tag_77\n      jump\t// in\n    tag_163:\n        /* \"#utility.yul\":6717:6795   */\n      swap4\n      pop\n        /* \"#utility.yul\":6804:6856   */\n      tag_164\n        /* \"#utility.yul\":6849:6855   */\n      dup2\n        /* \"#utility.yul\":6844:6847   */\n      dup6\n        /* \"#utility.yul\":6837:6841   */\n      0x20\n        /* \"#utility.yul\":6830:6835   */\n      dup7\n        /* \"#utility.yul\":6826:6842   */\n      add\n        /* \"#utility.yul\":6804:6856   */\n      tag_78\n      jump\t// in\n    tag_164:\n        /* \"#utility.yul\":6881:6910   */\n      tag_165\n        /* \"#utility.yul\":6903:6909   */\n      dup2\n        /* \"#utility.yul\":6881:6910   */\n      tag_59\n      jump\t// in\n    tag_165:\n        /* \"#utility.yul\":6876:6879   */\n      dup5\n        /* \"#utility.yul\":6872:6911   */\n      add\n        /* \"#utility.yul\":6865:6911   */\n      swap2\n      pop\n        /* \"#utility.yul\":6645:6917   */\n      pop\n        /* \"#utility.yul\":6553:6917   */\n      swap3\n      swap2\n      pop\n      pop\n      jump\t// out\n        /* \"#utility.yul\":6923:7236   */\n    tag_34:\n        /* \"#utility.yul\":7036:7040   */\n      0x00\n        /* \"#utility.yul\":7074:7076   */\n      0x20\n        /* \"#utility.yul\":7063:7072   */\n      dup3\n        /* \"#utility.yul\":7059:7077   */\n      add\n        /* \"#utility.yul\":7051:7077   */\n      swap1\n      pop\n        /* \"#utility.yul\":7123:7132   */\n      dup2\n        /* \"#utility.yul\":7117:7121   */\n      dup2\n        /* \"#utility.yul\":7113:7133   */\n      sub\n        /* \"#utility.yul\":7109:7110   */\n      0x00\n        /* \"#utility.yul\":7098:7107   */\n      dup4\n        /* \"#utility.yul\":7094:7111   */\n      add\n        /* \"#utility.yul\":7087:7134   */\n      mstore\n        /* \"#utility.yul\":7151:7229   */\n      tag_167\n        /* \"#utility.yul\":7224:7228   */\n      dup2\n        /* \"#utility.yul\":7215:7221   */\n      dup5\n        /* \"#utility.yul\":7151:7229   */\n      tag_79\n      jump\t// in\n    tag_167:\n        /* \"#utility.yul\":7143:7229   */\n      swap1\n      pop\n        /* \"#utility.yul\":6923:7236   */\n      swap3\n      swap2\n      pop\n      pop\n      jump\t// out\n        /* \"#utility.yul\":7242:7422   */\n    tag_80:\n        /* \"#utility.yul\":7290:7367   */\n      0x4e487b7100000000000000000000000000000000000000000000000000000000\n        /* \"#utility.yul\":7287:7288   */\n      0x00\n        /* \"#utility.yul\":7280:7368   */\n      mstore\n        /* \"#utility.yul\":7387:7391   */\n      0x22\n        /* \"#utility.yul\":7384:7385   */\n      0x04\n        /* \"#utility.yul\":7377:7392   */\n      mstore\n        /* \"#utility.yul\":7411:7415   */\n      0x24\n        /* \"#utility.yul\":7408:7409   */\n      0x00\n        /* \"#utility.yul\":7401:7416   */\n      revert\n        /* \"#utility.yul\":7428:7748   */\n    tag_39:\n        /* \"#utility.yul\":7472:7478   */\n      0x00\n        /* \"#utility.yul\":7509:7510   */\n      0x02\n        /* \"#utility.yul\":7503:7507   */\n      dup3\n        /* \"#utility.yul\":7499:7511   */\n      div\n        /* \"#utility.yul\":7489:7511   */\n      swap1\n      pop\n        /* \"#utility.yul\":7556:7557   */\n      0x01\n        /* \"#utility.yul\":7550:7554   */\n      dup3\n        /* \"#utility.yul\":7546:7558   */\n      and\n        /* \"#utility.yul\":7577:7595   */\n      dup1\n        /* \"#utility.yul\":7567:7648   */\n      tag_170\n      jumpi\n        /* \"#utility.yul\":7633:7637   */\n      0x7f\n        /* \"#utility.yul\":7625:7631   */\n      dup3\n        /* \"#utility.yul\":7621:7638   */\n      and\n        /* \"#utility.yul\":7611:7638   */\n      swap2\n      pop\n        /* \"#utility.yul\":7567:7648   */\n    tag_170:\n        /* \"#utility.yul\":7695:7697   */\n      0x20\n        /* \"#utility.yul\":7687:7693   */\n      dup3\n        /* \"#utility.yul\":7684:7698   */\n      lt\n        /* \"#utility.yul\":7664:7682   */\n      dup2\n        /* \"#utility.yul\":7661:7699   */\n      eq\n        /* \"#utility.yul\":7658:7742   */\n      iszero\n      tag_171\n      jumpi\n        /* \"#utility.yul\":7714:7732   */\n      tag_172\n      tag_80\n      jump\t// in\n    tag_172:\n        /* \"#utility.yul\":7658:7742   */\n    tag_171:\n        /* \"#utility.yul\":7479:7748   */\n      pop\n        /* \"#utility.yul\":7428:7748   */\n      swap2\n      swap1\n      pop\n      jump\t// out\n\n    auxdata: 0xa264697066735822122025657867abd9480454e08f72c57d20ba16342e806bf99e36d01595555878cb1664736f6c63430008080033\n}\n",
				"bytecode": {
					"linkReferences": {},
					"object": "608060405234801561001057600080fd5b50610885806100206000396000f3fe608060405234801561001057600080fd5b50600436106100575760003560e01c806308d88aad1461005c57806315f6ce051461008c578063c7cd5a82146100bc578063e011d145146100ec578063e2a04b621461011c575b600080fd5b6100766004803603810190610071919061055d565b61014c565b60405161008391906105e7565b60405180910390f35b6100a660048036038101906100a19190610638565b610195565b6040516100b391906106a3565b60405180910390f35b6100d660048036038101906100d191906106be565b610275565b6040516100e391906105e7565b60405180910390f35b61010660048036038101906101019190610717565b6102a8565b60405161011391906106a3565b60405180910390f35b61013660048036038101906101319190610717565b6102c0565b60405161014391906107cc565b60405180910390f35b6003818051602081018201805184825260208301602085012081835280955050505050506000915054906101000a900473ffffffffffffffffffffffffffffffffffffffff1681565b6000826000803373ffffffffffffffffffffffffffffffffffffffff1673ffffffffffffffffffffffffffffffffffffffff1681526020019081526020016000208190555081600160003373ffffffffffffffffffffffffffffffffffffffff1673ffffffffffffffffffffffffffffffffffffffff168152602001908152602001600020908051906020019061022d929190610360565b506000803373ffffffffffffffffffffffffffffffffffffffff1673ffffffffffffffffffffffffffffffffffffffff16815260200190815260200160002054905092915050565b60026020528060005260406000206000915054906101000a900473ffffffffffffffffffffffffffffffffffffffff1681565b60006020528060005260406000206000915090505481565b600160205280600052604060002060009150905080546102df9061081d565b80601f016020809104026020016040519081016040528092919081815260200182805461030b9061081d565b80156103585780601f1061032d57610100808354040283529160200191610358565b820191906000526020600020905b81548152906001019060200180831161033b57829003601f168201915b505050505081565b82805461036c9061081d565b90600052602060002090601f01602090048101928261038e57600085556103d5565b82601f106103a757805160ff19168380011785556103d5565b828001600101855582156103d5579182015b828111156103d45782518255916020019190600101906103b9565b5b5090506103e291906103e6565b5090565b5b808211156103ff5760008160009055506001016103e7565b5090565b6000604051905090565b600080fd5b600080fd5b600080fd5b600080fd5b6000601f19601f8301169050919050565b7f4e487b7100000000000000000000000000000000000000000000000000000000600052604160045260246000fd5b61046a82610421565b810181811067ffffffffffffffff8211171561048957610488610432565b5b80604052505050565b600061049c610403565b90506104a88282610461565b919050565b600067ffffffffffffffff8211156104c8576104c7610432565b5b6104d182610421565b9050602081019050919050565b82818337600083830152505050565b60006105006104fb846104ad565b610492565b90508281526020810184848401111561051c5761051b61041c565b5b6105278482856104de565b509392505050565b600082601f83011261054457610543610417565b5b81356105548482602086016104ed565b91505092915050565b6000602082840312156105735761057261040d565b5b600082013567ffffffffffffffff81111561059157610590610412565b5b61059d8482850161052f565b91505092915050565b600073ffffffffffffffffffffffffffffffffffffffff82169050919050565b60006105d1826105a6565b9050919050565b6105e1816105c6565b82525050565b60006020820190506105fc60008301846105d8565b92915050565b6000819050919050565b61061581610602565b811461062057600080fd5b50565b6000813590506106328161060c565b92915050565b6000806040838503121561064f5761064e61040d565b5b600061065d85828601610623565b925050602083013567ffffffffffffffff81111561067e5761067d610412565b5b61068a8582860161052f565b9150509250929050565b61069d81610602565b82525050565b60006020820190506106b86000830184610694565b92915050565b6000602082840312156106d4576106d361040d565b5b60006106e284828501610623565b91505092915050565b6106f4816105c6565b81146106ff57600080fd5b50565b600081359050610711816106eb565b92915050565b60006020828403121561072d5761072c61040d565b5b600061073b84828501610702565b91505092915050565b600081519050919050565b600082825260208201905092915050565b60005b8381101561077e578082015181840152602081019050610763565b8381111561078d576000848401525b50505050565b600061079e82610744565b6107a8818561074f565b93506107b8818560208601610760565b6107c181610421565b840191505092915050565b600060208201905081810360008301526107e68184610793565b905092915050565b7f4e487b7100000000000000000000000000000000000000000000000000000000600052602260045260246000fd5b6000600282049050600182168061083557607f821691505b60208210811415610849576108486107ee565b5b5091905056fea264697066735822122025657867abd9480454e08f72c57d20ba16342e806bf99e36d01595555878cb1664736f6c63430008080033",
					"opcodes": "PUSH1 0x80 PUSH1 0x40 MSTORE CALLVALUE DUP1 ISZERO PUSH2 0x10 JUMPI PUSH1 0x0 DUP1 REVERT JUMPDEST POP PUSH2 0x885 DUP1 PUSH2 0x20 PUSH1 0x0 CODECOPY PUSH1 0x0 RETURN INVALID PUSH1 0x80 PUSH1 0x40 MSTORE CALLVALUE DUP1 ISZERO PUSH2 0x10 JUMPI PUSH1 0x0 DUP1 REVERT JUMPDEST POP PUSH1 0x4 CALLDATASIZE LT PUSH2 0x57 JUMPI PUSH1 0x0 CALLDATALOAD PUSH1 0xE0 SHR DUP1 PUSH4 0x8D88AAD EQ PUSH2 0x5C JUMPI DUP1 PUSH4 0x15F6CE05 EQ PUSH2 0x8C JUMPI DUP1 PUSH4 0xC7CD5A82 EQ PUSH2 0xBC JUMPI DUP1 PUSH4 0xE011D145 EQ PUSH2 0xEC JUMPI DUP1 PUSH4 0xE2A04B62 EQ PUSH2 0x11C JUMPI JUMPDEST PUSH1 0x0 DUP1 REVERT JUMPDEST PUSH2 0x76 PUSH1 0x4 DUP1 CALLDATASIZE SUB DUP2 ADD SWAP1 PUSH2 0x71 SWAP2 SWAP1 PUSH2 0x55D JUMP JUMPDEST PUSH2 0x14C JUMP JUMPDEST PUSH1 0x40 MLOAD PUSH2 0x83 SWAP2 SWAP1 PUSH2 0x5E7 JUMP JUMPDEST PUSH1 0x40 MLOAD DUP1 SWAP2 SUB SWAP1 RETURN JUMPDEST PUSH2 0xA6 PUSH1 0x4 DUP1 CALLDATASIZE SUB DUP2 ADD SWAP1 PUSH2 0xA1 SWAP2 SWAP1 PUSH2 0x638 JUMP JUMPDEST PUSH2 0x195 JUMP JUMPDEST PUSH1 0x40 MLOAD PUSH2 0xB3 SWAP2 SWAP1 PUSH2 0x6A3 JUMP JUMPDEST PUSH1 0x40 MLOAD DUP1 SWAP2 SUB SWAP1 RETURN JUMPDEST PUSH2 0xD6 PUSH1 0x4 DUP1 CALLDATASIZE SUB DUP2 ADD SWAP1 PUSH2 0xD1 SWAP2 SWAP1 PUSH2 0x6BE JUMP JUMPDEST PUSH2 0x275 JUMP JUMPDEST PUSH1 0x40 MLOAD PUSH2 0xE3 SWAP2 SWAP1 PUSH2 0x5E7 JUMP JUMPDEST PUSH1 0x40 MLOAD DUP1 SWAP2 SUB SWAP1 RETURN JUMPDEST PUSH2 0x106 PUSH1 0x4 DUP1 CALLDATASIZE SUB DUP2 ADD SWAP1 PUSH2 0x101 SWAP2 SWAP1 PUSH2 0x717 JUMP JUMPDEST PUSH2 0x2A8 JUMP JUMPDEST PUSH1 0x40 MLOAD PUSH2 0x113 SWAP2 SWAP1 PUSH2 0x6A3 JUMP JUMPDEST PUSH1 0x40 MLOAD DUP1 SWAP2 SUB SWAP1 RETURN JUMPDEST PUSH2 0x136 PUSH1 0x4 DUP1 CALLDATASIZE SUB DUP2 ADD SWAP1 PUSH2 0x131 SWAP2 SWAP1 PUSH2 0x717 JUMP JUMPDEST PUSH2 0x2C0 JUMP JUMPDEST PUSH1 0x40 MLOAD PUSH2 0x143 SWAP2 SWAP1 PUSH2 0x7CC JUMP JUMPDEST PUSH1 0x40 MLOAD DUP1 SWAP2 SUB SWAP1 RETURN JUMPDEST PUSH1 0x3 DUP2 DUP1 MLOAD PUSH1 0x20 DUP2 ADD DUP3 ADD DUP1 MLOAD DUP5 DUP3 MSTORE PUSH1 0x20 DUP4 ADD PUSH1 0x20 DUP6 ADD KECCAK256 DUP2 DUP4 MSTORE DUP1 SWAP6 POP POP POP POP POP POP PUSH1 0x0 SWAP2 POP SLOAD SWAP1 PUSH2 0x100 EXP SWAP1 DIV PUSH20 0xFFFFFFFFFFFFFFFFFFFFFFFFFFFFFFFFFFFFFFFF AND DUP2 JUMP JUMPDEST PUSH1 0x0 DUP3 PUSH1 0x0 DUP1 CALLER PUSH20 0xFFFFFFFFFFFFFFFFFFFFFFFFFFFFFFFFFFFFFFFF AND PUSH20 0xFFFFFFFFFFFFFFFFFFFFFFFFFFFFFFFFFFFFFFFF AND DUP2 MSTORE PUSH1 0x20 ADD SWAP1 DUP2 MSTORE PUSH1 0x20 ADD PUSH1 0x0 KECCAK256 DUP2 SWAP1 SSTORE POP DUP2 PUSH1 0x1 PUSH1 0x0 CALLER PUSH20 0xFFFFFFFFFFFFFFFFFFFFFFFFFFFFFFFFFFFFFFFF AND PUSH20 0xFFFFFFFFFFFFFFFFFFFFFFFFFFFFFFFFFFFFFFFF AND DUP2 MSTORE PUSH1 0x20 ADD SWAP1 DUP2 MSTORE PUSH1 0x20 ADD PUSH1 0x0 KECCAK256 SWAP1 DUP1 MLOAD SWAP1 PUSH1 0x20 ADD SWAP1 PUSH2 0x22D SWAP3 SWAP2 SWAP1 PUSH2 0x360 JUMP JUMPDEST POP PUSH1 0x0 DUP1 CALLER PUSH20 0xFFFFFFFFFFFFFFFFFFFFFFFFFFFFFFFFFFFFFFFF AND PUSH20 0xFFFFFFFFFFFFFFFFFFFFFFFFFFFFFFFFFFFFFFFF AND DUP2 MSTORE PUSH1 0x20 ADD SWAP1 DUP2 MSTORE PUSH1 0x20 ADD PUSH1 0x0 KECCAK256 SLOAD SWAP1 POP SWAP3 SWAP2 POP POP JUMP JUMPDEST PUSH1 0x2 PUSH1 0x20 MSTORE DUP1 PUSH1 0x0 MSTORE PUSH1 0x40 PUSH1 0x0 KECCAK256 PUSH1 0x0 SWAP2 POP SLOAD SWAP1 PUSH2 0x100 EXP SWAP1 DIV PUSH20 0xFFFFFFFFFFFFFFFFFFFFFFFFFFFFFFFFFFFFFFFF AND DUP2 JUMP JUMPDEST PUSH1 0x0 PUSH1 0x20 MSTORE DUP1 PUSH1 0x0 MSTORE PUSH1 0x40 PUSH1 0x0 KECCAK256 PUSH1 0x0 SWAP2 POP SWAP1 POP SLOAD DUP2 JUMP JUMPDEST PUSH1 0x1 PUSH1 0x20 MSTORE DUP1 PUSH1 0x0 MSTORE PUSH1 0x40 PUSH1 0x0 KECCAK256 PUSH1 0x0 SWAP2 POP SWAP1 POP DUP1 SLOAD PUSH2 0x2DF SWAP1 PUSH2 0x81D JUMP JUMPDEST DUP1 PUSH1 0x1F ADD PUSH1 0x20 DUP1 SWAP2 DIV MUL PUSH1 0x20 ADD PUSH1 0x40 MLOAD SWAP1 DUP2 ADD PUSH1 0x40 MSTORE DUP1 SWAP3 SWAP2 SWAP1 DUP2 DUP2 MSTORE PUSH1 0x20 ADD DUP3 DUP1 SLOAD PUSH2 0x30B SWAP1 PUSH2 0x81D JUMP JUMPDEST DUP1 ISZERO PUSH2 0x358 JUMPI DUP1 PUSH1 0x1F LT PUSH2 0x32D JUMPI PUSH2 0x100 DUP1 DUP4 SLOAD DIV MUL DUP4 MSTORE SWAP2 PUSH1 0x20 ADD SWAP2 PUSH2 0x358 JUMP JUMPDEST DUP3 ADD SWAP2 SWAP1 PUSH1 0x0 MSTORE PUSH1 0x20 PUSH1 0x0 KECCAK256 SWAP1 JUMPDEST DUP2 SLOAD DUP2 MSTORE SWAP1 PUSH1 0x1 ADD SWAP1 PUSH1 0x20 ADD DUP1 DUP4 GT PUSH2 0x33B JUMPI DUP3 SWAP1 SUB PUSH1 0x1F AND DUP3 ADD SWAP2 JUMPDEST POP POP POP POP POP DUP2 JUMP JUMPDEST DUP3 DUP1 SLOAD PUSH2 0x36C SWAP1 PUSH2 0x81D JUMP JUMPDEST SWAP1 PUSH1 0x0 MSTORE PUSH1 0x20 PUSH1 0x0 KECCAK256 SWAP1 PUSH1 0x1F ADD PUSH1 0x20 SWAP1 DIV DUP2 ADD SWAP3 DUP3 PUSH2 0x38E JUMPI PUSH1 0x0 DUP6 SSTORE PUSH2 0x3D5 JUMP JUMPDEST DUP3 PUSH1 0x1F LT PUSH2 0x3A7 JUMPI DUP1 MLOAD PUSH1 0xFF NOT AND DUP4 DUP1 ADD OR DUP6 SSTORE PUSH2 0x3D5 JUMP JUMPDEST DUP3 DUP1 ADD PUSH1 0x1 ADD DUP6 SSTORE DUP3 ISZERO PUSH2 0x3D5 JUMPI SWAP2 DUP3 ADD JUMPDEST DUP3 DUP2 GT ISZERO PUSH2 0x3D4 JUMPI DUP3 MLOAD DUP3 SSTORE SWAP2 PUSH1 0x20 ADD SWAP2 SWAP1 PUSH1 0x1 ADD SWAP1 PUSH2 0x3B9 JUMP JUMPDEST JUMPDEST POP SWAP1 POP PUSH2 0x3E2 SWAP2 SWAP1 PUSH2 0x3E6 JUMP JUMPDEST POP SWAP1 JUMP JUMPDEST JUMPDEST DUP1 DUP3 GT ISZERO PUSH2 0x3FF JUMPI PUSH1 0x0 DUP2 PUSH1 0x0 SWAP1 SSTORE POP PUSH1 0x1 ADD PUSH2 0x3E7 JUMP JUMPDEST POP SWAP1 JUMP JUMPDEST PUSH1 0x0 PUSH1 0x40 MLOAD SWAP1 POP SWAP1 JUMP JUMPDEST PUSH1 0x0 DUP1 REVERT JUMPDEST PUSH1 0x0 DUP1 REVERT JUMPDEST PUSH1 0x0 DUP1 REVERT JUMPDEST PUSH1 0x0 DUP1 REVERT JUMPDEST PUSH1 0x0 PUSH1 0x1F NOT PUSH1 0x1F DUP4 ADD AND SWAP1 POP SWAP2 SWAP1 POP JUMP JUMPDEST PUSH32 0x4E487B7100000000000000000000000000000000000000000000000000000000 PUSH1 0x0 MSTORE PUSH1 0x41 PUSH1 0x4 MSTORE PUSH1 0x24 PUSH1 0x0 REVERT JUMPDEST PUSH2 0x46A DUP3 PUSH2 0x421 JUMP JUMPDEST DUP2 ADD DUP2 DUP2 LT PUSH8 0xFFFFFFFFFFFFFFFF DUP3 GT OR ISZERO PUSH2 0x489 JUMPI PUSH2 0x488 PUSH2 0x432 JUMP JUMPDEST JUMPDEST DUP1 PUSH1 0x40 MSTORE POP POP POP JUMP JUMPDEST PUSH1 0x0 PUSH2 0x49C PUSH2 0x403 JUMP JUMPDEST SWAP1 POP PUSH2 0x4A8 DUP3 DUP3 PUSH2 0x461 JUMP JUMPDEST SWAP2 SWAP1 POP JUMP JUMPDEST PUSH1 0x0 PUSH8 0xFFFFFFFFFFFFFFFF DUP3 GT ISZERO PUSH2 0x4C8 JUMPI PUSH2 0x4C7 PUSH2 0x432 JUMP JUMPDEST JUMPDEST PUSH2 0x4D1 DUP3 PUSH2 0x421 JUMP JUMPDEST SWAP1 POP PUSH1 0x20 DUP2 ADD SWAP1 POP SWAP2 SWAP1 POP JUMP JUMPDEST DUP3 DUP2 DUP4 CALLDATACOPY PUSH1 0x0 DUP4 DUP4 ADD MSTORE POP POP POP JUMP JUMPDEST PUSH1 0x0 PUSH2 0x500 PUSH2 0x4FB DUP5 PUSH2 0x4AD JUMP JUMPDEST PUSH2 0x492 JUMP JUMPDEST SWAP1 POP DUP3 DUP2 MSTORE PUSH1 0x20 DUP2 ADD DUP5 DUP5 DUP5 ADD GT ISZERO PUSH2 0x51C JUMPI PUSH2 0x51B PUSH2 0x41C JUMP JUMPDEST JUMPDEST PUSH2 0x527 DUP5 DUP3 DUP6 PUSH2 0x4DE JUMP JUMPDEST POP SWAP4 SWAP3 POP POP POP JUMP JUMPDEST PUSH1 0x0 DUP3 PUSH1 0x1F DUP4 ADD SLT PUSH2 0x544 JUMPI PUSH2 0x543 PUSH2 0x417 JUMP JUMPDEST JUMPDEST DUP2 CALLDATALOAD PUSH2 0x554 DUP5 DUP3 PUSH1 0x20 DUP7 ADD PUSH2 0x4ED JUMP JUMPDEST SWAP2 POP POP SWAP3 SWAP2 POP POP JUMP JUMPDEST PUSH1 0x0 PUSH1 0x20 DUP3 DUP5 SUB SLT ISZERO PUSH2 0x573 JUMPI PUSH2 0x572 PUSH2 0x40D JUMP JUMPDEST JUMPDEST PUSH1 0x0 DUP3 ADD CALLDATALOAD PUSH8 0xFFFFFFFFFFFFFFFF DUP2 GT ISZERO PUSH2 0x591 JUMPI PUSH2 0x590 PUSH2 0x412 JUMP JUMPDEST JUMPDEST PUSH2 0x59D DUP5 DUP3 DUP6 ADD PUSH2 0x52F JUMP JUMPDEST SWAP2 POP POP SWAP3 SWAP2 POP POP JUMP JUMPDEST PUSH1 0x0 PUSH20 0xFFFFFFFFFFFFFFFFFFFFFFFFFFFFFFFFFFFFFFFF DUP3 AND SWAP1 POP SWAP2 SWAP1 POP JUMP JUMPDEST PUSH1 0x0 PUSH2 0x5D1 DUP3 PUSH2 0x5A6 JUMP JUMPDEST SWAP1 POP SWAP2 SWAP1 POP JUMP JUMPDEST PUSH2 0x5E1 DUP2 PUSH2 0x5C6 JUMP JUMPDEST DUP3 MSTORE POP POP JUMP JUMPDEST PUSH1 0x0 PUSH1 0x20 DUP3 ADD SWAP1 POP PUSH2 0x5FC PUSH1 0x0 DUP4 ADD DUP5 PUSH2 0x5D8 JUMP JUMPDEST SWAP3 SWAP2 POP POP JUMP JUMPDEST PUSH1 0x0 DUP2 SWAP1 POP SWAP2 SWAP1 POP JUMP JUMPDEST PUSH2 0x615 DUP2 PUSH2 0x602 JUMP JUMPDEST DUP2 EQ PUSH2 0x620 JUMPI PUSH1 0x0 DUP1 REVERT JUMPDEST POP JUMP JUMPDEST PUSH1 0x0 DUP2 CALLDATALOAD SWAP1 POP PUSH2 0x632 DUP2 PUSH2 0x60C JUMP JUMPDEST SWAP3 SWAP2 POP POP JUMP JUMPDEST PUSH1 0x0 DUP1 PUSH1 0x40 DUP4 DUP6 SUB SLT ISZERO PUSH2 0x64F JUMPI PUSH2 0x64E PUSH2 0x40D JUMP JUMPDEST JUMPDEST PUSH1 0x0 PUSH2 0x65D DUP6 DUP3 DUP7 ADD PUSH2 0x623 JUMP JUMPDEST SWAP3 POP POP PUSH1 0x20 DUP4 ADD CALLDATALOAD PUSH8 0xFFFFFFFFFFFFFFFF DUP2 GT ISZERO PUSH2 0x67E JUMPI PUSH2 0x67D PUSH2 0x412 JUMP JUMPDEST JUMPDEST PUSH2 0x68A DUP6 DUP3 DUP7 ADD PUSH2 0x52F JUMP JUMPDEST SWAP2 POP POP SWAP3 POP SWAP3 SWAP1 POP JUMP JUMPDEST PUSH2 0x69D DUP2 PUSH2 0x602 JUMP JUMPDEST DUP3 MSTORE POP POP JUMP JUMPDEST PUSH1 0x0 PUSH1 0x20 DUP3 ADD SWAP1 POP PUSH2 0x6B8 PUSH1 0x0 DUP4 ADD DUP5 PUSH2 0x694 JUMP JUMPDEST SWAP3 SWAP2 POP POP JUMP JUMPDEST PUSH1 0x0 PUSH1 0x20 DUP3 DUP5 SUB SLT ISZERO PUSH2 0x6D4 JUMPI PUSH2 0x6D3 PUSH2 0x40D JUMP JUMPDEST JUMPDEST PUSH1 0x0 PUSH2 0x6E2 DUP5 DUP3 DUP6 ADD PUSH2 0x623 JUMP JUMPDEST SWAP2 POP POP SWAP3 SWAP2 POP POP JUMP JUMPDEST PUSH2 0x6F4 DUP2 PUSH2 0x5C6 JUMP JUMPDEST DUP2 EQ PUSH2 0x6FF JUMPI PUSH1 0x0 DUP1 REVERT JUMPDEST POP JUMP JUMPDEST PUSH1 0x0 DUP2 CALLDATALOAD SWAP1 POP PUSH2 0x711 DUP2 PUSH2 0x6EB JUMP JUMPDEST SWAP3 SWAP2 POP POP JUMP JUMPDEST PUSH1 0x0 PUSH1 0x20 DUP3 DUP5 SUB SLT ISZERO PUSH2 0x72D JUMPI PUSH2 0x72C PUSH2 0x40D JUMP JUMPDEST JUMPDEST PUSH1 0x0 PUSH2 0x73B DUP5 DUP3 DUP6 ADD PUSH2 0x702 JUMP JUMPDEST SWAP2 POP POP SWAP3 SWAP2 POP POP JUMP JUMPDEST PUSH1 0x0 DUP2 MLOAD SWAP1 POP SWAP2 SWAP1 POP JUMP JUMPDEST PUSH1 0x0 DUP3 DUP3 MSTORE PUSH1 0x20 DUP3 ADD SWAP1 POP SWAP3 SWAP2 POP POP JUMP JUMPDEST PUSH1 0x0 JUMPDEST DUP4 DUP2 LT ISZERO PUSH2 0x77E JUMPI DUP1 DUP3 ADD MLOAD DUP2 DUP5 ADD MSTORE PUSH1 0x20 DUP2 ADD SWAP1 POP PUSH2 0x763 JUMP JUMPDEST DUP4 DUP2 GT ISZERO PUSH2 0x78D JUMPI PUSH1 0x0 DUP5 DUP5 ADD MSTORE JUMPDEST POP POP POP POP JUMP JUMPDEST PUSH1 0x0 PUSH2 0x79E DUP3 PUSH2 0x744 JUMP JUMPDEST PUSH2 0x7A8 DUP2 DUP6 PUSH2 0x74F JUMP JUMPDEST SWAP4 POP PUSH2 0x7B8 DUP2 DUP6 PUSH1 0x20 DUP7 ADD PUSH2 0x760 JUMP JUMPDEST PUSH2 0x7C1 DUP2 PUSH2 0x421 JUMP JUMPDEST DUP5 ADD SWAP2 POP POP SWAP3 SWAP2 POP POP JUMP JUMPDEST PUSH1 0x0 PUSH1 0x20 DUP3 ADD SWAP1 POP DUP2 DUP2 SUB PUSH1 0x0 DUP4 ADD MSTORE PUSH2 0x7E6 DUP2 DUP5 PUSH2 0x793 JUMP JUMPDEST SWAP1 POP SWAP3 SWAP2 POP POP JUMP JUMPDEST PUSH32 0x4E487B7100000000000000000000000000000000000000000000000000000000 PUSH1 0x0 MSTORE PUSH1 0x22 PUSH1 0x4 MSTORE PUSH1 0x24 PUSH1 0x0 REVERT JUMPDEST PUSH1 0x0 PUSH1 0x2 DUP3 DIV SWAP1 POP PUSH1 0x1 DUP3 AND DUP1 PUSH2 0x835 JUMPI PUSH1 0x7F DUP3 AND SWAP2 POP JUMPDEST PUSH1 0x20 DUP3 LT DUP2 EQ ISZERO PUSH2 0x849 JUMPI PUSH2 0x848 PUSH2 0x7EE JUMP JUMPDEST JUMPDEST POP SWAP2 SWAP1 POP JUMP INVALID LOG2 PUSH5 0x6970667358 0x22 SLT KECCAK256 0x25 PUSH6 0x7867ABD94804 SLOAD 0xE0 DUP16 PUSH19 0xC57D20BA16342E806BF99E36D01595555878CB AND PUSH5 0x736F6C6343 STOP ADDMOD ADDMOD STOP CALLER "
				},
				"gasEstimates": {
					"creation": {
						"codeDepositCost": "436200",
						"executionCost": "474",
						"totalCost": "436674"
					},
					"external": {
						"addressToName(address)": "infinite",
						"addressToNum(address)": "2858",
						"getUNBA(uint256,string)": "infinite",
						"nameToAddress(string)": "infinite",
						"numberToAddress(uint256)": "2861"
					}
				},
				"methodIdentifiers": {
					"addressToName(address)": "e2a04b62",
					"addressToNum(address)": "e011d145",
					"getUNBA(uint256,string)": "15f6ce05",
					"nameToAddress(string)": "08d88aad",
					"numberToAddress(uint256)": "c7cd5a82"
				}
			},
			"storageLayout": {
				"storage": [
					{
						"astId": 5,
						"contract": "contracts/Shop9fy.sol:SeulAot",
						"label": "addressToNum",
						"offset": 0,
						"slot": "0",
						"type": "t_mapping(t_address,t_uint256)"
					},
					{
						"astId": 9,
						"contract": "contracts/Shop9fy.sol:SeulAot",
						"label": "addressToName",
						"offset": 0,
						"slot": "1",
						"type": "t_mapping(t_address,t_string_storage)"
					},
					{
						"astId": 13,
						"contract": "contracts/Shop9fy.sol:SeulAot",
						"label": "numberToAddress",
						"offset": 0,
						"slot": "2",
						"type": "t_mapping(t_uint256,t_address)"
					},
					{
						"astId": 17,
						"contract": "contracts/Shop9fy.sol:SeulAot",
						"label": "nameToAddress",
						"offset": 0,
						"slot": "3",
						"type": "t_mapping(t_string_memory_ptr,t_address)"
					}
				],
				"types": {
					"t_address": {
						"encoding": "inplace",
						"label": "address",
						"numberOfBytes": "20"
					},
					"t_mapping(t_address,t_string_storage)": {
						"encoding": "mapping",
						"key": "t_address",
						"label": "mapping(address => string)",
						"numberOfBytes": "32",
						"value": "t_string_storage"
					},
					"t_mapping(t_address,t_uint256)": {
						"encoding": "mapping",
						"key": "t_address",
						"label": "mapping(address => uint256)",
						"numberOfBytes": "32",
						"value": "t_uint256"
					},
					"t_mapping(t_string_memory_ptr,t_address)": {
						"encoding": "mapping",
						"key": "t_string_memory_ptr",
						"label": "mapping(string => address)",
						"numberOfBytes": "32",
						"value": "t_address"
					},
					"t_mapping(t_uint256,t_address)": {
						"encoding": "mapping",
						"key": "t_uint256",
						"label": "mapping(uint256 => address)",
						"numberOfBytes": "32",
						"value": "t_address"
					},
					"t_string_memory_ptr": {
						"encoding": "bytes",
						"label": "string",
						"numberOfBytes": "32"
					},
					"t_string_storage": {
						"encoding": "bytes",
						"label": "string",
						"numberOfBytes": "32"
					},
					"t_uint256": {
						"encoding": "inplace",
						"label": "uint256",
						"numberOfBytes": "32"
					}
				}
			},
			"userdoc": {
				"kind": "user",
				"methods": {},
				"version": 1
			}
		}
	}
}