{
	"contracts/Shop9fy.sol": {
		"SeulAot": {
			"abi": [
				{
					"inputs": [],
					"name": "VIEW",
					"outputs": [
						{
							"internalType": "enum SeulAot.bNCurse",
							"name": "",
							"type": "uint8"
						}
					],
					"stateMutability": "view",
					"type": "function"
				},
				{
					"inputs": [
						{
							"internalType": "address",
							"name": "",
							"type": "address"
						}
					],
					"name": "addressToNum",
					"outputs": [
						{
							"internalType": "uint256",
							"name": "",
							"type": "uint256"
						}
					],
					"stateMutability": "view",
					"type": "function"
				},
				{
					"inputs": [
						{
							"internalType": "uint256",
							"name": "_num",
							"type": "uint256"
						}
					],
					"name": "getUNBA",
					"outputs": [
						{
							"internalType": "uint256",
							"name": "",
							"type": "uint256"
						}
					],
					"stateMutability": "nonpayable",
					"type": "function"
				}
			],
			"devdoc": {
				"kind": "dev",
				"methods": {},
				"version": 1
			},
			"evm": {
				"assembly": "    /* \"contracts/Shop9fy.sol\":57:1223  contract SeulAot{... */\n  mstore(0x40, 0x80)\n  callvalue\n  dup1\n  iszero\n  tag_1\n  jumpi\n  0x00\n  dup1\n  revert\ntag_1:\n  pop\n  dataSize(sub_0)\n  dup1\n  dataOffset(sub_0)\n  0x00\n  codecopy\n  0x00\n  return\nstop\n\nsub_0: assembly {\n        /* \"contracts/Shop9fy.sol\":57:1223  contract SeulAot{... */\n      mstore(0x40, 0x80)\n      callvalue\n      dup1\n      iszero\n      tag_1\n      jumpi\n      0x00\n      dup1\n      revert\n    tag_1:\n      pop\n      jumpi(tag_2, lt(calldatasize, 0x04))\n      shr(0xe0, calldataload(0x00))\n      dup1\n      0x2a3f192b\n      eq\n      tag_3\n      jumpi\n      dup1\n      0xba294767\n      eq\n      tag_4\n      jumpi\n      dup1\n      0xe011d145\n      eq\n      tag_5\n      jumpi\n    tag_2:\n      0x00\n      dup1\n      revert\n        /* \"contracts/Shop9fy.sol\":497:578  function VIEW() public view returns(bNCurse){... */\n    tag_3:\n      tag_6\n      tag_7\n      jump\t// in\n    tag_6:\n      mload(0x40)\n      tag_8\n      swap2\n      swap1\n      tag_9\n      jump\t// in\n    tag_8:\n      mload(0x40)\n      dup1\n      swap2\n      sub\n      swap1\n      return\n        /* \"contracts/Shop9fy.sol\":755:996  function getUNBA(uint256 _num) public  returns(uint){... */\n    tag_4:\n      tag_10\n      0x04\n      dup1\n      calldatasize\n      sub\n      dup2\n      add\n      swap1\n      tag_11\n      swap2\n      swap1\n      tag_12\n      jump\t// in\n    tag_11:\n      tag_13\n      jump\t// in\n    tag_10:\n      mload(0x40)\n      tag_14\n      swap2\n      swap1\n      tag_15\n      jump\t// in\n    tag_14:\n      mload(0x40)\n      dup1\n      swap2\n      sub\n      swap1\n      return\n        /* \"contracts/Shop9fy.sol\":156:203  mapping(address => uint256) public addressToNum */\n    tag_5:\n      tag_16\n      0x04\n      dup1\n      calldatasize\n      sub\n      dup2\n      add\n      swap1\n      tag_17\n      swap2\n      swap1\n      tag_18\n      jump\t// in\n    tag_17:\n      tag_19\n      jump\t// in\n    tag_16:\n      mload(0x40)\n      tag_20\n      swap2\n      swap1\n      tag_15\n      jump\t// in\n    tag_20:\n      mload(0x40)\n      dup1\n      swap2\n      sub\n      swap1\n      return\n        /* \"contracts/Shop9fy.sol\":497:578  function VIEW() public view returns(bNCurse){... */\n    tag_7:\n        /* \"contracts/Shop9fy.sol\":533:540  bNCurse */\n      0x00\n        /* \"contracts/Shop9fy.sol\":558:571  currentChoice */\n      0x02\n      0x00\n      swap1\n      sload\n      swap1\n      0x0100\n      exp\n      swap1\n      div\n      0xff\n      and\n        /* \"contracts/Shop9fy.sol\":551:571  return currentChoice */\n      swap1\n      pop\n        /* \"contracts/Shop9fy.sol\":497:578  function VIEW() public view returns(bNCurse){... */\n      swap1\n      jump\t// out\n        /* \"contracts/Shop9fy.sol\":755:996  function getUNBA(uint256 _num) public  returns(uint){... */\n    tag_13:\n        /* \"contracts/Shop9fy.sol\":802:806  uint */\n      0x00\n        /* \"contracts/Shop9fy.sol\":845:849  _num */\n      dup2\n        /* \"contracts/Shop9fy.sol\":818:830  addressToNum */\n      0x01\n        /* \"contracts/Shop9fy.sol\":818:842  addressToNum[msg.sender] */\n      0x00\n        /* \"contracts/Shop9fy.sol\":831:841  msg.sender */\n      caller\n        /* \"contracts/Shop9fy.sol\":818:842  addressToNum[msg.sender] */\n      0xffffffffffffffffffffffffffffffffffffffff\n      and\n      0xffffffffffffffffffffffffffffffffffffffff\n      and\n      dup2\n      mstore\n      0x20\n      add\n      swap1\n      dup2\n      mstore\n      0x20\n      add\n      0x00\n      keccak256\n        /* \"contracts/Shop9fy.sol\":818:849  addressToNum[msg.sender] = _num */\n      dup2\n      swap1\n      sstore\n      pop\n        /* \"contracts/Shop9fy.sol\":913:925  addressToNum */\n      0x01\n        /* \"contracts/Shop9fy.sol\":913:937  addressToNum[msg.sender] */\n      0x00\n        /* \"contracts/Shop9fy.sol\":926:936  msg.sender */\n      caller\n        /* \"contracts/Shop9fy.sol\":913:937  addressToNum[msg.sender] */\n      0xffffffffffffffffffffffffffffffffffffffff\n      and\n      0xffffffffffffffffffffffffffffffffffffffff\n      and\n      dup2\n      mstore\n      0x20\n      add\n      swap1\n      dup2\n      mstore\n      0x20\n      add\n      0x00\n      keccak256\n      sload\n        /* \"contracts/Shop9fy.sol\":906:938  return(addressToNum[msg.sender]) */\n      swap1\n      pop\n        /* \"contracts/Shop9fy.sol\":755:996  function getUNBA(uint256 _num) public  returns(uint){... */\n      swap2\n      swap1\n      pop\n      jump\t// out\n        /* \"contracts/Shop9fy.sol\":156:203  mapping(address => uint256) public addressToNum */\n    tag_19:\n      mstore(0x20, 0x01)\n      dup1\n      0x00\n      mstore\n      keccak256(0x00, 0x40)\n      0x00\n      swap2\n      pop\n      swap1\n      pop\n      sload\n      dup2\n      jump\t// out\n        /* \"#utility.yul\":7:187   */\n    tag_23:\n        /* \"#utility.yul\":55:132   */\n      0x4e487b7100000000000000000000000000000000000000000000000000000000\n        /* \"#utility.yul\":52:53   */\n      0x00\n        /* \"#utility.yul\":45:133   */\n      mstore\n        /* \"#utility.yul\":152:156   */\n      0x21\n        /* \"#utility.yul\":149:150   */\n      0x04\n        /* \"#utility.yul\":142:157   */\n      mstore\n        /* \"#utility.yul\":176:180   */\n      0x24\n        /* \"#utility.yul\":173:174   */\n      0x00\n        /* \"#utility.yul\":166:181   */\n      revert\n        /* \"#utility.yul\":193:308   */\n    tag_24:\n        /* \"#utility.yul\":276:277   */\n      0x03\n        /* \"#utility.yul\":269:274   */\n      dup2\n        /* \"#utility.yul\":266:278   */\n      lt\n        /* \"#utility.yul\":256:302   */\n      tag_42\n      jumpi\n        /* \"#utility.yul\":282:300   */\n      tag_43\n      tag_23\n      jump\t// in\n    tag_43:\n        /* \"#utility.yul\":256:302   */\n    tag_42:\n        /* \"#utility.yul\":193:308   */\n      pop\n      jump\t// out\n        /* \"#utility.yul\":314:445   */\n    tag_25:\n        /* \"#utility.yul\":361:368   */\n      0x00\n        /* \"#utility.yul\":390:395   */\n      dup2\n        /* \"#utility.yul\":379:395   */\n      swap1\n      pop\n        /* \"#utility.yul\":396:439   */\n      tag_45\n        /* \"#utility.yul\":433:438   */\n      dup3\n        /* \"#utility.yul\":396:439   */\n      tag_24\n      jump\t// in\n    tag_45:\n        /* \"#utility.yul\":314:445   */\n      swap2\n      swap1\n      pop\n      jump\t// out\n        /* \"#utility.yul\":451:582   */\n    tag_26:\n        /* \"#utility.yul\":509:518   */\n      0x00\n        /* \"#utility.yul\":542:576   */\n      tag_47\n        /* \"#utility.yul\":570:575   */\n      dup3\n        /* \"#utility.yul\":542:576   */\n      tag_25\n      jump\t// in\n    tag_47:\n        /* \"#utility.yul\":529:576   */\n      swap1\n      pop\n        /* \"#utility.yul\":451:582   */\n      swap2\n      swap1\n      pop\n      jump\t// out\n        /* \"#utility.yul\":588:735   */\n    tag_27:\n        /* \"#utility.yul\":683:728   */\n      tag_49\n        /* \"#utility.yul\":722:727   */\n      dup2\n        /* \"#utility.yul\":683:728   */\n      tag_26\n      jump\t// in\n    tag_49:\n        /* \"#utility.yul\":678:681   */\n      dup3\n        /* \"#utility.yul\":671:729   */\n      mstore\n        /* \"#utility.yul\":588:735   */\n      pop\n      pop\n      jump\t// out\n        /* \"#utility.yul\":741:979   */\n    tag_9:\n        /* \"#utility.yul\":842:846   */\n      0x00\n        /* \"#utility.yul\":880:882   */\n      0x20\n        /* \"#utility.yul\":869:878   */\n      dup3\n        /* \"#utility.yul\":865:883   */\n      add\n        /* \"#utility.yul\":857:883   */\n      swap1\n      pop\n        /* \"#utility.yul\":893:972   */\n      tag_51\n        /* \"#utility.yul\":969:970   */\n      0x00\n        /* \"#utility.yul\":958:967   */\n      dup4\n        /* \"#utility.yul\":954:971   */\n      add\n        /* \"#utility.yul\":945:951   */\n      dup5\n        /* \"#utility.yul\":893:972   */\n      tag_27\n      jump\t// in\n    tag_51:\n        /* \"#utility.yul\":741:979   */\n      swap3\n      swap2\n      pop\n      pop\n      jump\t// out\n        /* \"#utility.yul\":1066:1183   */\n    tag_29:\n        /* \"#utility.yul\":1175:1176   */\n      0x00\n        /* \"#utility.yul\":1172:1173   */\n      dup1\n        /* \"#utility.yul\":1165:1177   */\n      revert\n        /* \"#utility.yul\":1312:1389   */\n    tag_31:\n        /* \"#utility.yul\":1349:1356   */\n      0x00\n        /* \"#utility.yul\":1378:1383   */\n      dup2\n        /* \"#utility.yul\":1367:1383   */\n      swap1\n      pop\n        /* \"#utility.yul\":1312:1389   */\n      swap2\n      swap1\n      pop\n      jump\t// out\n        /* \"#utility.yul\":1395:1517   */\n    tag_32:\n        /* \"#utility.yul\":1468:1492   */\n      tag_57\n        /* \"#utility.yul\":1486:1491   */\n      dup2\n        /* \"#utility.yul\":1468:1492   */\n      tag_31\n      jump\t// in\n    tag_57:\n        /* \"#utility.yul\":1461:1466   */\n      dup2\n        /* \"#utility.yul\":1458:1493   */\n      eq\n        /* \"#utility.yul\":1448:1511   */\n      tag_58\n      jumpi\n        /* \"#utility.yul\":1507:1508   */\n      0x00\n        /* \"#utility.yul\":1504:1505   */\n      dup1\n        /* \"#utility.yul\":1497:1509   */\n      revert\n        /* \"#utility.yul\":1448:1511   */\n    tag_58:\n        /* \"#utility.yul\":1395:1517   */\n      pop\n      jump\t// out\n        /* \"#utility.yul\":1523:1662   */\n    tag_33:\n        /* \"#utility.yul\":1569:1574   */\n      0x00\n        /* \"#utility.yul\":1607:1613   */\n      dup2\n        /* \"#utility.yul\":1594:1614   */\n      calldataload\n        /* \"#utility.yul\":1585:1614   */\n      swap1\n      pop\n        /* \"#utility.yul\":1623:1656   */\n      tag_60\n        /* \"#utility.yul\":1650:1655   */\n      dup2\n        /* \"#utility.yul\":1623:1656   */\n      tag_32\n      jump\t// in\n    tag_60:\n        /* \"#utility.yul\":1523:1662   */\n      swap3\n      swap2\n      pop\n      pop\n      jump\t// out\n        /* \"#utility.yul\":1668:1997   */\n    tag_12:\n        /* \"#utility.yul\":1727:1733   */\n      0x00\n        /* \"#utility.yul\":1776:1778   */\n      0x20\n        /* \"#utility.yul\":1764:1773   */\n      dup3\n        /* \"#utility.yul\":1755:1762   */\n      dup5\n        /* \"#utility.yul\":1751:1774   */\n      sub\n        /* \"#utility.yul\":1747:1779   */\n      slt\n        /* \"#utility.yul\":1744:1863   */\n      iszero\n      tag_62\n      jumpi\n        /* \"#utility.yul\":1782:1861   */\n      tag_63\n      tag_29\n      jump\t// in\n    tag_63:\n        /* \"#utility.yul\":1744:1863   */\n    tag_62:\n        /* \"#utility.yul\":1902:1903   */\n      0x00\n        /* \"#utility.yul\":1927:1980   */\n      tag_64\n        /* \"#utility.yul\":1972:1979   */\n      dup5\n        /* \"#utility.yul\":1963:1969   */\n      dup3\n        /* \"#utility.yul\":1952:1961   */\n      dup6\n        /* \"#utility.yul\":1948:1970   */\n      add\n        /* \"#utility.yul\":1927:1980   */\n      tag_33\n      jump\t// in\n    tag_64:\n        /* \"#utility.yul\":1917:1980   */\n      swap2\n      pop\n        /* \"#utility.yul\":1873:1990   */\n      pop\n        /* \"#utility.yul\":1668:1997   */\n      swap3\n      swap2\n      pop\n      pop\n      jump\t// out\n        /* \"#utility.yul\":2003:2121   */\n    tag_34:\n        /* \"#utility.yul\":2090:2114   */\n      tag_66\n        /* \"#utility.yul\":2108:2113   */\n      dup2\n        /* \"#utility.yul\":2090:2114   */\n      tag_31\n      jump\t// in\n    tag_66:\n        /* \"#utility.yul\":2085:2088   */\n      dup3\n        /* \"#utility.yul\":2078:2115   */\n      mstore\n        /* \"#utility.yul\":2003:2121   */\n      pop\n      pop\n      jump\t// out\n        /* \"#utility.yul\":2127:2349   */\n    tag_15:\n        /* \"#utility.yul\":2220:2224   */\n      0x00\n        /* \"#utility.yul\":2258:2260   */\n      0x20\n        /* \"#utility.yul\":2247:2256   */\n      dup3\n        /* \"#utility.yul\":2243:2261   */\n      add\n        /* \"#utility.yul\":2235:2261   */\n      swap1\n      pop\n        /* \"#utility.yul\":2271:2342   */\n      tag_68\n        /* \"#utility.yul\":2339:2340   */\n      0x00\n        /* \"#utility.yul\":2328:2337   */\n      dup4\n        /* \"#utility.yul\":2324:2341   */\n      add\n        /* \"#utility.yul\":2315:2321   */\n      dup5\n        /* \"#utility.yul\":2271:2342   */\n      tag_34\n      jump\t// in\n    tag_68:\n        /* \"#utility.yul\":2127:2349   */\n      swap3\n      swap2\n      pop\n      pop\n      jump\t// out\n        /* \"#utility.yul\":2355:2481   */\n    tag_35:\n        /* \"#utility.yul\":2392:2399   */\n      0x00\n        /* \"#utility.yul\":2432:2474   */\n      0xffffffffffffffffffffffffffffffffffffffff\n        /* \"#utility.yul\":2425:2430   */\n      dup3\n        /* \"#utility.yul\":2421:2475   */\n      and\n        /* \"#utility.yul\":2410:2475   */\n      swap1\n      pop\n        /* \"#utility.yul\":2355:2481   */\n      swap2\n      swap1\n      pop\n      jump\t// out\n        /* \"#utility.yul\":2487:2583   */\n    tag_36:\n        /* \"#utility.yul\":2524:2531   */\n      0x00\n        /* \"#utility.yul\":2553:2577   */\n      tag_71\n        /* \"#utility.yul\":2571:2576   */\n      dup3\n        /* \"#utility.yul\":2553:2577   */\n      tag_35\n      jump\t// in\n    tag_71:\n        /* \"#utility.yul\":2542:2577   */\n      swap1\n      pop\n        /* \"#utility.yul\":2487:2583   */\n      swap2\n      swap1\n      pop\n      jump\t// out\n        /* \"#utility.yul\":2589:2711   */\n    tag_37:\n        /* \"#utility.yul\":2662:2686   */\n      tag_73\n        /* \"#utility.yul\":2680:2685   */\n      dup2\n        /* \"#utility.yul\":2662:2686   */\n      tag_36\n      jump\t// in\n    tag_73:\n        /* \"#utility.yul\":2655:2660   */\n      dup2\n        /* \"#utility.yul\":2652:2687   */\n      eq\n        /* \"#utility.yul\":2642:2705   */\n      tag_74\n      jumpi\n        /* \"#utility.yul\":2701:2702   */\n      0x00\n        /* \"#utility.yul\":2698:2699   */\n      dup1\n        /* \"#utility.yul\":2691:2703   */\n      revert\n        /* \"#utility.yul\":2642:2705   */\n    tag_74:\n        /* \"#utility.yul\":2589:2711   */\n      pop\n      jump\t// out\n        /* \"#utility.yul\":2717:2856   */\n    tag_38:\n        /* \"#utility.yul\":2763:2768   */\n      0x00\n        /* \"#utility.yul\":2801:2807   */\n      dup2\n        /* \"#utility.yul\":2788:2808   */\n      calldataload\n        /* \"#utility.yul\":2779:2808   */\n      swap1\n      pop\n        /* \"#utility.yul\":2817:2850   */\n      tag_76\n        /* \"#utility.yul\":2844:2849   */\n      dup2\n        /* \"#utility.yul\":2817:2850   */\n      tag_37\n      jump\t// in\n    tag_76:\n        /* \"#utility.yul\":2717:2856   */\n      swap3\n      swap2\n      pop\n      pop\n      jump\t// out\n        /* \"#utility.yul\":2862:3191   */\n    tag_18:\n        /* \"#utility.yul\":2921:2927   */\n      0x00\n        /* \"#utility.yul\":2970:2972   */\n      0x20\n        /* \"#utility.yul\":2958:2967   */\n      dup3\n        /* \"#utility.yul\":2949:2956   */\n      dup5\n        /* \"#utility.yul\":2945:2968   */\n      sub\n        /* \"#utility.yul\":2941:2973   */\n      slt\n        /* \"#utility.yul\":2938:3057   */\n      iszero\n      tag_78\n      jumpi\n        /* \"#utility.yul\":2976:3055   */\n      tag_79\n      tag_29\n      jump\t// in\n    tag_79:\n        /* \"#utility.yul\":2938:3057   */\n    tag_78:\n        /* \"#utility.yul\":3096:3097   */\n      0x00\n        /* \"#utility.yul\":3121:3174   */\n      tag_80\n        /* \"#utility.yul\":3166:3173   */\n      dup5\n        /* \"#utility.yul\":3157:3163   */\n      dup3\n        /* \"#utility.yul\":3146:3155   */\n      dup6\n        /* \"#utility.yul\":3142:3164   */\n      add\n        /* \"#utility.yul\":3121:3174   */\n      tag_38\n      jump\t// in\n    tag_80:\n        /* \"#utility.yul\":3111:3174   */\n      swap2\n      pop\n        /* \"#utility.yul\":3067:3184   */\n      pop\n        /* \"#utility.yul\":2862:3191   */\n      swap3\n      swap2\n      pop\n      pop\n      jump\t// out\n\n    auxdata: 0xa2646970667358221220cc991b5b6ca53276841d4ccd3a92c861788185ec4ac9ad5f313aeed9e3f7618064736f6c63430008080033\n}\n",
				"bytecode": {
					"linkReferences": {},
					"object": "608060405234801561001057600080fd5b50610365806100206000396000f3fe608060405234801561001057600080fd5b50600436106100415760003560e01c80632a3f192b14610046578063ba29476714610064578063e011d14514610094575b600080fd5b61004e6100c4565b60405161005b91906101f7565b60405180910390f35b61007e6004803603810190610079919061024d565b6100db565b60405161008b9190610289565b60405180910390f35b6100ae60048036038101906100a99190610302565b610168565b6040516100bb9190610289565b60405180910390f35b6000600260009054906101000a900460ff16905090565b600081600160003373ffffffffffffffffffffffffffffffffffffffff1673ffffffffffffffffffffffffffffffffffffffff16815260200190815260200160002081905550600160003373ffffffffffffffffffffffffffffffffffffffff1673ffffffffffffffffffffffffffffffffffffffff168152602001908152602001600020549050919050565b60016020528060005260406000206000915090505481565b7f4e487b7100000000000000000000000000000000000000000000000000000000600052602160045260246000fd5b600381106101c0576101bf610180565b5b50565b60008190506101d1826101af565b919050565b60006101e1826101c3565b9050919050565b6101f1816101d6565b82525050565b600060208201905061020c60008301846101e8565b92915050565b600080fd5b6000819050919050565b61022a81610217565b811461023557600080fd5b50565b60008135905061024781610221565b92915050565b60006020828403121561026357610262610212565b5b600061027184828501610238565b91505092915050565b61028381610217565b82525050565b600060208201905061029e600083018461027a565b92915050565b600073ffffffffffffffffffffffffffffffffffffffff82169050919050565b60006102cf826102a4565b9050919050565b6102df816102c4565b81146102ea57600080fd5b50565b6000813590506102fc816102d6565b92915050565b60006020828403121561031857610317610212565b5b6000610326848285016102ed565b9150509291505056fea2646970667358221220cc991b5b6ca53276841d4ccd3a92c861788185ec4ac9ad5f313aeed9e3f7618064736f6c63430008080033",
					"opcodes": "PUSH1 0x80 PUSH1 0x40 MSTORE CALLVALUE DUP1 ISZERO PUSH2 0x10 JUMPI PUSH1 0x0 DUP1 REVERT JUMPDEST POP PUSH2 0x365 DUP1 PUSH2 0x20 PUSH1 0x0 CODECOPY PUSH1 0x0 RETURN INVALID PUSH1 0x80 PUSH1 0x40 MSTORE CALLVALUE DUP1 ISZERO PUSH2 0x10 JUMPI PUSH1 0x0 DUP1 REVERT JUMPDEST POP PUSH1 0x4 CALLDATASIZE LT PUSH2 0x41 JUMPI PUSH1 0x0 CALLDATALOAD PUSH1 0xE0 SHR DUP1 PUSH4 0x2A3F192B EQ PUSH2 0x46 JUMPI DUP1 PUSH4 0xBA294767 EQ PUSH2 0x64 JUMPI DUP1 PUSH4 0xE011D145 EQ PUSH2 0x94 JUMPI JUMPDEST PUSH1 0x0 DUP1 REVERT JUMPDEST PUSH2 0x4E PUSH2 0xC4 JUMP JUMPDEST PUSH1 0x40 MLOAD PUSH2 0x5B SWAP2 SWAP1 PUSH2 0x1F7 JUMP JUMPDEST PUSH1 0x40 MLOAD DUP1 SWAP2 SUB SWAP1 RETURN JUMPDEST PUSH2 0x7E PUSH1 0x4 DUP1 CALLDATASIZE SUB DUP2 ADD SWAP1 PUSH2 0x79 SWAP2 SWAP1 PUSH2 0x24D JUMP JUMPDEST PUSH2 0xDB JUMP JUMPDEST PUSH1 0x40 MLOAD PUSH2 0x8B SWAP2 SWAP1 PUSH2 0x289 JUMP JUMPDEST PUSH1 0x40 MLOAD DUP1 SWAP2 SUB SWAP1 RETURN JUMPDEST PUSH2 0xAE PUSH1 0x4 DUP1 CALLDATASIZE SUB DUP2 ADD SWAP1 PUSH2 0xA9 SWAP2 SWAP1 PUSH2 0x302 JUMP JUMPDEST PUSH2 0x168 JUMP JUMPDEST PUSH1 0x40 MLOAD PUSH2 0xBB SWAP2 SWAP1 PUSH2 0x289 JUMP JUMPDEST PUSH1 0x40 MLOAD DUP1 SWAP2 SUB SWAP1 RETURN JUMPDEST PUSH1 0x0 PUSH1 0x2 PUSH1 0x0 SWAP1 SLOAD SWAP1 PUSH2 0x100 EXP SWAP1 DIV PUSH1 0xFF AND SWAP1 POP SWAP1 JUMP JUMPDEST PUSH1 0x0 DUP2 PUSH1 0x1 PUSH1 0x0 CALLER PUSH20 0xFFFFFFFFFFFFFFFFFFFFFFFFFFFFFFFFFFFFFFFF AND PUSH20 0xFFFFFFFFFFFFFFFFFFFFFFFFFFFFFFFFFFFFFFFF AND DUP2 MSTORE PUSH1 0x20 ADD SWAP1 DUP2 MSTORE PUSH1 0x20 ADD PUSH1 0x0 KECCAK256 DUP2 SWAP1 SSTORE POP PUSH1 0x1 PUSH1 0x0 CALLER PUSH20 0xFFFFFFFFFFFFFFFFFFFFFFFFFFFFFFFFFFFFFFFF AND PUSH20 0xFFFFFFFFFFFFFFFFFFFFFFFFFFFFFFFFFFFFFFFF AND DUP2 MSTORE PUSH1 0x20 ADD SWAP1 DUP2 MSTORE PUSH1 0x20 ADD PUSH1 0x0 KECCAK256 SLOAD SWAP1 POP SWAP2 SWAP1 POP JUMP JUMPDEST PUSH1 0x1 PUSH1 0x20 MSTORE DUP1 PUSH1 0x0 MSTORE PUSH1 0x40 PUSH1 0x0 KECCAK256 PUSH1 0x0 SWAP2 POP SWAP1 POP SLOAD DUP2 JUMP JUMPDEST PUSH32 0x4E487B7100000000000000000000000000000000000000000000000000000000 PUSH1 0x0 MSTORE PUSH1 0x21 PUSH1 0x4 MSTORE PUSH1 0x24 PUSH1 0x0 REVERT JUMPDEST PUSH1 0x3 DUP2 LT PUSH2 0x1C0 JUMPI PUSH2 0x1BF PUSH2 0x180 JUMP JUMPDEST JUMPDEST POP JUMP JUMPDEST PUSH1 0x0 DUP2 SWAP1 POP PUSH2 0x1D1 DUP3 PUSH2 0x1AF JUMP JUMPDEST SWAP2 SWAP1 POP JUMP JUMPDEST PUSH1 0x0 PUSH2 0x1E1 DUP3 PUSH2 0x1C3 JUMP JUMPDEST SWAP1 POP SWAP2 SWAP1 POP JUMP JUMPDEST PUSH2 0x1F1 DUP2 PUSH2 0x1D6 JUMP JUMPDEST DUP3 MSTORE POP POP JUMP JUMPDEST PUSH1 0x0 PUSH1 0x20 DUP3 ADD SWAP1 POP PUSH2 0x20C PUSH1 0x0 DUP4 ADD DUP5 PUSH2 0x1E8 JUMP JUMPDEST SWAP3 SWAP2 POP POP JUMP JUMPDEST PUSH1 0x0 DUP1 REVERT JUMPDEST PUSH1 0x0 DUP2 SWAP1 POP SWAP2 SWAP1 POP JUMP JUMPDEST PUSH2 0x22A DUP2 PUSH2 0x217 JUMP JUMPDEST DUP2 EQ PUSH2 0x235 JUMPI PUSH1 0x0 DUP1 REVERT JUMPDEST POP JUMP JUMPDEST PUSH1 0x0 DUP2 CALLDATALOAD SWAP1 POP PUSH2 0x247 DUP2 PUSH2 0x221 JUMP JUMPDEST SWAP3 SWAP2 POP POP JUMP JUMPDEST PUSH1 0x0 PUSH1 0x20 DUP3 DUP5 SUB SLT ISZERO PUSH2 0x263 JUMPI PUSH2 0x262 PUSH2 0x212 JUMP JUMPDEST JUMPDEST PUSH1 0x0 PUSH2 0x271 DUP5 DUP3 DUP6 ADD PUSH2 0x238 JUMP JUMPDEST SWAP2 POP POP SWAP3 SWAP2 POP POP JUMP JUMPDEST PUSH2 0x283 DUP2 PUSH2 0x217 JUMP JUMPDEST DUP3 MSTORE POP POP JUMP JUMPDEST PUSH1 0x0 PUSH1 0x20 DUP3 ADD SWAP1 POP PUSH2 0x29E PUSH1 0x0 DUP4 ADD DUP5 PUSH2 0x27A JUMP JUMPDEST SWAP3 SWAP2 POP POP JUMP JUMPDEST PUSH1 0x0 PUSH20 0xFFFFFFFFFFFFFFFFFFFFFFFFFFFFFFFFFFFFFFFF DUP3 AND SWAP1 POP SWAP2 SWAP1 POP JUMP JUMPDEST PUSH1 0x0 PUSH2 0x2CF DUP3 PUSH2 0x2A4 JUMP JUMPDEST SWAP1 POP SWAP2 SWAP1 POP JUMP JUMPDEST PUSH2 0x2DF DUP2 PUSH2 0x2C4 JUMP JUMPDEST DUP2 EQ PUSH2 0x2EA JUMPI PUSH1 0x0 DUP1 REVERT JUMPDEST POP JUMP JUMPDEST PUSH1 0x0 DUP2 CALLDATALOAD SWAP1 POP PUSH2 0x2FC DUP2 PUSH2 0x2D6 JUMP JUMPDEST SWAP3 SWAP2 POP POP JUMP JUMPDEST PUSH1 0x0 PUSH1 0x20 DUP3 DUP5 SUB SLT ISZERO PUSH2 0x318 JUMPI PUSH2 0x317 PUSH2 0x212 JUMP JUMPDEST JUMPDEST PUSH1 0x0 PUSH2 0x326 DUP5 DUP3 DUP6 ADD PUSH2 0x2ED JUMP JUMPDEST SWAP2 POP POP SWAP3 SWAP2 POP POP JUMP INVALID LOG2 PUSH5 0x6970667358 0x22 SLT KECCAK256 0xCC SWAP10 SHL JUMPDEST PUSH13 0xA53276841D4CCD3A92C8617881 DUP6 0xEC 0x4A 0xC9 0xAD 0x5F BALANCE GASPRICE 0xEE 0xD9 0xE3 0xF7 PUSH2 0x8064 PUSH20 0x6F6C634300080800330000000000000000000000 "
				},
				"gasEstimates": {
					"creation": {
						"codeDepositCost": "173800",
						"executionCost": "220",
						"totalCost": "174020"
					},
					"external": {
						"VIEW()": "2546",
						"addressToNum(address)": "2836",
						"getUNBA(uint256)": "infinite"
					}
				},
				"methodIdentifiers": {
					"VIEW()": "2a3f192b",
					"addressToNum(address)": "e011d145",
					"getUNBA(uint256)": "ba294767"
				}
			},
			"storageLayout": {
				"storage": [
					{
						"astId": 3,
						"contract": "contracts/Shop9fy.sol:SeulAot",
						"label": "monNumero",
						"offset": 0,
						"slot": "0",
						"type": "t_uint256"
					},
					{
						"astId": 7,
						"contract": "contracts/Shop9fy.sol:SeulAot",
						"label": "addressToNum",
						"offset": 0,
						"slot": "1",
						"type": "t_mapping(t_address,t_uint256)"
					},
					{
						"astId": 14,
						"contract": "contracts/Shop9fy.sol:SeulAot",
						"label": "currentChoice",
						"offset": 0,
						"slot": "2",
						"type": "t_enum(bNCurse)11"
					}
				],
				"types": {
					"t_address": {
						"encoding": "inplace",
						"label": "address",
						"numberOfBytes": "20"
					},
					"t_enum(bNCurse)11": {
						"encoding": "inplace",
						"label": "enum SeulAot.bNCurse",
						"numberOfBytes": "1"
					},
					"t_mapping(t_address,t_uint256)": {
						"encoding": "mapping",
						"key": "t_address",
						"label": "mapping(address => uint256)",
						"numberOfBytes": "32",
						"value": "t_uint256"
					},
					"t_uint256": {
						"encoding": "inplace",
						"label": "uint256",
						"numberOfBytes": "32"
					}
				}
			},
			"userdoc": {
				"kind": "user",
				"methods": {},
				"version": 1
			}
		}
	}
}